:020000040800F2
:10000000F8070020C5040008C9020008CB02000858
:10001000CF020008D3020008D70200080000000049
:10002000000000000000000000000000DB020008EB
:10003000DD02000800000000DF020008E102000805
:10004000DF040008DF040008DF040008DF04000804
:10005000DF040008DF040008DF040008DF040008F4
:10006000853400084B340008BB340008DF04000866
:10007000DF040008D32C0008DF0400086F2B000801
:10008000DF040008DF040008DF040008DF040008C4
:10009000DF040008DF040008DF040008DF040008B4
:1000A000DF040008A13A0008DF040008DF040008AC
:1000B000DD2E0008DF040008DB300008DF04000844
:1000C000DF040008DF040008DF040008DF04000884
:1000D000DF040008BB290008DF040008DF04000873
:1000E000DF040008DF040008DF040008DF04000864
:1000F000693A0008DF040008DF040008DF04000894
:10010000DF040008DF040008FF390008DF040008EE
:10011000DF040008DF040008D9320008892F000836
:10012000DF040008DF040008DF040008DF04000823
:1001300000F002F800F03AF80AA090E8000C8244BF
:100140008344AAF10107DA4501D100F02FF8AFF29C
:10015000090EBAE80F0013F0010F18BFFB1A43F0A5
:10016000010318474840000068400000103A24BFCF
:1001700078C878C1FAD8520724BF30C830C144BF0C
:1001800004680C607047000000230024002500264E
:10019000103A28BF78C1FBD8520728BF30C148BFEA
:1001A0000B6070471FB51FBD10B510BD03F099FC63
:1001B0001146FFF7F7FF00F065F803F0B7FC03B452
:1001C000FFF7F2FF03BC02F09DFB000059E00020A6
:1001D000384908604FF47A7002F067FB0120364915
:1001E000C1F880014FF47A7002F05FFB3348006879
:1001F000012846D10020314908603148006820B10B
:10020000012814D002283AD123E0002003F066FB35
:100210000A2003F08BFB002003F0B0FB2D2003F03D
:10022000EEF9284A6321022002F0F5FD28E0254876
:1002300003F054FB234803F079FB012003F09EFBFD
:10024000002003F0DCF91F4A6321012002F0E3FDE6
:1002500016E01C48404203F041FB1A48404203F0BC
:1002600065FB4FF0FF3003F089FB5A2003F0C7F91C
:100270004CF250326321002002F0CDFD00E000BFBF
:1002800000BFA4E703F035F802F0D2FA03F012FC45
:1002900003F08FF803F048F902F0D4FB02F080FC81
:1002A00003F059F802F080FE4FF4617003F09FF9FB
:1002B000FFF78CFF8001224200002242A0000020B4
:1002C000A4000020A0860100704700BFFEE700BF29
:1002D000FEE700BFFEE700BFFEE7704770477047CC
:1002E000704700000CB50020019000906C48006839
:1002F00040F480306A49086000BF6948006800F433
:10030000003000900198401C0190009818B90198A5
:10031000B0F5A06FF1D16248006800F4003010B170
:100320000120009001E0002000900098012843D1B6
:100330005C48006840F010005A49086008460068B0
:1003400020F0030008600846006840F002000860E2
:10035000534840685249486008464068486008462B
:10036000406840F4806048600846406820F47C1093
:1003700048600846406840F4E81048600846006855
:1003800040F08070086000BF4548006800F00070D1
:100390000028F9D04248406820F0030040494860F6
:1003A0000846406840F00200486000BF3C48406892
:1003B00000F00C000828F9D10CBD10B5FFF792FF32
:1003C00010BD10B53648006840F00100344908609F
:1003D000084640683449084031494860084600688A
:1003E000324908402E4908600846006820F4802001
:1003F00008600846406820F4FE0048604FF41F0083
:100400008860FFF7DAFF4FF000602949086010BDEF
:1004100010B5002100200022214B5B6803F00C0185
:1004200021B1042906D0082928D107E0214B224C0C
:10043000236027E01F4B204C236023E0184B5B68B0
:1004400003F47010164B5B6803F48032022303EB55
:10045000904022B9194B4343174C23600DE0104BD9
:100460005B6803F4003323B1144B4343124C236005
:1004700003E0104B4343104C236003E00D4B0E4C44
:10048000236000BF00BF064B5B68C3F303130C4C33
:10049000E15C094B1B68CB40074C236010BD00009A
:1004A00000100240002002400000FFF8FFFFF6FEAF
:1004B00008ED00E000127A000000002000093D0075
:1004C000040000200948804709480047FEE7FEE78E
:1004D000FEE7FEE7FEE7FEE7FEE7FEE7FEE7FEE7F4
:1004E00004480549054A064B70470000C30300084D
:1004F00031010008F8010020F8070020F80300206F
:10050000F803002031490143314A1160704770B54A
:10051000002100230F22C47804B32D4C246804F476
:10052000E064C4F5E064210AC1F10403CA404478E0
:1005300004FA03F18478144021430901254C06781C
:10054000A155047804F01F050124AC4005786D1115
:10055000AD0005F1E025C5F8004109E0047804F09C
:100560001F050124AC401C4D0678761145F8264045
:1005700070BD1A4A0A400243154B1B1F1A60704790
:1005800039B1134A121D12680243114B1B1D1A6028
:1005900006E00F4A121D126882430D4B1B1D1A60A4
:1005A0007047042808D14FF0E021096941F00401A7
:1005B0004FF0E022116107E04FF0E021096921F0DE
:1005C00004014FF0E0221161704700000000FA05BD
:1005D0000CED00E000E400E080E100E080FFFF1FA0
:1005E00001684FF6FE721140016000210160416018
:1005F0008160C1608D49884208D18C4908394968B9
:1006000041F00F01894A083A51608AE08749143164
:10061000884208D185490839496841F0F001834A88
:10062000083A51607DE081492831884208D17F49EC
:100630000839496841F470617C4A083A516070E0B9
:100640007A493C31884208D178490839496841F4EF
:100650007041764A083A516063E0744950318842EB
:1006600008D172490839496841F470216F4A083A43
:10067000516056E06D496431884208D16B490839B0
:10068000496841F47001694A083A516049E0674994
:100690007831884208D165490839496841F070616C
:1006A000624A083A51603CE06149884206D1011F24
:1006B000096841F00F01021F116032E05C491431FA
:1006C000884208D15A49091F096841F0F001584A87
:1006D000121F116025E056492831884208D154493B
:1006E000091F096841F47061514A121F116018E036
:1006F0004F493C31884208D14D49091F096841F4EE
:1007000070414B4A121F11600BE049495031884239
:1007100007D14749091F096841F47021444A121F53
:100720001160704710B50022026847F6F0739A43D3
:100730000C6A8B6823430C6923434C6923438C69FF
:100740002343CC6923434C6A23438C6A23431A43D3
:100750000260CB6843600B6883604B68C36010BD68
:100760000021016041608160C1600161416181617E
:10077000C161016241628162704721B1026842F049
:100780000102026004E002684FF6FE731A40026044
:1007900070471AB103680B43036002E003688B43A0
:1007A00003607047416070470146486880B27047F7
:1007B00001460020002201F080531BB11C4B083B76
:1007C0001A6802E0194B083B1A6802EA01030BB1F0
:1007D000012000E00020704700F0805119B1144959
:1007E000091F086002E01149083948607047014656
:1007F0000020002201F080531BB10D4B083B1A680A
:1008000002E00A4B083B1A6802EA01030BB101201F
:1008100000E00020704700F0805119B10449091F21
:10082000086002E00149083948607047080002404A
:1008300008040240002044490860091D0860091DA1
:100840000860091D086041483F491431086070473D
:1008500000213D498279002A3AD00A46126803688D
:100860009A430B461A600A1D126803689A430B1DCF
:100870001A60027911440A6803681A430A60324A0E
:100880000832126803689A432F4B08331A601A1D06
:10089000126803689A432C4B0C331A604279102A71
:1008A0000ED11A1F126803681A43274B08331A60C7
:1008B0001A1D126803681A43234B0C331A600DE0AB
:1008C0002149427911440A6803681A430A6005E025
:1008D000027911440A6803689A430A60704700214C
:1008E000016001710C21417100218171704716492D
:1008F000103109680143144A1032116070470146F3
:100900000020114A143212680A400AB1012000E0A6
:10091000002070470C4914310860704701460020E0
:100920000022094B1B6803EA0102074B14331B68C2
:100930000B4013B10AB1012000E0002070470249CA
:10094000143108607047000000040140FFFF0F00F1
:1009500001460020FE4A106800F03800084310608D
:100960007047FB49096821F00801F94A11601146F6
:100970000968014311607047F549096821F01001C9
:10098000F34A116011460968014311607047F1484C
:10099000EF494860F04848607047EE48EC494860CD
:1009A000ED4848607047EA48006940F08000E84937
:1009B00008617047E648006940F08000E44908613A
:1009C00070470420E249C96801F0010109B1012022
:1009D0000EE0DF49C96801F0040109B1022007E017
:1009E000DB49C96801F0100109B1032000E00420CF
:1009F000704700B502460423FFF7E3FF034603E018
:100A0000FFF7DFFF0346521E012B01D1002AF7D169
:100A100002B90523184600BD30B5044604254FF43D
:100A20003020FFF7E6FF0546042D17D1C8480069BE
:100A300040F00200C649086108464461006940F080
:100A4000400008614FF43020FFF7D3FF0546C0484F
:100A5000006941F6FD710840BD490861284630BD76
:100A600010B504244FF43020FFF7C3FF0446042CD4
:100A700016D1B748006940F00400B549086108463E
:100A8000006940F0400008614FF43020FFF7B1FFEB
:100A90000446AF48006941F6FB710840AC49086163
:100AA000204610BD00B502460423FFF78AFF034627
:100AB00003E0FFF786FF0346521E012B01D1002AF7
:100AC000F7D102B90523184600BD10B504244FF430
:100AD0003020FFF7E7FF0446042C16D19C4800693C
:100AE00040F004009A4908610846006940F040005F
:100AF00008614FF43020FFF7D5FF044694480069A1
:100B000041F6FB71084092490861204610BD002063
:100B10008F49C96901F0020109B1012000E00020FC
:100B2000704730B5A5250424FFF7F1FF00B100257B
:100B30004FF43020FFF75DFF0446042C3AD185487E
:100B400083498860844888600846006940F0200036
:100B500008610846006940F0400008614FF4302009
:100B6000FFF747FF0446042C1BD17948006941F682
:100B7000DF710840764908610846006940F01000BE
:100B8000086176480580E002FFF733FF0446052C34
:100B900010D06F48006941F6EF7108406C49086158
:100BA00008E0052C06D06A48006941F6EF7108405C
:100BB00067490861204630BD78B506460C460425D5
:100BC00000200090E802FFF714FF0546042D24D111
:100BD0005F48006940F001005D4908613480E80227
:100BE000FFF707FF0546042D10D1B01C0090200C24
:100BF00000990880E802FFF7FCFE054654480069AA
:100C000041F6FE7108405249086106E0504800690B
:100C100041F6FE7108404E490861284678BD70B51E
:100C200004460D460426F002FFF7E3FE0646042EB6
:100C300011D14748006940F001004549086125800D
:100C4000F002FFF7D6FE06464148006941F6FE7104
:100C500008403F490861304670BD70B505460E46F4
:100C60000424E002FFF7C5FE0446042C17D13948DE
:100C700037498860384888600846006940F01000AD
:100C800008612E80E002FFF7B4FE0446052C06D072
:100C90002F48006941F6EF7108402D490861204650
:100CA00070BD2DE9F04304464FF6FF763746B04657
:100CB000B1460425E443E6B2C4F30727C4F307486A
:100CC0004FEA1469E802FFF794FE0546042D49D166
:100CD00020481F498860204888600846006940F025
:100CE00010000861FF2E06D01C4808300680E8027C
:100CF000FFF77FFE0546042D08D1FF2F06D01748C9
:100D00000A300780E802FFF774FE0546042D0AD179
:100D1000B8F1FF0F07D011480C30A0F80080E802AE
:100D2000FFF767FE0546042D0AD1B9F1FF0F07D082
:100D30000A480E30A0F80090E802FFF75AFE054678
:100D4000052D0FD00248006941F6EF71084007E019
:100D50000020024023016745AB89EFCD00F8FF1F5B
:100D6000664908612846BDE8F08330B5054604248D
:100D70004FF43020FFF73DFE0446042C41D160487B
:100D80005E4988605F4888600846006940F020003E
:100D900008610846006940F0400008614FF43020C7
:100DA000FFF727FE0446042C22D15448006941F67F
:100DB000DF710840514908610846006940F01000A1
:100DC00008611DB100205049088002E0A5204E496D
:100DD00008804FF43020FFF70CFE0446052C10D09D
:100DE0004648006941F6EF7108404449086108E04F
:100DF000052C06D04148006941F6DF7108403F49A3
:100E00000861204630BDF0B505460E46174604245D
:100E10003B483A4988603B488860E002FFF7E9FDBB
:100E20000446042C19D13548006940F010003349BC
:100E3000086147F0F800304328433349891C088093
:100E4000E002FFF7D6FD0446052C06D02B480069CA
:100E500041F6EF710840294908612046F0BD274856
:100E6000C069800870472548006A70470020234900
:100E7000096801F0200109B1012000E0002070475D
:100E800029B11E4A126902431C4B1A6104E01B4A35
:100E900012698243194B1A617047014600200129EB
:100EA00008D1164AD26902F001020AB1012008E015
:100EB000002006E0114AD2680A400AB1012000E091
:100EC000002070470D49C860704704200B49C9686D
:100ED00001F0010109B101200EE00849C96801F0E3
:100EE000040109B1022007E00449C96801F01001BA
:100EF00009B1032000E004207047000000200240F8
:100F000023016745AB89EFCD00F8FF1F10B50446FC
:100F1000CC48844208D10121042000F02DFB00219F
:100F2000042000F029FB46E0C748844208D1012193
:100F3000082000F021FB0021082000F01DFB3AE012
:100F4000C248844208D10121102000F015FB002185
:100F5000102000F011FB2EE0BD48844208D1012191
:100F6000202000F009FB0021202000F005FB22E0FA
:100F7000B848844208D10121402000F0FDFA002148
:100F8000402000F0F9FA16E0B348844208D101216C
:100F9000802000F0F1FA0021802000F0EDFA0AE054
:100FA000AE48844207D10121801500F0E5FA002106
:100FB000A01500F0E1FA10BD10B50121084600F0BF
:100FC000DBFA0021012000F0D7FA10BD2DE9F04135
:100FD000024600250026002000230024002791F867
:100FE00003C00CF00F0591F803C00CF0100CBCF11D
:100FF000000F03D091F802C04CEA050591F800C03B
:10100000BCF1000F31D0146800202BE04FF0010C30
:101010000CFA00F3B1F800C00CEA03069E4220D19E
:1010200083004FF00F0C0CFA03F7BC4305FA03FCE6
:101030004CEA040491F803C0BCF1280F06D14FF02C
:10104000010C0CFA00FCC2F814C00AE091F803C0CD
:10105000BCF1480F05D14FF0010C0CFA00FCC2F8AE
:1010600010C0401C0828D1D31460B1F800C0BCF1F6
:10107000FF0F34DD546800202EE000F1080C4FF023
:10108000010808FA0CF3B1F800C00CEA03069E420E
:1010900021D183004FF00F0C0CFA03F7BC4305FA83
:1010A00003FC4CEA040491F803C0BCF1280F05D1FD
:1010B00000F1080C08FA0CF8C2F8148091F803C08B
:1010C000BCF1480F07D100F1080C4FF0010808FAF5
:1010D0000CF8C2F81080401C0828CED35460BDE83C
:1010E000F0814FF6FF710180022181700421C170EF
:1010F00070470246002093680B400BB1012000E0CE
:10110000002070470146886880B270470246002080
:10111000D3680B400BB1012000E00020704701466E
:10112000C86880B2704701617047416170470AB179
:10113000016100E041617047C16070474FF4803247
:101140000A438261816182618269826970470246D5
:101150000020434B18684FF68073184040EA021095
:1011600008433F4B186070473E49C8617047F0B56F
:101170000A46002300240021002500F00046B6F1B5
:10118000004F02D1364EF16901E0354E7168C0F36F
:10119000034583B200F44016B6F5401F08D121F094
:1011A00070612F4E766826F070662D4F7E6012E0DB
:1011B00000F48016B6F5801F06D1032606FA05F462
:1011C000A14341F0706106E0460D360103FA06F6D0
:1011D000B14341F0706122B1460D360103FA06F6C3
:1011E000314300F00046B6F1004F02D11C4EF161D0
:1011F00001E01B4E7160F0BD30B500228B071C0F63
:101200000F2303FA04F2164B08338C1053F82430E2
:101210009343134C08348D1044F8253023468C102A
:1012200053F824308C07240F00FA04F423430C4CA9
:1012300008348D1044F8253030BD0A49DC3108608F
:101240007047000000080140000C01400010014000
:101250000014014000180140001C01400020014022
:101260000000014000002042DF48006840F001001B
:10127000DD49086008464068DC490840DA494860B2
:1012800008460068DA490840D749086008460068FF
:1012900020F4802008600846406820F4FE00486082
:1012A0004FF41F0088607047CF49096821F48031EE
:1012B000CD4A11601146096821F480211160B0F512
:1012C000803F03D0B0F5802F0ED106E0C6490968F3
:1012D00041F48031C44A116007E0C349096841F410
:1012E000A021C14A116000E000BF00BF704710B5E7
:1012F00001460022002300204A11012A02D1BA4CE3
:10130000236806E0022A02D1B74C236A01E0B64CFA
:10131000636A01F01F02012494401C400CB10120BB
:1013200000E0002010BD38B500200090002400250A
:1013300000BF3120FFF7DBFF05460098401C0090FE
:101340000098B0F5A06F01D0002DF2D03120FFF74A
:10135000CEFF08B1012400E00024204638BD01463C
:101360000020A14A106820F0F80040EAC100106097
:101370007047A04908607047024600209A4B5868A1
:1013800020F47C1042EA01031843974B58607047E1
:1013900098490866704701460020934A506820F03B
:1013A00003000843506070478F48406800F00C000D
:1013B0007047014600208C4A506820F0F000084336
:1013C0005060704701460020874A506820F4E06072
:1013D00008435060704701460020834A506820F45B
:1013E000605040EAC1005060704729B17E4A527A8D
:1013F00002437D4B5A7204E07B4A527A82437A4B15
:101400005A7270477B49D831086070470146002006
:10141000754A506820F440400843506070470021EE
:10142000714A20321170704A82F82010012802D0CF
:1014300004280AD104E001216B4A2032117005E032
:101440000521694A2032117000E000BF00BF7047DB
:101450006949086070476449096A0143624A116238
:101460007047654944390860704730B50021002253
:10147000002400235C4D6D6805F00C0121B10429A6
:1014800005D0082923D105E05C4D056022E05B4DC5
:1014900005601FE0544D6D6805F47012524D6D6883
:1014A00005F48034022505EB92421CB9544D554396
:1014B00005600BE04C4D6D6805F400351DB1504DD5
:1014C0005543056002E04D4D5543056002E04B4D2C
:1014D000056000BF00BF444D6D6805F0F0010909CB
:1014E000484D6B5C0568DD4045603F4D6D6805F417
:1014F000E061090A434D6B5C4568DD4085603A4D0B
:101500006D6805F46051C90A3E4D6B5C4568DD406D
:10151000C560354D6D6805F44041890B3A4D6B5CF3
:10152000C568B5FBF3F5056130BD29B12E4A526996
:1015300002432D4B5A6104E02B4A526982432A4BE5
:101540005A61704729B1284A92690243264B9A6131
:1015500004E0254A92698243234B9A61704729B17E
:10156000214AD2690243204BDA6104E01E4AD26963
:1015700082431D4BDA61704729B11B4AD26802438E
:10158000194BDA6004E0184AD2688243164BDA60DD
:10159000704729B1144A12690243134B1A6104E0DF
:1015A000114A12698243104B1A617047124940393F
:1015B000086070470F49C86470470B49C87170478D
:1015C0000948406A40F08070074948627047014608
:1015D0000020054A92680A400AB1012000E000207C
:1015E0007047014988727047001002400000FFF800
:1015F000FFFFF6FE000042428004424200127A00E1
:1016000000093D00140000202400002010B504460D
:10161000FE48844208D10121C014FFF7ADFF00212C
:10162000E014FFF7A9FFC4E0B4F1804F08D1012115
:101630000846FFF7AEFF00210120FFF7AAFFB8E040
:10164000F348844208D101210220FFF7A2FF0021C4
:101650000220FFF79EFFACE0EE48844208D1012152
:101660000420FFF796FF00210420FFF792FFA0E07F
:10167000E948844208D101210820FFF78AFF0021B0
:101680000820FFF786FF94E0E448844208D1012156
:101690001020FFF77EFF00211020FFF77AFF88E07F
:1016A000DF48844208D101212020FFF772FF00218A
:1016B0002020FFF76EFF7CE0DA48844208D1012148
:1016C0004014FFF759FF00216014FFF755FF70E049
:1016D000D548844209D10121C804FFF74DFF0021FC
:1016E0004FF40020FFF748FF63E0D048844209D15F
:1016F00001210805FFF740FF00214FF48010FFF79C
:101700003BFF56E0CA48844209D101214805FFF752
:1017100033FF00214FF40010FFF72EFF49E0C548CA
:10172000844208D101214020FFF733FF00214020EF
:10173000FFF72FFF3DE0C048844208D101218020FF
:10174000FFF727FF00218020FFF723FF31E0BB4890
:10175000844208D101218015FFF71BFF0021A0154D
:10176000FFF717FF25E0B648844209D1012108049C
:10177000FFF702FF00214FF48030FFF7FDFE18E075
:10178000B048844209D101214804FFF7F5FE002149
:101790004FF40030FFF7F0FE0BE0AB48844208D175
:1017A00001218804FFF7E8FE00214FF48020FFF7B5
:1017B000E3FE10BD00220288944B98420ED0994B54
:1017C00098420BD0B0F1804F08D0914B984205D091
:1017D000904B984202D0904B984204D14FF68F73B1
:1017E0001A404B881A438D4B984207D08C4B984235
:1017F00004D04FF6FF431A40CB881A4302808B88EF
:1018000083850B880385814B98420BD0854B98428A
:1018100008D08B4B984205D08A4B984202D08A4B15
:10182000984201D10B7A038601238382704770B5F9
:10183000002400220023058C4FF6FE7635400584F7
:10184000028C8388048B4FF68F752C40B51E2C407C
:101850000D882C43751E2A400D892A434D882A4342
:101860006A4DA8420BD06F4DA84208D0744DA842D3
:1018700005D0744DA84202D0734DA84213D14FF643
:10188000F7752A404D892A434FF6FB752A408D880B
:101890002A434FF6FF652B404FF6FF552B408D89AD
:1018A0002B43CD892B4383800483CD888586028496
:1018B00070BD70B5002400220023058C4FF6EF7632
:1018C00035400584028C8388048B48F6FF752C40D4
:1018D0004FF6FF452C400D884FF6FF7606EA0525AA
:1018E0002C434FF6DF752A400D8906EA05152A4379
:1018F0004D8806EA05152A43444DA84202D0494DB9
:10190000A8421DD14FF67F752A404D894FF6FF76CC
:1019100006EA05152A434FF6BF752A408D8806EA68
:1019200005152A434FF6FF352B404FF2FF752B402C
:101930008D8906EA85052B43CD8906EA85052B436B
:1019400083800483CD880587028470BD70B5002430
:1019500000220023058C4FF6FF6635400584028C7B
:101960008388848B4FF68F752C404FF6FC752C4086
:101970000D882C434FF6FF552A400D894FF6FF7610
:1019800006EA05252A434D8806EA05252A431F4D08
:10199000A84202D0234DA8421DD14FF2FF752A4024
:1019A0004D894FF6FF7606EA05252A434FF6FF35A7
:1019B0002A408D8806EA05252A434EF6FF752B40FE
:1019C0004DF6FF752B408D8906EA05152B43CD8911
:1019D00006EA05152B4383808483CD88858702849E
:1019E00070BD70B5002200230024058C4EF6FF76F2
:1019F00035400584038C8488828B48F6FF752A4025
:101A00004FF6FF452A400D8820E00000002C0140E1
:101A10000004004000080040000C0040001000409E
:101A20000014004000340140004C014000500140CF
:101A30000054014000180040001C004000200040FD
:101A40000040014000440140004801404FF6FF764D
:101A500006EA05252A434DF6FF752B400D8906EA57
:101A600005352B434D8806EA05352B43FA4DA84230
:101A700002D0FA4DA84208D14BF6FF752C408D8953
:101A80004FF6FF7606EA85152C4384808283CD8845
:101A9000A0F84050038470BD828B4FF2FF331A4090
:101AA0008283828B4FF6FF7303EA01231A438283FA
:101AB0007047F0B50C461546002200210026078C21
:101AC0004EF6FF7C07EA0C070784828B018C4FF6E9
:101AD000FF7707EA043640F6FF473A404FF6FF77B4
:101AE00007EA05273A434FF6FF7707EA03373A43F9
:101AF000D94FB8420ED0D94FB8420BD0B0F1804F79
:101B000008D0D74FB84205D0D64FB84202D0D64FF2
:101B1000B84206D14DF6FF77394046F48057394335
:101B200005E047F6FF57394044F480573943828334
:101B30000184F0BD828B4FF6F3731A408283828B4F
:101B40000A4382837047F0B50C46154600220021F7
:101B50000026078C4FF6FF6C07EA0C070784828B80
:101B6000018C4FF6FF7707EA04264FF60C773A40D0
:101B70004FF6FF7707EA03172F433A43B64FB842B1
:101B80000ED0B64FB8420BD0B0F1804F08D0B44F52
:101B9000B84205D0B34FB84202D0B34FB84206D1D5
:101BA0004FF6FF57394046F48077394305E04FF24E
:101BB000FF57394044F48077394382830184F0BD74
:101BC000028B4FF2FF331A400283028B4FF6FF73F2
:101BD00003EA01231A4302837047F0B50C46154609
:101BE000002200210026078C4FF6EF7C07EA0C0745
:101BF0000784028B018C4FF6FF7707EA041640F644
:101C0000FF473A404FF6FF7707EA03373A434FF66C
:101C1000FF7707EA05273A438F4FB8420ED08F4F20
:101C2000B8420BD0B0F1804F08D08D4FB84205D0EC
:101C30008C4FB84202D08C4FB84206D14FF6DF77B6
:101C4000394046F01007394305E04FF65F773940D9
:101C500044F01007394302830184F0BD028B4FF634
:101C6000F3731A400283028B0A4302837047F0B574
:101C70000C46154600220021068C4FF6FE773E40AA
:101C80000684028B018C4FF60C7632407E1C06EAED
:101C900003162E433243704EB0420ED06F4EB04208
:101CA0000BD0B0F1804F08D06D4EB04205D06D4ED4
:101CB000B04202D06C4EB04206D14FF6FD763140B4
:101CC00044F00106314305E04FF6F576314044F02B
:101CD0000106314302830184F0BD70B505460C4610
:101CE0005D4885420ED05D4885420BD0B5F1804FEE
:101CF00008D05B48854205D05A48854202D05A48F0
:101D0000854200D100E000BF208850B92389A28815
:101D100061882846FFF7ABFFE1882846FFF79EFF62
:101D200025E0208804280AD12389A28861882846D2
:101D3000FFF753FFE1882846FFF742FF17E02088AE
:101D400008280AD12389A28861882846FFF7FBFE6C
:101D5000E1882846FFF7EEFE09E02389A288618822
:101D60002846FFF7A6FEE1882846FFF795FE70BDDE
:101D70002DE9F04105460C4600260127608808B988
:101D8000022600E00026A088012801D1022700E0F9
:101D900001272088A0B92389A28861882846FFF7F7
:101DA00066FFE1882846FFF759FF23893A46314606
:101DB0002846FFF712FFE1882846FFF701FF13E0EE
:101DC0002389A28861882846FFF707FFE188284613
:101DD000FFF7F6FE23893A4631462846FFF747FFCC
:101DE000E1882846FFF73AFFBDE8F0810A884B8872
:101DF0001A438B881A43CB881A430B891A434B89A1
:101E00001A438B891A43A0F8442070474FF6FF719C
:101E1000818000210180C1804180017270470021D2
:101E2000018041808180C180018141818181C181A6
:101E30007047002101804180012181800021C18003
:101E4000018170470021018041808180C180018132
:101E50004181818170470000002C01400034014025
:101E60000004004000080040000C004021B102883E
:101E700042F00102028004E002884FF6FE731A402D
:101E80000280704731B1B0F8442042F40042A0F81B
:101E9000442005E0B0F84420C2F30E02A0F844202C
:101EA00070471AB183890B43838102E083898B4396
:101EB000838170478182704741EA0203A0F848306D
:101EC00070471AB183890B43838102E083898B4376
:101ED0008381704701894FF6F87211400181704784
:101EE0000A46002101894FF68F7319401143018181
:101EF000704730B504460D4629462046FFF7F0FFEF
:101F0000208940F00700208130BD2DE9F0410446D2
:101F10000D4616461F46602D06D13B46012231462E
:101F20002046FFF75AFE05E03B4601223146204697
:101F3000FFF79DFE29462046FFF7D2FF208940F09B
:101F400007002081BDE8F08130B50C4600210189F1
:101F5000C9B24FF6FF7505EA03251543254329430A
:101F6000018130BD2DE9F04105460E4617469846E1
:101F7000002443463A4631462846FFF7E5FF2C89C0
:101F80004FF6F870044044F007044FF68F70044099
:101F900044F070042C81BDE8F081F0B504460D4694
:101FA00016461F463B46324629462046FFF7CCFFE1
:101FB000208940F480402081F0BD018582827047F5
:101FC0000A46002101884FF68F73194011430180A2
:101FD0007047F0B50C4615461E460021002200232E
:101FE0000189028B038C4FF6F877394021434FF675
:101FF000FC473A4040F201173A434FF6DD773B4049
:102000004FF6FF7707EA06172F433B430181028310
:102010000384F0BD0A460021018B4FF68F731940EF
:102020001143018370470A460021018B48F6FF7374
:1020300019404FF6FF7303EA0223194301837047E7
:102040000A460021818B4FF68F731940114381831B
:1020500070470A460021818B48F6FF7319404FF6FE
:10206000FF7303EA022319438183704721B1028879
:1020700042F08002028004E002884FF67F731A402B
:102080000280704721B1828842F00402828004E01D
:1020900082884FF6FB731A408280704721B1828894
:1020A00042F00802828004E082884FF6F7731A40FB
:1020B0008280704721B1828842F00102828004E070
:1020C00082884FF6FE731A40828070470A460021CC
:1020D000018B4FF6F77319401143018370470A468D
:1020E0000021018B4FF2FF7319404FF6FF7303EA93
:1020F00002231943018370470A460021818B4FF662
:10210000F77319401143818370470A460021818B80
:102110004FF2FF7319404FF6FF7303EA022319438E
:10212000818370470A460021018B4FF6FB731940EB
:102130001143018370470A460021018B4FF6FF339C
:1021400019404FF6FF7303EA0223194301837047D6
:102150000A460021818B4FF6FB731940114381839E
:1021600070470A460021818B4FF6FF3319404FF626
:10217000FF7303EA02231943818370470A46002153
:10218000018B4FF67F7319401143018370470A4654
:102190000021018BC1F30E014FF6FF7303EA022306
:1021A0001943018370470A460021818B4FF67F73E4
:1021B00019401143818370470A460021818BC1F386
:1021C0000E014FF6FF7303EA022319438183704720
:1021D0000A460021018C4FF6FD731940114301841A
:1021E00070470A460021018C4FF6F77319401143DE
:1021F000018470470A460021018C4FF6DF731940B5
:102200004FF6FF7303EA02131943018470470A462D
:102210000021018C4FF67F7319404FF6FF7303EADC
:1022200002131943018470470A460021018C4FF6BE
:10223000FF5319404FF6FF7303EA02231943018449
:1022400070470A460021018C4FF2FF7319404FF688
:10225000FF7303EA02231943018470470A460021F1
:10226000018C4DF6FF7319404FF6FF7303EA0233FA
:1022700019430184704730B5002301248C40A3B278
:10228000048C9C430484048C02FA01F5ADB22C4307
:10229000048430BD30B5002304248C40A3B2048CE8
:1022A0009C430484048C02FA01F5ADB22C430484EF
:1022B00030BD70B5034600200024184618300125B3
:1022C0008D40ACB21D8CA5431D8409B1082909D1EC
:1022D00000EB6100056825F0700505600568154391
:1022E00005600EE00D1FC5F34E052844056825F472
:1022F000E045056005684FF6FF7606EA022635439D
:10230000056070BD21B1028842F00202028004E043
:1023100002884FF6FD731A400280704721B102888F
:1023200042F00402028004E002884FF6FB731A4078
:102330000280704721B1828842F08002828004E0EE
:1023400082884FF67F731A408280704702884FF66A
:10235000F7731A40028002880A430280704782881D
:102360004FF68F731A40828082880A4382807047BA
:1023700002894FF6F8731A40028102890A430281EA
:10238000704702894FF67F731A40028102890A431F
:1023900002817047818470478185704781867047CC
:1023A0000187704781877047A0F840107047028806
:1023B0004FF6FF431A40028002880A4302807047AA
:1023C0000146888E70470146088F70470146888F06
:1023D00070470146B1F8400070470146888C70474D
:1023E0000146088D704702460020138A0B400BB14E
:1023F000012000E000207047CA430282704730B5D8
:102400000246002000230024158A05EA010395896D
:1024100005EA010413B10CB1012000E0002030BD39
:10242000CA4302827047000010B50446FB4884424C
:1024300009D101218803FFF79FF800214FF4804064
:10244000FFF79AF832E0F648844209D101214804A6
:10245000FFF79FF800214FF40030FFF79AF825E0CE
:10246000F048844209D101218804FFF792F8002145
:102470004FF48020FFF78DF818E0EB48844209D133
:102480000121C804FFF785F800214FF40020FFF771
:1024900080F80BE0E548844208D101210805FFF7E8
:1024A00078F800214FF48010FFF773F810BD2DE984
:1024B000F04786B005460E460024A24600BFA1465E
:1024C0000027B08900B100BF2F462C8A4CF6FF7060
:1024D0000440F08804432C82AC894EF6F31004408B
:1024E000B08831890843718908430443AC81AC8AC0
:1024F0004FF6FF400440B0890443AC8201A8FEF7C8
:10250000B4FFC648874202D1DDF810A001E0DDF833
:102510000CA0A88900F4004040B10AEBCA0000EB0F
:102520000A1031684900B0FBF1F807E00AEBCA0075
:1025300000EB0A1031688900B0FBF1F86420B8FBA9
:10254000F0F004012009642101FB1089A88900F43E
:10255000004040B1322000EBC900B0FBF1F000F0C8
:102560000700044308E0322000EB09106421B0FBAF
:10257000F1F000F00F0004432C8106B0BDE8F087B5
:102580004FF41651016000218180C18001810C212E
:10259000418100218181704710B502460020108AD8
:1025A0004FF2FF0318400B884C8823438C88234349
:1025B000CC8823431843108210BD00210180418044
:1025C0008180C180704721B1828942F400528281AA
:1025D00004E082894DF6FF731A4082817047F0B59E
:1025E0000346002400260025002040F66A17B94261
:1025F00000D100BF1846C1F3421401F01F060127A5
:1026000007FA06F5012C01D10C3004E0022C01D1AF
:10261000103000E014301AB107682F43076002E061
:102620000768AF430760F0BD1AB1838A0B4383820A
:1026300002E0838A8B4383827047028A4FF6F073ED
:102640001A400282028A0A430282704782894FF24C
:10265000FF731A40828182890A438281704721B1C7
:10266000828942F00202828104E082894FF6FD7382
:102670001A4082817047028A4FF6DF731A40028245
:10268000028A0A430282704721B1028A42F48042E0
:10269000028204E0028A4BF6FF731A4002827047FE
:1026A000C1F308028280704701468888C0F30800A1
:1026B0007047818941F0010181817047028BD2B25C
:1026C0000283028B42EA012202837047028B02F4EA
:1026D0007F420283028B0A430283704721B1828AC0
:1026E00042F02002828204E0828A4FF6DF731A40B1
:1026F0008282704721B1828A42F01002828204E015
:10270000828A4FF6EF731A408282704721B1828A23
:1027100042F00802828204E0828A4FF6F7731A4080
:102720008282704721B1828942F40042828103E0B3
:102730008289C2F30E028281704721B1828A42F4FB
:102740000062828204E0828A4FF2FF731A40828222
:102750007047828A4FF6FB731A408282828A0A434C
:102760008282704721B1828A42F00202828204E0B2
:10277000828A4FF6FD731A4082827047024600201B
:10278000B1F5007F00D100BF13880B400BB10120D1
:1027900000E00020704701F40072B2F5007F00D124
:1027A00000BFCA430280704770B502460024002370
:1027B0000025002040F66A16B14200D100BFC1F3E7
:1027C000421501F01F03012606FA03F3012D02D181
:1027D0009689334006E0022D02D1168A334001E08B
:1027E000968A33400C12012606FA04F41688344007
:1027F00013B10CB1012000E0002070BD10B5002223
:10280000002340F66A14A14200D100BF0A1201243D
:102810009440A3B2DC43048010BD000000380140A6
:102820000044004000480040004C00400050004080
:1028300010B56FF00400FDF7B4FE2E4800682E4975
:10284000B0FBF1F02D4908700846007800EB40011C
:10285000C1EBC0104FF6FF7101EAC00028490880A3
:1028600010BD0146254A12784A434FF0E0235A61D1
:1028700000229A611A46126942F001021A6100BFF1
:102880004FF0E022106900F001021AB100F480322A
:10289000002AF5D04FF0E022126922F001024FF039
:1028A000E0231A6100229A6170470146144A128897
:1028B0004A434FF0E0235A6100229A611A46126996
:1028C00042F001021A6100BF4FF0E022106900F0EF
:1028D00001021AB100F48032002AF5D04FF0E02254
:1028E000126922F001024FF0E0231A6100229A617E
:1028F000704700000000002000127A00280000202D
:102900002A000020014600BF704700BF494A1288D4
:1029100002F04002002AF9D0C2B2464B1B1D1A80B9
:10292000704710B586B00446012144F20400FEF75A
:1029300009FE4FF40070ADF8140003208DF8160066
:1029400018208DF8170005A93B48FEF73FFB4FF410
:102950008060ADF8140004208DF8170005A93648F2
:10296000FEF734FB25208DF8000003208DF80100D0
:102970008DF8020001208DF803006846FDF7C7FDC1
:1029800001940020ADF80800ADF80A00ADF80C0085
:10299000ADF810000C20ADF80E0001A92548FFF796
:1029A00086FD012240F225512248FFF718FE012141
:1029B0002048FFF708FE06B010BD10B540F22551C3
:1029C0001C48FFF7F1FE10B31A48FFF76DFEC4B2C2
:1029D0001A48008800F40040C8B91848008800F47C
:1029E000804060B10A2C03D000201449088020E008
:1029F0001248008840F400401049088019E00D2C6E
:102A000006D10E48008840F480400C49088010E050
:102A10000A480088C0F30D0009490C540748008893
:102A2000401C0649088008460088C72801DD0020B0
:102A3000088010BD0038014000080140300000202F
:102A4000BC00002000B591B0012144F20500FEF762
:102A500079FD01210846FEF768FD4FF40070ADF8DE
:102A6000400003208DF8420018208DF8430010A983
:102A70004648FEF7ABFA4FF48060ADF840004820BE
:102A80008DF8430010A94148FEF7A0FA0F208DF8F9
:102A9000000002208DF8010000208DF802000120C6
:102AA0008DF803006846FDF732FD3948FDF798FDC3
:102AB0003848059038480690002007900A20089072
:102AC0000020099080200A9000200B900C9020207C
:102AD0000D9000020E9000200F9005A92C48FDF7E4
:102AE00021FE4FF4E13001900020ADF80800ADF870
:102AF0000A00ADF80C00ADF810000C20ADF80E0087
:102B000001A92448001FFFF7D2FC012240212148DF
:102B1000001FFFF789FD012202211D48FDF739FE44
:102B200001211B48FDF729FE01211A48001FFFF76C
:102B30004AFD11B000BD10B5044621461548001FDE
:102B4000FFF7AEFD00BF80211248001FFFF716FE01
:102B50000028F8D010BD70B505460E46002403E0ED
:102B6000285DFFF7E8FF641CB442F9DB70BD10B5C7
:102B70004FF48030FDF73BFE38B14FF48030FDF765
:102B80004AFE08210548FFF7E6FF10BD0008014096
:102B90005800024004380140840100203200002027
:102BA00000B591B001218804FEF7D9FC012109206C
:102BB000FEF7C8FC01210846FEF7B7FC4FF4806021
:102BC000ADF8400003208DF8420018208DF8430036
:102BD00010A94748FEF7FAF94FF40060ADF840003D
:102BE00048208DF8430010A94148FEF7EFF90D2069
:102BF0008DF8000001208DF8010000208DF8020002
:102C000001208DF803006846FDF781FC3948FDF787
:102C1000E7FC3948059039480690002007900A20C3
:102C200008900020099080200A9000200B900C90C2
:102C300020200D904FF440500E9000200F9005A9D9
:102C40002C48FDF76FFD4FF4E13001900020ADF806
:102C50000800ADF80A00ADF80C00ADF810000C202B
:102C6000ADF80E0001A92448001FFFF720FC012247
:102C700040212148001FFFF7D7FC012202211D48F7
:102C8000FDF787FD01211B48FDF777FD01211A485B
:102C9000001FFFF798FC11B000BD10B50446214697
:102CA0001548001FFFF7FCFC00BF80211248001FE1
:102CB000FFF764FD0028F8D010BD70B505460E463C
:102CC000002403E0285DFFF7E8FF641CB442F9DB51
:102CD00070BD10B54FF48070FDF789FD38B14FF429
:102CE0008070FDF798FD08210548FFF7E6FF10BD4D
:102CF000000C014030000240044800408E010020DA
:102D00003A00002008B501210420FEF71BFC032037
:102D1000ADF8000018208DF8030003208DF80200A4
:102D20006946A748FEF752F90321A548FEF7FDF9C9
:102D300008BD00B589B001210846FEF710FC6320EC
:102D4000ADF81C004720ADF818000020ADF81E00BB
:102D5000ADF81A0006A94FF08040FEF72BFD602069
:102D6000ADF808000020ADF810000120ADF80A0011
:102D70000020ADF80E0002A94FF08040FEF757FD8D
:102D80000821C806FFF7A2F90120ADF80A000020CB
:102D9000ADF80E0002A94FF08040FEF78AFD082131
:102DA000C806FFF79CF91C208DF8040002208DF85E
:102DB000050001208DF806008DF8070001A8FDF739
:102DC000A6FB01218807FFF751F901218807FFF7CA
:102DD00013FB012211469007FFF763F801218807D2
:102DE000FFF744F809B000BD10B500207549088010
:102DF000012174482438FFF739F80120724908602E
:102E000000BF714800680128FBD000216D482438BC
:102E1000FFF72CF810BD70B504460D4616466B48FA
:102E20000078A04225D154B9012069490860694859
:102E30000660A9B24FF08040FFF7B0FA4DE0012CD8
:102E400009D101206249086062480660A9B2A00762
:102E5000FFF7A6FA41E000205D49086000214FF02D
:102E60008040FFF79BFA00214FF08040FFF798FA6F
:102E700033E0564804708CB9012055490860554824
:102E8000066000214FF08040FFF78AFAFFF7ACFFA1
:102E9000A9B24FF08040FFF781FA1EE0012C0FD15C
:102EA00001204B4908604B4806600021A007FFF74E
:102EB00075FAFFF799FFA9B2A007FFF771FA0CE0C6
:102EC00000204349086000214FF08040FFF766FA78
:102ED00000214FF08040FFF763FA70BD10B501216B
:102EE0008807FFF78CFAA8B139480068012811D18A
:102EF00038480068002808DC002211460220FFF74D
:102F00008AFF00203249086004E032480068401E11
:102F10003049086001218807FFF782FA10BD1FB50C
:102F200001212020FEF71BFB6320ADF8080047209D
:102F3000ADF804000020ADF80A00ADF8060001A9C4
:102F400020482438FEF736FC01211E482438FFF7BC
:102F500067FA012211461B482438FEF7A2FF3720EA
:102F60008DF8000001208DF8010002208DF802008C
:102F700001208DF803006846FDF7C9FA00211148C9
:102F80002438FEF773FF1FBD10B501210D4824380A
:102F9000FFF735FA38B101210A482438FFF740FA23
:102FA00000200949086010BD10B5FFF7ABFEFFF720
:102FB000C0FEFFF7B4FF00200549086010BD000007
:102FC0000008014024140040480000204400002074
:102FD0004C0000205000002000B589B04FF4006084
:102FE000E149088001210420FEF7B9FA01210820F7
:102FF000FEF7A8FAC020ADF8080003208DF80A00FB
:1030000004208DF80B0002A9D848FDF7DFFFD8484F
:10301000FEF7FCFA06A8FEF7F9FE0020ADF818004E
:10302000D1480088401E80B2ADF81C000020ADF8E9
:103030001E00ADF81A0006A9CD48FEF7BBFB002321
:103040001A460321CA48FEF7C4FF03A8FEF7F1FEA3
:103050000020ADF8140003A9C548FEF73EFE01218B
:10306000C348FFF7C9F901221146C148FEF719FF0D
:103070000020BF49243108800121BD48FEF7F6FE3B
:103080001E208DF8040002208DF8050001208DF827
:1030900006008DF8070001A8FDF739FA09B000BD58
:1030A00008B501210420FEF74DFA1020ADF800000C
:1030B0008DF8030003208DF802006946AD48FDF746
:1030C00085FF1021AB48FEF72EF808BD0146002908
:1030D00001DA484270470846FCE710B50121A448D0
:1030E000FFF79EF9A248008800F0100030B9A2480E
:1030F0000088401C00B2A049088005E09E48008876
:10310000401E00B29C49088010BD9C490968898C0A
:10311000994AB2F90020944B1B8802FB03107047B8
:103120002DE9F04786B0FFF7F0FFC5170446944835
:103130000068B4EB0008B8F5FA6F64DA18F5FA6FB6
:1031400061DD8F4830C00838D0E900108C4BD3E9DE
:103150000223891A60EB0300894AC2E90410404641
:10316000FFF7B4FF404527D18549886A00F0A0FDEC
:1031700081468A464046FFF7A9FF064600F098FDC3
:10318000CDE900017E48D0E906633246009800F0A0
:10319000E3FD4A465346CDE9020100F0DDFDCDE9ED
:1031A00004017748D0E90C633246049800F0CCFC67
:1031B000734AC2E90C0126E07149886A00F078FD83
:1031C00081468A464046FFF781FF064600F070FDC3
:1031D000CDE900016A48D0E908633246009800F062
:1031E000BBFD4A465346CDE9020100F0B5FDCDE9ED
:1031F00004016348D0E90C633246049800F0E0FE15
:103200005F4AC2E90C015E49D1E90C6100225D4BC5
:10321000304600F09FFE0AD85949D1E90C610022DE
:10322000584B304600F0D8FE554AC2E90C015449CB
:10323000D1E90C6100221346304600F051FD0AD25C
:103240004F4800224F4BD0E90C61304600F07CFC27
:103250004B4AC2E90C0106B0BDE8F0870021484A9C
:10326000116351631046D0E90010C2E90210002139
:103270001161516170471FB501211020FEF76FF9F0
:1032800040F2E730ADF808004720ADF80400002018
:10329000ADF80A00ADF8060001A93B48FEF78AFA2E
:1032A00001213948FFF7BCF8012211463648FEF7E4
:1032B000F8FD36208DF8000002208DF801008DF811
:1032C000020001208DF803006846FDF720F9012176
:1032D0002D48FEF7CBFD1FBD10B501212A48FFF791
:1032E0008EF828B101212848FFF79AF8FFF718FF58
:1032F00010BD10B5FDF7B8FF4FF48030FDF7D4FFD7
:10330000FEF711F80446012C24D11020FDF734FB00
:103310000220FDF71DFB0020FEF74BF80020FEF712
:103320005AF80020FEF74EF84FF4E0112004FEF7A3
:1033300023F80120FEF72CF800BF3920FDF7D7FF56
:103340000028FAD00220FEF726F800BFFEF72CF87E
:103350000828FBD110BD10B5FFF73EFEFFF77EFF3A
:10336000FFF789FF10BD000060000020000C014045
:103370000008004000080140580000205C000020C8
:10338000680000200088B3400010004008B501210B
:103390004420FEF7D7F81C20ADF8000048208DF837
:1033A000030003208DF8020069465448FDF70EFE25
:1033B00008BD0EB501210846FEF7C4F8FFF7E6FF89
:1033C00002210420FDF718FF03210420FDF714FF5C
:1033D00004210846FDF710FF08208DF808000220A0
:1033E0008DF809008DF80A0001208DF80B0002A865
:1033F000FDF78DF809208DF8080002208DF80900EE
:1034000001208DF80A008DF80B0002A8FDF77FF867
:103410000A208DF8080002208DF809008DF80A00B6
:1034200001208DF80B0002A8FDF771F81C20009018
:1034300000208DF804000C208DF8050001208DF887
:1034400006006846FDF704FA0EBD10B50820FDF72A
:1034500065FA012812D10A20FFF727FA28480068E8
:1034600060B900212748FEF701FD002026490860C9
:103470002649086004212648FDF755FE0820FDF77F
:103480005EFA10BD10B50420FDF748FA012810D1EE
:103490001B48001F006860B900211E48FEF7E6FCCB
:1034A00000201D4908601D49086004211848FDF7E7
:1034B0003CFE0420FDF743FA10BD10B51020FDF7C7
:1034C0002DFA012816D11648006898B90A20FFF78E
:1034D000ECF90B48001D006860B912480068401CF8
:1034E000032190FBF1F201FB12000E49086001205C
:1034F0000B4908601020FDF722FA10BD00180140AA
:103500000C01234200340140AC000020B800002030
:1035100000100140000C0040A8000020B400002072
:10352000A0000020A400002008B501211020FEF713
:1035300009F80F20ADF8000010208DF803000320DB
:103540008DF8020069460448FDF740FD0F2102484E
:10355000FDF7E9FD08BD00000010014010B588B07E
:10356000044644F62060ADF818004820ADF8140079
:103570000020ADF81A00ADF8160005A92748FEF79F
:1035800019F96020ADF804000120ADF8060040F202
:10359000DC50ADF80A000020ADF80C0001A91F486E
:1035A000FEF745F908211D48FEF790FD01211B4853
:1035B000FEF75CFD01211948FEF758FC08B010BD6C
:1035C00008B501210220FDF7CAFF01210420FDF703
:1035D000B9FF4020ADF8000018208DF8030003204B
:1035E0008DF8020069460E48FDF7F0FC08BD10B5E5
:1035F0000446FFF7E5FF2046FFF7B0FF10BD70B5AA
:1036000004464FF4966060435A2190FBF1F000F5B8
:103610006175A9B20148FEF7C1FE70BD000400400B
:103620000008014000B589B001210820FDF797FF8F
:1036300001210420FDF786FF0420ADF820001820AA
:103640008DF8230003208DF8220008A9FA48FDF721
:10365000BDFC32208DF8000002208DF801008DF8AD
:10366000020001208DF803006846FCF750FF63203C
:10367000ADF818004720ADF814000020ADF81A008E
:10368000ADF8160005A9ED48FEF794F86020ADF8F6
:1036900004000120ADF806003120ADF80A0000203A
:1036A000ADF80C0001A9E548FEF750F90821E34800
:1036B000FEF722FD0121E148FEF7D8FC0122114668
:1036C000DE48FEF7EEFB0121DC48FEF7CFFB09B038
:1036D00000BD00B589B001214803FDF733FF01218A
:1036E0001020FDF72FFF4020ADF8200018208DF8A6
:1036F000230003208DF8220008A9D148FDF766FCBD
:103700006320ADF818004720ADF814000020ADF894
:103710001A00ADF816008DF81C0005A9C948FEF77F
:1037200049F80121C748FEF7A1FC6020ADF804006C
:103730000120ADF806003120ADF80A000020ADF8F8
:103740000C000420ADF808000020ADF80E004FF486
:103750008070ADF810000020ADF8120001A9B94842
:10376000FEF765F80821B748FEF7B0FC0121B5481F
:10377000FEF742FE01221146B248FEF792FB2C20D2
:103780008DF8000001208DF801008DF802008DF801
:1037900003006846FCF7BBFE0121AA48FEF766FB62
:1037A0000121A848FEF76EFB09B000BD00B589B045
:1037B0000121C802FDF7C6FE01210420FDF7C2FE6B
:1037C0004FF48070ADF8200018208DF823000320FE
:1037D0008DF8220008A99848FDF7F8FB4F20ADF8B6
:1037E00018004720ADF814000020ADF81A00ADF81D
:1037F00016008DF81C0005A99348FDF7DBFF012199
:103800009148FEF733FC6020ADF804000120ADF8CC
:1038100006002720ADF80A000020ADF80C000420B7
:10382000ADF808000020ADF80E004FF48070ADF840
:1038300010000020ADF8120001A98348FDF7F7FF42
:1038400008218148FEF742FC01217F48FEF7D4FDA4
:10385000012211467C48FEF724FB19208DF8000058
:1038600001208DF8010003208DF8020001208DF861
:1038700003006846FCF74BFE01217348FEF7F6FA99
:1038800001217148FEF7FEFA09B000BD08B501211B
:103890001420FDF757FE8820ADF8000010208DF8A9
:1038A000030003208DF8020069466348FDF78EFB94
:1038B00088216148FDF739FC8020ADF80000102018
:1038C0008DF8030003208DF8020069465C48FDF77F
:1038D0007DFB80215A48FDF728FC08BD10B5044641
:1038E00000205A4908705A480460002C0CDA6042E3
:1038F0005749086057480068204456490860082125
:103900004D48FDF712FC0CE0002C0ADD5048046025
:103910005048006820444F49086008214648FDF798
:1039200002FC01214548FEF7A1FA10BD10B504467E
:1039300000204949087049480460002C0CDA6042B4
:10394000464908604648006820444549086080218F
:103950003B48FDF7EAFB0CE0002C0ADD3F48046021
:103960003F48006820443E49086080213448FDF704
:10397000DAFB01213348FEF779FA10BD10B5044691
:10398000002038490870002C08DA80212A48FDF709
:10399000CCFB01212C48FEF769FA0EE0002C08DD73
:1039A00080212548FDF7BFFB01212748FEF75EFA7D
:1039B00003E000212448FEF759FA10BD10B501209C
:1039C0002249087008211C48FDF7AFFBFFF72AFECB
:1039D00010BD10B501202049087080211848FDF75E
:1039E000A4FBFFF776FE10BD10B501201D4908703D
:1039F00080211148FDF799FBFFF7D8FE10BD10B5E7
:103A000001210E48FEF7FBFC80B11048007868B930
:103A10000F480068002804DC00210848FEF726FA59
:103A200004E00B480068401E094908600121034872
:103A3000FEF7F6FC10BD000000080140000C00403D
:103A40000010014000340140002C0140B000002073
:103A5000A8000020B4000020B1000020AC0000202D
:103A6000B8000020B200002010B501211648FEF772
:103A7000C6FC80B11548007868B915480068002870
:103A800004DC00211048FEF7F1F904E0104800685A
:103A9000401E0F49086001210B48FEF7C1FC10BD14
:103AA00010B501210B48FEF7AAFC01210948FEF7D9
:103AB000B7FC10BD10B5FFF7E9FEFFF77FFFFFF77A
:103AC00088FFFFF791FF10BD00340140B1000020D6
:103AD000AC000020002C01407047704770477047D1
:103AE0007047754600F02CF8AE460500694653460F
:103AF00020F00700854618B020B5FCF7F1FCBDE8C2
:103B000020404FF000064FF000074FF000084FF044
:103B1000000B21F00701AC46ACE8C009ACE8C009D5
:103B2000ACE8C009ACE8C0098D46704710B5044642
:103B3000AFF300802046BDE81040FCF740BB00001A
:103B4000004870479801002010B591EA030F48BF64
:103B500083F0004300F14882841A71EB030C05D214
:103B6000121943EB0C03001B61EB0C01DFF824E19D
:103B70004FEA1154A4EB135C1EEA430F18BF9EEAF0
:103B8000445F73D023EA0E03DCF1200E21EA0451D6
:103B900043F4801332D322FA0CFE10EB0E0023FA0A
:103BA0000CFE41EB0E01CCF1200E03FA0EFE10EBE1
:103BB0000E0051F10001B1F5801FCCF1200E32D280
:103BC00001EB045112FA0EF2BDE8104058BF7047E5
:103BD000401C38BF5FEA420218BF7047002814BF7C
:103BE00020F0010041F100014FEA410313F5001FED
:103BF00038BF7047A1F1C04100F0A6B9012A43EBDC
:103C00000302ACF1200CDCF11F0E32BF4FF0000EAE
:103C100023FA0CF310EB030041EB0451B4EB115FFA
:103C2000D0D0A1EB045101F5801149085FEA3000C2
:103C300001EB04510ED350F1000038BF12FA0EFE12
:103C400008D1BDE81040C9E7401C38BF5FEA420216
:103C5000CAD1C3E7BDE810404FEA410313F5001F86
:103C600038BF7047A1F1C04100F06EB99EEA445FD1
:103C700008D011EA5E0FBDE8104004BF01F000411A
:103C800000207047BDE8104070B500F00FF900BF8C
:103C900064FBBE3E0000E0FF491058BFC1F1404147
:103CA0005B1058BFC3F140438B42EFF30080704775
:103CB00010F0004248BF4042B0FA80F310FA03F11E
:103CC0000AD0C3F11D0303F580634FEA415002EBB4
:103CD000035202EBD12170474FF000007047000003
:103CE00051EA030C17D41CF5801F58BFBCF5801F88
:103CF00000F10680994218BF704708BF9042704794
:103D000007D711F5801F58BF13F5801F19D49942AA
:103D10007047894270471CF5801F08D5BCF5801F8D
:103D2000F7D58B4218BF704708BF824270474FF4E7
:103D3000001C1CEB410F38BF1CEB430F01D28B4220
:103D4000704770B500F0B2F8922449004FF000516E
:103D50004FF08053FFF7A0BFDFF848C170B51CEAF1
:103D6000111E1EBF1CEA13159EEA0C0F95EA0C0FDC
:103D700000F06F8081EA030423EA4C134EEAD47EFC
:103D800021EA4C1141F4801143F48013AE44A1FBAD
:103D9000024CA0FB0365AEF17F7E361955EB0C0596
:103DA000A1FB034C4CF10003A0FB021C16EB0C061C
:103DB000654153F10003094218BF46F0010613F4B0
:103DC000007F0BD14FEA03314FEA0530340341EA5B
:103DD000155140EA16506FF003020AE04FEAC32182
:103DE0004FEAC520F40241EA555140EA56506FF0BF
:103DF000020202EB2E4201EB025585EACE710AD097
:103E00005FEA440C18BF24F0004450F1000041F177
:103E1000000120EAD47040F2FE7C624500D270BD01
:103E2000A84214BF4FF080444FF04044002E08BF1A
:103E30000024BEF1806FA8BFA1F1C041BDE8704071
:103E400080F282804FF0000001F1C04101F000419A
:103E500070479EEA0C0F0CEA131518BF95EA0C0F79
:103E600006D04FF0000081EA030E0EF0004170BD55
:103E700000F01CF88900013E00F007B800F009B816
:103E80004FEA430C5FEA5C5C08D081EA030100F072
:103E90005BB84FEA410C5FEA5C5CF6D14FF0000082
:103EA000014970470000FF070000F87F0EF1020E85
:103EB0002EF0030E5EF8046B364205D4012A43EB64
:103EC000030515F5001F12D8012841EB010C1CF564
:103ED000001F0CD80ED14FEAD17C15F5001F0CEB5A
:103EE0004C0C0CF1020C08BF4CEBD37C04E04FF0FF
:103EF000080C01E04FEAD37C0CEB4C0526FA05F6E2
:103F000006F00706B6F1040C06D20EEB860CBDE8EF
:103F100070404CF0010C6047DFE80CF0090B020226
:103F20004FF000414FF00000A1F5002170BD19468F
:103F30001046012851EB010418BFD4F5001484BFCA
:103F4000002001F0004170BD0808A0F500114FEA03
:103F50003101704753EA010C17D41CF5801F58BF7C
:103F6000BCF5801F00F106808B4218BF704708BF68
:103F70008242704707D713F5801F58BF11F5801F85
:103F800019D48B4270479B4270471CF5801F08D59F
:103F9000BCF5801FF7D5994218BF704708BF904203
:103FA00070474FF4001C1CEB430F38BF1CEB410F54
:103FB00001D2994270470FB40CBC03BCFFF7C1BEDD
:103FC00091EA030F10B581F000413FF5C5AD83F0D4
:103FD000004300F009B8000010B591EA030F48BF94
:103FE00083F000433FF5B8AD841A71EB030C07D2A0
:103FF00012198CF0004C43EB0C03001B61EB0C011D
:10400000DFF8A4E14FEA1154A4EB135C1EEA430F5E
:1040100018BF9EEA445F00F0B08023EA6E0352426C
:1040200021EA0451C3EB6E0338BF5B1EDCF1200EA6
:1040300025D322FA0CFE10EB0E0043FA0CFE41EBE6
:104040000E01CCF1200E03FA0EFE10EB0E0051F122
:104050000001CCF1200E29D412FA0EF201EB04512A
:10406000BDE8104058BF7047401C1CBFB2F1004F64
:10407000704700280CBF491C20F00100704712EB6C
:10408000020E43EB030218BF4FF0010E4EEA42024C
:10409000ACF1200CDCF11E0E54D943FA0CFE10EBEF
:1040A0000E0051F1FF31CCF11E0ED5D50EF1010EEF
:1040B00012FA0EFE404141EB010101EB445C5FEA64
:1040C0005C5C10D910EBDE7001EB045138BFBEF11F
:1040D000004FBDE8104018BF704700280CBF491CB6
:1040E00020F00100704730D24FEAD42C11F50011B6
:1040F00024F400641BD0B1FA81F20B3AA41AA41E76
:10410000D2F12003914030FA03F31943904001EBC0
:10411000CC71002C01EB0451BDE81040A8BF7047E2
:1041200001F1C0414FF0000001F000417047B0FACA
:1041300080F310FA03F100D110BDE41A173C4805D2
:10414000C90AE4E701EB045110BD491001EB045129
:10415000BDE810404FEA300002E04FF00001704728
:104160004A0008BF0042F8D0B2F5001F28BF7047D0
:1041700001F000414FF0000070479EEA445F07D015
:1041800011EA5E0FBDE8104004BF00210020704717
:10419000BDE8104070B5FFF789FE00BF40DFF63E76
:1041A00083F00041104670470000E0FFCC4100085A
:1041B00000000020BC0000006C01000888420008DC
:1041C000BC0000203C0700008801000800A24A044F
:1041D00000000000000000000102030406070809B7
:1041E000000000000102030401020304060708099D
:1041F0000204060800000000000000000000123465
:10420000567890ABCDEF1234567890ABCDEF0000DE
:10421000020000000000000000000000000000009C
:104220000000000000000000000800400000000046
:10423000000000000000000000000000000000007E
:10424000000000000000000000000000000000006E
:104250000000F03F000000000000F03F01000000FF
:10426000000000000000000000000000000000004E
:10427000000000000000000000000000000000003E
:08428000000000000000000036
:0400000508000131BD
:00000001FF
