:020000040800F2
:100000006008002055130008990200089B020008B0
:100010009F020008A3020008A702000800000000D9
:10002000000000000000000000000000AB0200081B
:10003000AD02000800000000AF020008B102000895
:100040006F1300086F1300086F1300086F13000888
:100050006F1300086F1300086F1300086F13000878
:10006000F50100086F1300086F1300086F130008F4
:100070006F1300086F1300086F1300086F13000858
:100080006F1300086F1300086F1300086F13000848
:100090006F1300086F1300086F1300086F13000838
:1000A0006F1300086F1300086F1300086F13000828
:1000B0006F1300086F1300086F1300086F13000818
:1000C0006F1300086F1300086F1300086F13000808
:1000D0006F130008953200086F130008E311000841
:1000E0001D0200086F1300086F1300086F1300084B
:1000F0006F1300086F1300086F1300086F130008D8
:100100006F1300086F1300086F1300086F130008C7
:100110006F1300086F1300086F1300086F130008B7
:100120006F1300086F1300086F1300086F130008A7
:1001300000F002F800F03AF80AA090E8000C8244BF
:100140008344AAF10107DA4501D100F02FF8AFF29C
:10015000090EBAE80F0013F0010F18BFFB1A43F0A5
:1001600001031847083F0000283F0000103A24BF51
:1001700078C878C1FAD8520724BF30C830C144BF0C
:1001800004680C607047000000230024002500264E
:10019000103A28BF78C1FBD8520728BF30C148BFEA
:1001A0000B6070471FB51FBD10B510BD03F0E4F81C
:1001B0001146FFF7F7FF00F009F803F002F903B466
:1001C000FFF7F2FF03BC03F007F8000000F010FB9C
:1001D00000F0E1F802F096FF0A2002F0D0FF044997
:1001E00003C900F0A9F900F0D3F900BFFEE7000051
:1001F0000000002010B5042002F040FE68B1642029
:1002000002F0BDFF4FF461702A4908600146000703
:1002100002F07CFD042002F042FE10BD10B54FF448
:10022000806002F02BFE70B1642002F0A8FF4FF452
:10023000FA60204908600146800602F067FD4FF42D
:10024000806002F02CFE4FF4006002F017FE70B1E7
:10025000642002F094FF4FF47A701649086001465A
:10026000C00602F053FD4FF4006002F018FE4FF498
:10027000805002F003FE70B1642002F080FF40F66F
:1002800034000C4908600146000702F03FFD4FF4BE
:10029000805002F004FE10BD704700BFFEE700BFB3
:1002A000FEE700BFFEE700BFFEE7704770477047FC
:1002B00070470000080000200CB50020019000905D
:1002C0006C48006840F480306A49086000BF6948A3
:1002D000006800F4003000900198401C01900098E4
:1002E00018B90198B0F5A06FF1D16248006800F428
:1002F000003010B10120009001E000200090009833
:10030000012843D15C48006840F010005A49086059
:100310000846006820F0030008600846006840F0C6
:1003200002000860534840685249486008464068E7
:1003300048600846406840F480604860084640686D
:1003400020F47C1048600846406840F4E81048609B
:100350000846006840F08070086000BF45480068AB
:1003600000F000700028F9D04248406820F00300F7
:10037000404948600846406840F00200486000BFBD
:100380003C48406800F00C000828F9D10CBD10B5BD
:10039000FFF792FF10BD10B53648006840F001002D
:1003A000344908600846406834490840314948608B
:1003B00008460068324908402E490860084600682F
:1003C00020F4802008600846406820F4FE00486061
:1003D0004FF41F008860FFF7DAFF4FF000602949F3
:1003E000086010BD10B5002100200022214B5B6881
:1003F00003F00C0121B1042906D0082928D107E017
:10040000214B224C236027E01F4B204C236023E02C
:10041000184B5B6803F47010164B5B6803F4803272
:10042000022303EB904022B9194B4343174C23603E
:100430000DE0104B5B6803F4003323B1144B4343CE
:10044000124C236003E0104B4343104C236003E045
:100450000D4B0E4C236000BF00BF064B5B68C3F31F
:1004600003130C4CE15C094B1B68CB40074C236029
:1004700010BD000000100240002002400000FFF804
:10048000FFFFF6FE08ED00E000127A0014000020E5
:1004900000093D001800002030B587B004460D4625
:1004A00044F62060ADF814004820ADF8100000209C
:1004B000ADF81600ADF8120004A94FF0804001F02D
:1004C0002FFE6020ADF800000120ADF8020040F2E0
:1004D000DC50ADF806000020ADF8080069464FF08A
:1004E000804001F09CFE0821C80602F0AEFA01210E
:1004F000880702F071FA0121880702F06DF907B050
:1005000030BD08B50121084601F0DBFA01210420C5
:1005100001F0CAFA1220ADF8000018208DF803008F
:1005200003208DF802006946084801F001F8102107
:10053000064801F0ACF808BD70B504460D46FFF75B
:10054000E0FF20462946FFF7A7FF70BD00080140E5
:1005500008B54FF4C06000F01DFF08208DF80000C2
:1005600000208DF801008DF8020001208DF80300B5
:10057000684600F014FF28208DF8000000208DF858
:10058000010001208DF80200684600F008FF08BD58
:100590000EB50121312001F087FAFFF7D9FF0420C1
:1005A000ADF800008DF8030069462B4800F0C0FF4D
:1005B0004FF4E050ADF800006946284800F0B8FF5D
:1005C0000221032001F0CAF80420019000208DF8D8
:1005D00008000C208DF8090001208DF80A0001A800
:1005E00002F0E6FB0A21022001F0B8F84FF4806027
:1005F000019000208DF808000C208DF809000120E2
:100600008DF80A0001A802F0D3FB0B21022001F0B3
:10061000A5F84FF40060019000208DF808000C2030
:100620008DF8090001208DF80A0001A802F0C0FB36
:100630000C21022001F092F84FF48050019000202C
:100640008DF808000C208DF8090001208DF80A00B3
:1006500001A802F0ADFB0EBD0014014000100140E6
:1006600030B5F84800684FF4FA72B0FBF2F1B1F11E
:10067000807F01D301201DE021F07F40401E4FF01C
:10068000E022506150170F22002807DA13071D0ED1
:10069000ED4B00F00F04241F1D5503E013071C0E43
:1006A000EA4B1C5400BF00204FF0E022906107206D
:1006B0001061002008B100BFFEE730BD00B58BB06F
:1006C000E34802F0F5FBE3480090E34801900C207A
:1006D00003901020029000200490802005900020BC
:1006E0000690079008904FF44050099000200A901F
:1006F0006946D74802F07EFC0BB000BD1FB5012152
:10070000880401F0DEF90121084601F0C0F94FF438
:10071000E13000900020ADF80400ADF80600ADF81F
:100720000800ADF80C000C20ADF80A006946C94875
:10073000001F01F060FA012240F22551C548001F58
:1007400001F0F1FA0121C348001F01F0E0FA402155
:10075000C048001F01F0C3FB1FBD08B501210920DF
:1007600001F0A2F90121880401F0ABF9B948001F9A
:1007700001F0FEF94FF48060ADF8000003208DF821
:10078000020018208DF803006946B44800F0D0FE3E
:100790004FF40060ADF8000048208DF80300694672
:1007A000AE4800F0C5FE08BD08B54FF4A06000F0EB
:1007B000F1FD27208DF8000003208DF801008DF851
:1007C000020001208DF80300684600F0E8FD08BD36
:1007D00010B5FFF7E9FFFFF7C0FFFFF78FFFFFF747
:1007E0006DFF012280219B48001F01F0C1FA10BD5E
:1007F00010B502F087FCFFF7EBFFFFF731FF10BDEC
:100800009749984A12788854964909789F2903DBBA
:100810000021944A117004E092490978491C914AD8
:100820001170704700B5034603E013F8010BFFF7A2
:10083000E7FF18780028F8D100BD01EB810200EB3A
:100840008202884B1A70704700B503461846FFF7BE
:10085000D7FF00BD10B504462046FFF7E3FF10BDEB
:1008600070B599B0044662250026002C01DA0126F5
:10087000644200208DF863000DE00A2094FBF0F143
:1008800000FB11403030C2B228466D1E0DF800202A
:100890000A2094FBF0F4092CEFDC04F13000C0B224
:1008A0000DF8050026B12D21681E05460DF8001033
:1008B0000DEB0500FFF7B6FF19B070BD2DE9F0474D
:1008C00004460D461646002213462046294602F0ED
:1008D0007FFE09D20022644B2046294602F0B2FF77
:1008E00002D22D20FFF7B0FF2046294602F02AFE53
:1008F0000746FFF7B5FF002E40DD2E20FFF7A4FFCF
:10090000002213462046294602F062FE01D285F0FD
:1009100000452046294602F015FE824602F041FEBF
:10092000074622462B4602F0C3FF04460D464FF011
:10093000000920E000224D4B2046294602F084FEAB
:1009400004460D462046294602F0FCFD3030C7B271
:100950003846FFF779FF2046294602F0F3FD82462C
:1009600002F01FFE074622462B4602F0A1FF044676
:100970000D4609F10109B145DCDB00BFBDE8F08798
:100980002DE9FC4704460D464FF0000900221346AE
:100990002046294602F01CFE04D22D20FFF754FF0A
:1009A00085F000452046294602F0CCFD0746FFF7BA
:1009B00057FF2046294602F0C5FD824602F0F1FDB0
:1009C000074622462B4602F073FF04460D460026DA
:1009D00024E00022254B2046294602F035FE04463D
:1009E0000D462046294602F0ADFD3030C0B20DF86C
:1009F00006001DF80600302801D006F10109204646
:100A0000294602F09FFD824602F0CBFD07462246B2
:100A10002B4602F04DFF04460D46761C052ED8DB12
:100A2000B9F1000F02D02E20FFF70EFF002604E0E0
:100A30001DF80600FFF708FF761C4E45F8DB4E4612
:100A40001AE000001400002018ED00E000E400E0CF
:100A50001C0002400448004008010020000C014036
:100A600068000020280000200000F0BF00002440A3
:100A70002020FFF7E9FE761C062EF9DBBDE8FC8797
:100A800070B506460C46154629462046FFF7D5FEAA
:100A90003046FFF7B5FE70BD70B506460C461546EC
:100AA00029462046FFF7C9FE3046FFF7BBFE70BD62
:100AB00070B506460C46154629462046FFF7BDFE92
:100AC0003046FFF7CDFE70BD2DE9F04105460E46DC
:100AD00017461C46DDF8188041462046FFF7ADFE5C
:100AE0003A4628463146FFF7E9FEBDE8F0812DE998
:100AF000F04106460F4614461D4629462046FFF79C
:100B00009CFE30463946FFF73BFFBDE8F08100B55B
:100B100000221146F748FFF7BFFF04220021F548E5
:100B2000FFF7BAFF00210846FFF787FE00BD10B5AA
:100B300004462146F04801F057F900BF8021EE48F5
:100B400001F0C0F90028F9D010BD70B5FF20FFF703
:100B5000EEFFEA490D7805EBD5714910C1EB0111A3
:100B60004900E64A147804EBD4725210A4EB420216
:100B700002EB820201EB4201C8B2FFF7D8FF00206E
:100B8000DF4908700FE0DE490978DC4A12780A2351
:100B900003FB0211DB4A505CFFF7C9FFD84800781D
:100BA000401CD7490870D64800780928EBDDD348A7
:100BB00000780F2803DB0020D049087004E0CF48FC
:100BC0000078401CCD49087070BD2DE9F04186B019
:100BD00007468846142101A802F0A3FB20208DF8C7
:100BE0000400012400BFFFF792FF00210846FFF731
:100BF00024FE4046FFF72EFE01210020FFF71DFED8
:100C0000C1A0FFF727FE3868FFF72AFE0221002067
:100C1000FFF713FEBEA0FFF71DFE01A8FFF71AFEA7
:100C2000012C06DC02210520FFF707FEBAA0FFF722
:100C300011FE052002F0A3FABA4800780028D2D0AD
:100C40000020B8490870B8480068132812D2DFE8BD
:100C500000F0860A121A2285862A323A4286864A8D
:100C600052865A666E000E2C04DA31222046641C2D
:100C700001A90A5473E00E2C04DA32222046641CC7
:100C800001A90A546BE00E2C04DA33222046641CBE
:100C900001A90A5463E00E2C04DA34222046641CB5
:100CA00001A90A545BE00E2C04DA35222046641CAC
:100CB00001A90A5453E00E2C04DA36222046641CA3
:100CC00001A90A544BE00E2C04DA37222046641C9A
:100CD00001A90A5443E00E2C04DA38222046641C91
:100CE00001A90A543BE00E2C04DA39222046641C88
:100CF00001A90A5433E00E2C04DA30222046641C89
:100D000001A90A542BE09DF80400202803D12D20CE
:100D10008DF8040002E020208DF804001FE0012C73
:100D200004DD0021601E044601AA115417E00025CD
:100D3000012608E001A8805D05EB850100EB41007C
:100D4000A0F13005761CA642F4DB9DF804002D28A6
:100D500000D16D423D6006B0BDE8F081FBE742E79F
:100D60002DE9F04F87B0804689460026142102A85D
:100D700002F0D7FA20208DF80800012400BF00BF40
:100D8000FFF7C5FE00210846FFF757FD4846FFF76D
:100D900061FD01210020FFF750FD5BA0FFF75AFD28
:100DA000D8E900211046FFF7EBFD02210020FFF7F4
:100DB00044FD57A0FFF74EFD02A8FFF74BFD012CA5
:100DC00006DC02210520FFF738FD53A0FFF742FDA6
:100DD000142002F0D4F9534800780028D0D0002025
:100DE0005049087050480068132812D2DFE800F01C
:100DF000E00A121A22DFE02A323A42E0E04A525A6E
:100E000064707E000E2C04DA31222046641C02A994
:100E10000A54CDE00E2C04DA32222046641C02A9CA
:100E20000A54C5E00E2C04DA33222046641C02A9C1
:100E30000A54BDE00E2C04DA34222046641C02A9B8
:100E40000A54B5E00E2C04DA35222046641C02A9AF
:100E50000A54ADE00E2C04DA36222046641C02A9A6
:100E60000A54A5E00E2C04DA37222146641C02A89D
:100E700042549DE00E2C04DA38222046641C02A95C
:100E80000A5495E00E2C04DA39222046641C02A98B
:100E90000A548DE00E2C04DA30222046641C02A98C
:100EA0000A5485E03EB90E2C05DA2E222146641C38
:100EB00002A8425401267BE09DF80800202803D1B7
:100EC0002D208DF8080002E020208DF808006FE04A
:100ED000012C0ADD601E02A9085C2E2800D1002624
:100EE0000021601E044602AA115461E0002700267A
:100EF00001254CE018400008004800404400002054
:100F000045000020680000206F6C643A000000007B
:100F10006E65773A0000000056616C75653D3021C2
:100F200021210000380000203400002002A8405D8C
:100F30002E2801D10A2629E096B902A9485D02F0BF
:100F400015FF8346F849384602F024FF59460190C0
:100F500002F0D0FD8246F54902F0E8FF074615E0B1
:100F6000304602F003FF834602A9495DA1F130003B
:100F700002F0E4FE5946019002F01EFE8246394618
:100F800002F0B8FD074606EB860046006D1CA54240
:100F9000CCDB9DF808002D2801D187F000473846AA
:100FA00002F07CFDC8E9000107B0BDE8F08FFBE767
:100FB000E6E62DE9F04F87B082468B464FF00009F8
:100FC000142102A802F0ADF920208DF808000124B8
:100FD00000BF00BFFFF79BFD00210846FFF72DFC77
:100FE0005846FFF737FC01210020FFF726FCAFF23F
:100FF000E800FFF72FFCDAF8000002F04FFD07468B
:10100000FFF7BEFC02210020FFF717FCAFF2001033
:10101000FFF720FC02A8FFF71DFC012C07DC0221D2
:101020000520FFF70AFCAFF21010FFF713FC1420A5
:1010300002F0A5F8BE4800780028CBD00020BC49BB
:101040000870BC480068132812D2DFE800F0C90A13
:10105000121A22C8C92A323A42C9C94A525A677377
:1010600082000E2C04DA31222046641C02A90A54A4
:10107000B6E00E2C04DA32222046641C02A90A547F
:10108000AEE00E2C04DA33222046641C02A90A5476
:10109000A6E00E2C04DA34222046641C02A90A546D
:1010A0009EE00E2C04DA35222046641C02A90A5464
:1010B00096E00E2C04DA36222046641C02A90A545B
:1010C0008EE00E2C04DA37222046641C02A90A5452
:1010D00086E00E2C04DA38222046641C02A90A5449
:1010E0007EE00E2C04DA39222046641C02A90A5440
:1010F00076E00E2C04DA30222046641C02A90A5441
:101100006EE0B9F1000F08D10E2C06DA2E2220462F
:10111000641C02A90A544FF0010961E09DF808001F
:10112000202803D12D208DF8080002E020208DF822
:10113000080055E0012C0BDD601E02A9085C2E287A
:1011400001D14FF000090021601E044602AA11548B
:1011500046E00026B146012534E002A8405D2E2875
:1011600002D14FF00A092CE0B9F1000F12D102A907
:10117000485D02F0FBFD80466B49304602F00AFEF6
:101180004146019002F0B6FC0746684902F0CEFEE7
:10119000064616E0484602F0E9FD804602A9495D90
:1011A000A1F1300002F0CAFD4146019002F004FDB9
:1011B0000746314602F09EFC064609EB89004FEADD
:1011C00040096D1CA542C8DB9DF808002D2801D1FF
:1011D00086F00046CAF8006007B0BDE8F08FFBE774
:1011E000F8E610B540F22551534800F081FE38B1C1
:1011F000514800F0FDFD4F49086001204C4908703E
:101200004C480068062803D101204C49087004E0CE
:1012100040F22551484800F095FE10BD70B5FF2002
:10122000FFF785FC46490D7805EBD5714910C1EBF8
:1012300001114900424A147804EBD4725210A4EB15
:10124000420202EB820201EB4201C8B2FFF76FFCDF
:1012500000203C4908700FE03A490978384A127872
:101260000A2303FB0211384A505CFFF760FC354843
:101270000078401C33490870324800780928EBDDBB
:101280002F4800780F2803DB00202D49087004E068
:101290002B480078401C2A49087070BD1FB50121F9
:1012A000082000F00EFC4720ADF8000042F210705C
:1012B000ADF804000020ADF80600ADF80200694664
:1012C000224800F02DFF0121204801F04BFD322083
:1012D0008DF80C0007208DF80D0006208DF80E000B
:1012E00001208DF80F0003A800F059F801221146E3
:1012F000164801F08CFA0121144801F06DFA1FBD67
:1013000001B513490098086000BF11480068002823
:10131000FBD108BD0E48006820B10D480068401E92
:101320000B49086070470000000020410000404267
:101330003800002034000020004800403900002020
:10134000460000204700002068000020000C0040FC
:10135000400000200948804709480047FEE7FEE7B3
:10136000FEE7FEE7FEE7FEE7FEE7FEE7FEE7FEE755
:1013700004480549054A064B7047000097030008DA
:101380003101000860020020600800206004002095
:101390006004002031490143314A1160704770B543
:1013A000002100230F22C47804B32D4C246804F4D8
:1013B000E064C4F5E064210AC1F10403CA40447842
:1013C00004FA03F18478144021430901254C06787E
:1013D000A155047804F01F050124AC4005786D1177
:1013E000AD0005F1E025C5F8004109E0047804F0FE
:1013F0001F050124AC401C4D0678761145F82640A7
:1014000070BD1A4A0A400243154B1B1F1A607047F1
:1014100039B1134A121D12680243114B1B1D1A6089
:1014200006E00F4A121D126882430D4B1B1D1A6005
:101430007047042808D14FF0E021096941F0040108
:101440004FF0E022116107E04FF0E021096921F03F
:1014500004014FF0E0221161704700000000FA051E
:101460000CED00E000E400E080E100E080FFFF1F01
:1014700010B50446CC48844208D10121042000F074
:101480002DFB0021042000F029FB46E0C7488442E0
:1014900008D10121082000F021FB0021082000F0E4
:1014A0001DFB3AE0C248844208D10121102000F01F
:1014B00015FB0021102000F011FB2EE0BD488442F6
:1014C00008D10121202000F009FB0021202000F09C
:1014D00005FB22E0B848844208D10121402000F0F9
:1014E000FDFA0021402000F0F9FA16E0B3488442EA
:1014F00008D10121802000F0F1FA0021802000F0C5
:10150000EDFA0AE0AE48844207D10121801500F0CF
:10151000E5FA0021A01500F0E1FA10BD10B5012197
:10152000084600F0DBFA0021012000F0D7FA10BDD8
:101530002DE9F0410246002500260020002300246A
:10154000002791F803C00CF00F0591F803C00CF0D0
:10155000100CBCF1000F03D091F802C04CEA050555
:1015600091F800C0BCF1000F31D0146800202BE0CE
:101570004FF0010C0CFA00F3B1F800C00CEA0306BE
:101580009E4220D183004FF00F0C0CFA03F7BC43AE
:1015900005FA03FC4CEA040491F803C0BCF1280FDF
:1015A00006D14FF0010C0CFA00FCC2F814C00AE09E
:1015B00091F803C0BCF1480F05D14FF0010C0CFAB3
:1015C00000FCC2F810C0401C0828D1D31460B1F848
:1015D00000C0BCF1FF0F34DD546800202EE000F1A4
:1015E000080C4FF0010808FA0CF3B1F800C00CEA3F
:1015F00003069E4221D183004FF00F0C0CFA03F733
:10160000BC4305FA03FC4CEA040491F803C0BCF1A6
:10161000280F05D100F1080C08FA0CF8C2F8148064
:1016200091F803C0BCF1480F07D100F1080C4FF04E
:10163000010808FA0CF8C2F81080401C0828CED324
:101640005460BDE8F0814FF6FF7101800221817086
:101650000421C17070470246002093680B400BB113
:10166000012000E0002070470146886880B2704782
:1016700002460020D3680B400BB1012000E000209F
:1016800070470146C86880B2704701617047416188
:1016900070470AB1016100E041617047C160704765
:1016A0004FF480320A43826181618261826982697A
:1016B000704702460020434B18684FF6807318406D
:1016C00040EA021008433F4B186070473E49C8612A
:1016D0007047F0B50A46002300240021002500F0E1
:1016E0000046B6F1004F02D1364EF16901E0354EA9
:1016F0007168C0F3034583B200F44016B6F5401F8D
:1017000008D121F070612F4E766826F070662D4F5B
:101710007E6012E000F48016B6F5801F06D1032625
:1017200006FA05F4A14341F0706106E0460D36016A
:1017300003FA06F6B14341F0706122B1460D36015D
:1017400003FA06F6314300F00046B6F1004F02D12D
:101750001C4EF16101E01B4E7160F0BD30B50022FE
:101760008B071C0F0F2303FA04F2164B08338C105F
:1017700053F824309343134C08348D1044F825302B
:1017800023468C1053F824308C07240F00FA04F4FD
:1017900023430C4C08348D1044F8253030BD0A49E1
:1017A000DC3108607047000000080140000C014077
:1017B000001001400014014000180140001C0140CD
:1017C000002001400000014000002042DF48006886
:1017D00040F00100DD49086008464068DC490840E7
:1017E000DA49486008460068DA490840D749086085
:1017F0000846006820F4802008600846406820F40D
:10180000FE0048604FF41F0088607047CF490968A8
:1018100021F48031CD4A11601146096821F48021FC
:101820001160B0F5803F03D0B0F5802F0ED106E0F7
:10183000C649096841F48031C44A116007E0C349D0
:10184000096841F4A021C14A116000E000BF00BF57
:10185000704710B501460022002300204A11012ADA
:1018600002D1BA4C236806E0022A02D1B74C236A9F
:1018700001E0B64C636A01F01F02012494401C4051
:101880000CB1012000E0002010BD38B50020009010
:101890000024002500BF3120FFF7DBFF054600983C
:1018A000401C00900098B0F5A06F01D0002DF2D040
:1018B0003120FFF7CEFF08B1012400E000242046CC
:1018C00038BD01460020A14A106820F0F80040EA27
:1018D000C10010607047A0490860704702460020B0
:1018E0009A4B586820F47C1042EA01031843974B46
:1018F0005860704798490866704701460020934A2F
:10190000506820F003000843506070478F484068DB
:1019100000F00C007047014600208C4A506820F00F
:10192000F00008435060704701460020874A506825
:1019300020F4E06008435060704701460020834A6D
:10194000506820F4605040EAC1005060704729B1EF
:101950007E4A527A02437D4B5A7204E07B4A527AA5
:1019600082437A4B5A7270477B49D831086070477E
:1019700001460020754A506820F4404008435060FA
:1019800070470021714A20321170704A82F820108D
:10199000012802D004280AD104E001216B4A203238
:1019A000117005E00521694A2032117000E000BF86
:1019B00000BF70476949086070476449096A01437C
:1019C000624A11627047654944390860704730B512
:1019D00000210022002400235C4D6D6805F00C01FD
:1019E00021B1042905D0082923D105E05C4D05600B
:1019F00022E05B4D05601FE0544D6D6805F47012E8
:101A0000524D6D6805F48034022505EB92421CB9F5
:101A1000544D554305600BE04C4D6D6805F40035A1
:101A20001DB1504D5543056002E04D4D55430560D5
:101A300002E04B4D056000BF00BF444D6D6805F0EE
:101A4000F0010909484D6B5C0568DD4045603F4D7C
:101A50006D6805F4E061090A434D6B5C4568DD4043
:101A600085603A4D6D6805F46051C90A3E4D6B5C66
:101A70004568DD40C560354D6D6805F44041890B12
:101A80003A4D6B5CC568B5FBF3F5056130BD29B116
:101A90002E4A526902432D4B5A6104E02B4A526987
:101AA00082432A4B5A61704729B1284A92690243FE
:101AB000264B9A6104E0254A92698243234B9A613E
:101AC000704729B1214AD2690243204BDA6104E010
:101AD0001E4AD26982431D4BDA61704729B11B4A05
:101AE000D2680243194BDA6004E0184AD268824394
:101AF000164BDA60704729B1144A12690243134B3E
:101B00001A6104E0114A12698243104B1A6170474E
:101B100012494039086070470F49C86470470B4943
:101B2000C87170470948406A40F0807007494862B0
:101B3000704701460020054A92680A400AB1012018
:101B400000E0002070470149887270470010024091
:101B50000000FFF8FFFFF6FE000042428004424210
:101B600000127A0000093D004800002058000020C3
:101B700010B50446FB48844209D101218803FFF7D0
:101B8000ADFF00214FF48040FFF7A8FF32E0F64898
:101B9000844209D101214804FFF7ADFF00214FF431
:101BA0000030FFF7A8FF25E0F048844209D1012169
:101BB0008804FFF7A0FF00214FF48020FFF79BFF70
:101BC00018E0EB48844209D10121C804FFF793FFD4
:101BD00000214FF40020FFF78EFF0BE0E548844220
:101BE00008D101210805FFF786FF00214FF480107E
:101BF000FFF781FF10BD2DE9F04786B005460E4680
:101C00000024A24600BFA1460027B08900B100BF52
:101C10002F462C8A4CF6FF700440F08804432C8237
:101C2000AC894EF6F3100440B088318908437189BD
:101C300008430443AC81AC8A4FF6FF400440B089AE
:101C40000443AC8201A8FFF7C2FEC648874202D116
:101C5000DDF810A001E0DDF80CA0A88900F4004038
:101C600040B10AEBCA0000EB0A1031684900B0FB32
:101C7000F1F807E00AEBCA0000EB0A1031688900AE
:101C8000B0FBF1F86420B8FBF0F0040120096421F6
:101C900001FB1089A88900F4004040B1322000EB1C
:101CA000C900B0FBF1F000F00700044308E0322067
:101CB00000EB09106421B0FBF1F000F00F000443C9
:101CC0002C8106B0BDE8F0874FF416510160002169
:101CD0008180C18001810C21418100218181704777
:101CE00010B502460020108A4FF2FF0318400B88FF
:101CF0004C8823438C882343CC8823431843108289
:101D000010BD0021018041808180C180704721B1D8
:101D1000828942F40052828104E082894DF6FF7389
:101D20001A4082817047F0B5034600240026002542
:101D3000002040F66A17B94200D100BF1846C1F32F
:101D4000421401F01F06012707FA06F5012C01D104
:101D50000C3004E0022C01D1103000E014301AB134
:101D600007682F43076002E00768AF430760F0BDD4
:101D70001AB1838A0B43838202E0838A8B43838276
:101D80007047028A4FF6F0731A400282028A0A43B1
:101D90000282704782894FF2FF731A4082818289E2
:101DA0000A438281704721B1828942F00202828116
:101DB00004E082894FF6FD731A4082817047028ADF
:101DC0004FF6DF731A400282028A0A43028270478A
:101DD00021B1028A42F48042028204E0028A4BF678
:101DE000FF731A4002827047C1F308028280704775
:101DF00001468888C0F308007047818941F00101DD
:101E000081817047028BD2B20283028B42EA0122A7
:101E100002837047028B02F47F420283028B0A43E3
:101E20000283704721B1828A42F02002828204E05C
:101E3000828A4FF6DF731A408282704721B1828A0C
:101E400042F01002828204E0828A4FF6EF731A4059
:101E50008282704721B1828A42F00802828204E0C5
:101E6000828A4FF6F7731A408282704721B18289C5
:101E700042F40042828103E08289C2F30E02828131
:101E8000704721B1828A42F40062828204E0828A31
:101E90004FF2FF731A4082827047828A4FF6FB73BB
:101EA0001A408282828A0A438282704721B1828AE2
:101EB00042F00202828204E0828A4FF6FD731A40E9
:101EC0008282704702460020B1F5007F00D100BF3A
:101ED00013880B400BB1012000E00020704701F493
:101EE0000072B2F5007F00D100BFCA430280704784
:101EF00070B50246002400230025002040F66A1633
:101F0000B14200D100BFC1F3421501F01F03012609
:101F100006FA03F3012D02D19689334006E0022D23
:101F200002D1168A334001E0968A33400C12012612
:101F300006FA04F41688344013B10CB1012000E015
:101F4000002070BD10B50022002340F66A14A142A3
:101F500000D100BF0A1201249440A3B2DC430480E4
:101F600010BD00000038014000440040004800401F
:101F7000004C00400050004010B50446FE4884422A
:101F800008D10121C014FFF7A9FD0021E014FFF7DB
:101F9000A5FDC4E0B4F1804F08D101210846FFF748
:101FA000AAFD00210120FFF7A6FDB8E0F348844216
:101FB00008D101210220FFF79EFD00210220FFF73A
:101FC0009AFDACE0EE48844208D101210420FFF7DD
:101FD00092FD00210420FFF78EFDA0E0E948844235
:101FE00008D101210820FFF786FD00210820FFF716
:101FF00082FD94E0E448844208D101211020FFF7DB
:102000007AFD00211020FFF776FD88E0DF4884424A
:1020100008D101212020FFF76EFD00212020FFF7CD
:102020006AFD7CE0DA48844208D101214014FFF7C0
:1020300055FD00216014FFF751FD70E0D548844242
:1020400009D10121C804FFF749FD00214FF4002008
:10205000FFF744FD63E0D048844209D1012108051F
:10206000FFF73CFD00214FF48010FFF737FD56E0ED
:10207000CA48844209D101214805FFF72FFD0021FC
:102080004FF40010FFF72AFD49E0C548844208D10B
:1020900001214020FFF72FFD00214020FFF72BFDFD
:1020A0003DE0C048844208D101218020FFF723FD94
:1020B00000218020FFF71FFD31E0BB48844208D19A
:1020C00001218015FFF717FD0021A015FFF713FD73
:1020D00025E0B648844209D101210804FFF7FEFC3F
:1020E00000214FF48030FFF7F9FC18E0B04884423B
:1020F00009D101214804FFF7F1FC00214FF4003021
:10210000FFF7ECFC0BE0AB48844208D101218804C6
:10211000FFF7E4FC00214FF48020FFF7DFFC10BD47
:1021200000220288944B98420ED0994B98420BD0D3
:10213000B0F1804F08D0914B984205D0904B984217
:1021400002D0904B984204D14FF68F731A404B88BF
:102150001A438D4B984207D08C4B984204D04FF6CF
:10216000FF431A40CB881A4302808B8883850B88F3
:102170000385814B98420BD0854B984208D08B4BFE
:10218000984205D08A4B984202D08A4B984201D19E
:102190000B7A038601238382704770B500240022E6
:1021A0000023058C4FF6FE7635400584028C83882B
:1021B000048B4FF68F752C40B51E2C400D882C4398
:1021C000751E2A400D892A434D882A436A4DA8422C
:1021D0000BD06F4DA84208D0744DA84205D0744D65
:1021E000A84202D0734DA84213D14FF6F7752A408A
:1021F0004D892A434FF6FB752A408D882A434FF6B6
:10220000FF652B404FF6FF552B408D892B43CD8921
:102210002B4383800483CD888586028470BD70B58E
:10222000002400220023058C4FF6EF76354005840C
:10223000028C8388048B48F6FF752C404FF6FF45CF
:102240002C400D884FF6FF7606EA05252C434FF605
:10225000DF752A400D8906EA05152A434D8806EAEE
:1022600005152A43444DA84202D0494DA8421DD12C
:102270004FF67F752A404D894FF6FF7606EA051521
:102280002A434FF6BF752A408D8806EA05152A4372
:102290004FF6FF352B404FF2FF752B408D8906EA34
:1022A00085052B43CD8906EA85052B43838004836E
:1022B000CD880587028470BD70B5002400220023FC
:1022C000058C4FF6FF6635400584028C8388848B2D
:1022D0004FF68F752C404FF6FC752C400D882C4323
:1022E0004FF6FF552A400D894FF6FF7606EA052581
:1022F0002A434D8806EA05252A431F4DA84202D0ED
:10230000234DA8421DD14FF2FF752A404D894FF64B
:10231000FF7606EA05252A434FF6FF352A408D88C9
:1023200006EA05252A434EF6FF752B404DF6FF754C
:102330002B408D8906EA05152B43CD8906EA051544
:102340002B4383808483CD888587028470BD70B5DC
:10235000002200230024058C4EF6FF7635400584CC
:10236000038C8488828B48F6FF752A404FF6FF4520
:102370002A400D8820E00000002C014000040040AD
:1023800000080040000C0040001000400014004015
:1023900000340140004C0140005001400054014015
:1023A00000180040001C0040002000400040014098
:1023B00000440140004801404FF6FF7606EA05253B
:1023C0002A434DF6FF752B400D8906EA05352B4350
:1023D0004D8806EA05352B43FA4DA84202D0FA4D46
:1023E000A84208D14BF6FF752C408D894FF6FF7639
:1023F00006EA85152C4384808283CD88A0F840505E
:10240000038470BD828B4FF2FF331A408283828B2C
:102410004FF6FF7303EA01231A4382837047F0B536
:102420000C461546002200210026078C4EF6FF7C44
:1024300007EA0C070784828B018C4FF6FF7707EAC7
:10244000043640F6FF473A404FF6FF7707EA052784
:102450003A434FF6FF7707EA03373A43D94FB8427A
:102460000ED0D94FB8420BD0B0F1804F08D0D74F23
:10247000B84205D0D64FB84202D0D64FB84206D1A6
:102480004DF6FF77394046F48057394305E047F66B
:10249000FF57394044F48057394382830184F0BDAB
:1024A000828B4FF6F3731A408283828B0A438283B6
:1024B0007047F0B50C461546002200210026078C17
:1024C0004FF6FF6C07EA0C070784828B018C4FF6EE
:1024D000FF7707EA04264FF60C773A404FF6FF776E
:1024E00007EA03172F433A43B64FB8420ED0B64F10
:1024F000B8420BD0B0F1804F08D0B44FB84205D0ED
:10250000B34FB84202D0B34FB84206D14FF6FF578F
:10251000394046F48077394305E04FF2FF573940A0
:1025200044F48077394382830184F0BD028B4FF2FB
:10253000FF331A400283028B4FF6FF7303EA012335
:102540001A4302837047F0B50C461546002200215D
:102550000026078C4FF6EF7C07EA0C070784028BF6
:10256000018C4FF6FF7707EA041640F6FF473A4022
:102570004FF6FF7707EA03373A434FF6FF7707EA4C
:1025800005273A438F4FB8420ED08F4FB8420BD039
:10259000B0F1804F08D08D4FB84205D08C4FB84273
:1025A00002D08C4FB84206D14FF6DF77394046F063
:1025B0001007394305E04FF65F77394044F01007C4
:1025C000394302830184F0BD028B4FF6F3731A4046
:1025D0000283028B0A4302837047F0B50C4615460E
:1025E00000220021068C4FF6FE773E400684028BC7
:1025F000018C4FF60C7632407E1C06EA03162E4301
:102600003243704EB0420ED06F4EB0420BD0B0F19C
:10261000804F08D06D4EB04205D06D4EB04202D012
:102620006C4EB04206D14FF6FD76314044F00106C3
:10263000314305E04FF6F576314044F00106314371
:1026400002830184F0BD70B505460C465D488542A5
:102650000ED05D4885420BD0B5F1804F08D05B4865
:10266000854205D05A48854202D05A48854200D159
:1026700000E000BF208850B92389A28861882846DD
:10268000FFF7ABFFE1882846FFF79EFF25E0208893
:1026900004280AD12389A28861882846FFF753FFBE
:1026A000E1882846FFF742FF17E0208808280AD172
:1026B0002389A28861882846FFF7FBFEE188284627
:1026C000FFF7EEFE09E02389A28861882846FFF71C
:1026D000A6FEE1882846FFF795FE70BD2DE9F04182
:1026E00005460C4600260127608808B9022600E04E
:1026F0000026A088012801D1022700E001272088B8
:10270000A0B92389A28861882846FFF766FFE1887F
:102710002846FFF759FF23893A4631462846FFF7F6
:1027200012FFE1882846FFF701FF13E02389A28802
:1027300061882846FFF707FFE1882846FFF7F6FE85
:1027400023893A4631462846FFF747FFE188284665
:10275000FFF73AFFBDE8F0810A884B881A438B885F
:102760001A43CB881A430B891A434B891A438B8926
:102770001A43A0F8442070474FF6FF718180002172
:102780000180C18041800172704700210180418039
:102790008180C180018141818181C1817047002197
:1027A00001804180012181800021C1800181704729
:1027B0000021018041808180C1800181418181812E
:1027C00070470000002C014000340140000400402C
:1027D00000080040000C004021B1028842F00102D4
:1027E000028004E002884FF6FE731A4002807047B0
:1027F00031B1B0F8442042F40042A0F8442005E092
:10280000B0F84420C2F30E02A0F8442070471AB179
:1028100083890B43838102E083898B4383817047E3
:102820008182704741EA0203A0F8483070471AB12C
:1028300083890B43838102E083898B4383817047C3
:1028400001894FF6F8721140018170470A46002154
:1028500001894FF68F73194011430181704730B5DC
:1028600004460D4629462046FFF7F0FF208940F038
:102870000700208130BD2DE9F04104460D46164683
:102880001F46602D06D13B46012231462046FFF708
:102890005AFE05E03B46012231462046FFF79DFEE9
:1028A00029462046FFF7D2FF208940F0070020810B
:1028B000BDE8F08130B50C4600210189C9B24FF660
:1028C000FF7505EA0325154325432943018130BDE2
:1028D0002DE9F04105460E4617469846002443462A
:1028E0003A4631462846FFF7E5FF2C894FF6F87047
:1028F000044044F007044FF68F70044044F0700425
:102900002C81BDE8F081F0B504460D4616461F4601
:102910003B46324629462046FFF7CCFF208940F44B
:1029200080402081F0BD0185828270470A460021E7
:1029300001884FF68F731940114301807047F0B53D
:102940000C4615461E460021002200230189028BF9
:10295000038C4FF6F877394021434FF6FC473A4055
:1029600040F201173A434FF6DD773B404FF6FF77D1
:1029700007EA06172F433B43018102830384F0BD1E
:102980000A460021018B4FF68F73194011430183D2
:1029900070470A460021018B48F6FF7319404FF635
:1029A000FF7303EA02231943018370470A4600219B
:1029B000818B4FF68F7319401143818370470A460C
:1029C0000021818B48F6FF7319404FF6FF7303EA2D
:1029D000022319438183704721B1028842F08002AB
:1029E000028004E002884FF67F731A40028070472D
:1029F00021B1828842F00402828004E082884FF68E
:102A0000FB731A408280704721B1828842F008022D
:102A1000828004E082884FF6F7731A408280704704
:102A200021B1828842F00102828004E082884FF660
:102A3000FE731A40828070470A460021018B4FF6D0
:102A4000F77319401143018370470A460021018B37
:102A50004FF2FF7319404FF6FF7303EA0223194345
:102A6000018370470A460021818B4FF6F7731940A6
:102A70001143818370470A460021818B4FF2FF7317
:102A800019404FF6FF7303EA02231943818370470D
:102A90000A460021018B4FF6FB7319401143018355
:102AA00070470A460021018B4FF6FF3319404FF65D
:102AB000FF7303EA02231943018370470A4600218A
:102AC000818B4FF6FB7319401143818370470A468F
:102AD0000021818B4FF6FF3319404FF6FF7303EA55
:102AE00002231943818370470A460021018B4FF668
:102AF0007F7319401143018370470A460021018BFF
:102B0000C1F30E014FF6FF7303EA02231943018359
:102B100070470A460021818B4FF67F73194011439D
:102B2000818370470A460021818BC1F30E014FF665
:102B3000FF7303EA02231943818370470A46002189
:102B4000018C4FF6FD7319401143018470470A460A
:102B50000021018C4FF6F77319401143018470472F
:102B60000A460021018C4FF6DF7319404FF6FF73C0
:102B700003EA02131943018470470A460021018CBD
:102B80004FF67F7319404FF6FF7303EA02131943A0
:102B9000018470470A460021018C4FF6FF5319400B
:102BA0004FF6FF7303EA02231943018470470A4674
:102BB0000021018C4FF2FF7319404FF6FF7303EAB7
:102BC00002231943018470470A460021018C4DF607
:102BD000FF7319404FF6FF7303EA02331943018470
:102BE000704730B5002301248C40A3B2048C9C4371
:102BF0000484048C02FA01F5ADB22C43048430BD88
:102C000030B5002304248C40A3B2048C9C4304847C
:102C1000048C02FA01F5ADB22C43048430BD70B5CA
:102C20000346002000241846183001258D40ACB220
:102C30001D8CA5431D8409B1082909D100EB610051
:102C4000056825F0700505600568154305600EE010
:102C50000D1FC5F34E052844056825F4E0450560C1
:102C600005684FF6FF7606EA02263543056070BD1B
:102C700021B1028842F00202028004E002884FF68D
:102C8000FD731A400280704721B1028842F00402AD
:102C9000028004E002884FF6FB731A4002807047FE
:102CA00021B1828842F08002828004E082884FF65F
:102CB0007F731A408280704702884FF6F7731A407C
:102CC000028002880A430280704782884FF68F7321
:102CD0001A40828082880A438280704702894FF6B8
:102CE000F8731A40028102890A43028170470289FF
:102CF0004FF67F731A40028102890A4302817047AE
:102D0000818470478185704781867047018770474D
:102D100081877047A0F84010704702884FF6FF4344
:102D20001A40028002880A43028070470146888E5A
:102D300070470146088F70470146888F70470146EB
:102D4000B1F8400070470146888C70470146088DF5
:102D5000704702460020138A0B400BB1012000E0AF
:102D600000207047CA430282704730B502460020F7
:102D700000230024158A05EA0103958905EA010468
:102D800013B10CB1012000E0002030BDCA43028223
:102D900070470000002044490860091D0860091DB3
:102DA0000860091D086041483F49143108607047B8
:102DB00000213D498279002A3AD00A461268036808
:102DC0009A430B461A600A1D126803689A430B1D4A
:102DD0001A60027911440A6803681A430A60324A89
:102DE0000832126803689A432F4B08331A601A1D81
:102DF000126803689A432C4B0C331A604279102AEC
:102E00000ED11A1F126803681A43274B08331A6041
:102E10001A1D126803681A43234B0C331A600DE025
:102E20002149427911440A6803681A430A6005E09F
:102E3000027911440A6803689A430A6070470021C6
:102E4000016001710C2141710021817170471649A7
:102E5000103109680143144A10321160704701466D
:102E60000020114A143212680A400AB1012000E021
:102E7000002070470C49143108607047014600205B
:102E80000022094B1B6803EA0102074B14331B683D
:102E90000B4013B10AB1012000E000207047024945
:102EA000143108607047000000040140FFFF0F006C
:102EB00001684FF6FE72114001600021016041601F
:102EC0008160C1608D49884208D18C4908394968C0
:102ED00041F00F01894A083A51608AE0874914316C
:102EE000884208D185490839496841F0F001834A90
:102EF000083A51607DE081492831884208D17F49F4
:102F00000839496841F470617C4A083A516070E0C0
:102F10007A493C31884208D178490839496841F4F6
:102F20007041764A083A516063E0744950318842F2
:102F300008D172490839496841F470216F4A083A4A
:102F4000516056E06D496431884208D16B490839B7
:102F5000496841F47001694A083A516049E067499B
:102F60007831884208D165490839496841F0706173
:102F7000624A083A51603CE06149884206D1011F2B
:102F8000096841F00F01021F116032E05C49143101
:102F9000884208D15A49091F096841F0F001584A8E
:102FA000121F116025E056492831884208D1544942
:102FB000091F096841F47061514A121F116018E03D
:102FC0004F493C31884208D14D49091F096841F4F5
:102FD00070414B4A121F11600BE049495031884241
:102FE00007D14749091F096841F47021444A121F5B
:102FF0001160704710B50022026847F6F0739A43DB
:103000000C6A8B6823430C6923434C6923438C6906
:103010002343CC6923434C6A23438C6A23431A43DA
:103020000260CB6843600B6883604B68C36010BD6F
:103030000021016041608160C16001614161816185
:10304000C161016241628162704721B1026842F050
:103050000102026004E002684FF6FE731A4002604B
:1030600070471AB103680B43036002E003688B43A7
:1030700003607047416070470146486880B27047FE
:1030800001460020002201F080531BB11C4B083B7D
:103090001A6802E0194B083B1A6802EA01030BB1F7
:1030A000012000E00020704700F0805119B1144960
:1030B000091F086002E0114908394860704701465D
:1030C0000020002201F080531BB10D4B083B1A6811
:1030D00002E00A4B083B1A6802EA01030BB1012027
:1030E00000E00020704700F0805119B10449091F29
:1030F000086002E001490839486070470800024052
:103100000804024010B56FF00400FEF792F92E4853
:1031100000682E49B0FBF1F02D4908700846007890
:1031200000EB4001C1EBC0104FF6FF7101EAC00097
:103130002849088010BD0146254A12784A434FF0BD
:10314000E0235A6100229A611A46126942F0010294
:103150001A6100BF4FF0E022106900F001021AB1BD
:1031600000F48032002AF5D04FF0E022126922F0FC
:1031700001024FF0E0231A6100229A617047014674
:10318000144A12884A434FF0E0235A6100229A61A0
:103190001A46126942F001021A6100BF4FF0E022A4
:1031A000106900F001021AB100F48032002AF5D053
:1031B0004FF0E022126922F001024FF0E0231A6181
:1031C00000229A61704700001400002000127A006B
:1031D0005C0000205E000020014600BF704700BF79
:1031E0004B4A128802F04002002AF9D0C2B2484B82
:1031F0001B1D1A80704710B586B00446012144F2A9
:103200000400FEF751FC4248FEF7B2FC4FF4007098
:10321000ADF8140003208DF8160018208DF8170063
:1032200005A93C48FEF784F94FF48060ADF814001E
:1032300004208DF8170005A93648FEF779F92520F6
:103240008DF8000003208DF801008DF802000120A8
:103250008DF803006846FEF7A2F801940020ADF84F
:103260000800ADF80A00ADF80C00ADF810000C2015
:10327000ADF80E0001A92648FEF7BDFC012240F280
:1032800025512348FEF74FFD01212148FEF73FFD60
:1032900006B010BD10B540F225511D48FEF728FEBE
:1032A00010B31B48FEF7A4FDC4B21B48008800F40D
:1032B0000040C8B91848008800F4804060B10A2C6A
:1032C00003D000201449088020E01348008840F40F
:1032D00000401149088019E00D2C06D10E480088E5
:1032E00040F480400C49088010E00B480088C0F38F
:1032F0000D000A490C5408480088401C0649088003
:1033000008460088C72801DD0020088010BD0000A5
:10331000003801400008014064000020380100200E
:1033200070474FF0000200B5134694469646203988
:1033300022BFA0E80C50A0E80C50B1F12001BFF46E
:10334000F7AF090728BFA0E80C5048BF0CC05DF8D4
:1033500004EB890028BF40F8042B08BF704748BF22
:1033600020F8022B11F0804F18BF00F8012B704796
:103370007047704770477047754600F02BF8AE46AF
:1033800005006946534620F00700854618B020B571
:10339000FDF7EEFFBDE820404FF000064FF00007BC
:1033A0004FF000084FF0000B21F00701AC46ACE8ED
:1033B000C009ACE8C009ACE8C009ACE8C0098D465A
:1033C000704710B50446AFF300802046BDE81040BA
:1033D000FCF7F5BE004870470002002010B591EAE6
:1033E000030F48BF83F0004300F17682841A71EB2B
:1033F000030C05D2121943EB0C03001B61EB0C010B
:10340000DFF824E14FEA1154A4EB135C1EEA430FEA
:1034100018BF9EEA445F73D023EA0E03DCF1200E4E
:1034200021EA045143F4801332D322FA0CFE10EB4C
:103430000E0023FA0CFE41EB0E01CCF1200E03FA34
:103440000EFE10EB0E0051F10001B1F5801FCCF122
:10345000200E32D201EB045112FA0EF2BDE81040F8
:1034600058BF7047401C38BF5FEA420218BF704720
:10347000002814BF20F0010041F100014FEA410390
:1034800013F5001F38BF7047A1F1C04100F0D4B957
:10349000012A43EB0302ACF1200CDCF11F0E32BF1A
:1034A0004FF0000E23FA0CF310EB030041EB045134
:1034B000B4EB115FD0D0A1EB045101F580114908A4
:1034C0005FEA300001EB04510ED350F1000038BF29
:1034D00012FA0EFE08D1BDE81040C9E7401C38BF03
:1034E0005FEA4202CAD1C3E7BDE810404FEA410398
:1034F00013F5001F38BF7047A1F1C04100F09CB91F
:103500009EEA445F08D011EA5E0FBDE8104004BF98
:1035100001F0004100207047BDE8104070B500F098
:103520003DF900BF64FBBE3E0000E0FF491058BFFC
:10353000C1F140415B1058BFC3F140438B42EFF3F0
:10354000008070474FEA41034FEA5353A3F580636D
:10355000D3F11E03C8BFD3F1210C0CDD4FF00042A4
:1035600042EAC12242EA505232FA03FC8CEAE17C80
:10357000ACEBE1707047102BC4BF0020704703F51F
:10358000787CBCF1FF3F04D06FF0004282EA21005A
:10359000704770B500F002F949922480002070470E
:1035A000F2E710F0004248BF4042B0FA80F310FA50
:1035B00003F10AD0C3F11D0303F580634FEA4150C4
:1035C00002EB035202EBD12170474FF0000070472D
:1035D00051EA030C17D41CF5801F58BFBCF5801F9F
:1035E00000F10680994218BF704708BF90427047AB
:1035F00007D711F5801F58BF13F5801F19D49942C2
:103600007047894270471CF5801F08D5BCF5801FA4
:10361000F7D58B4218BF704708BF824270474FF4FE
:10362000001C1CEB410F38BF1CEB430F01D28B4237
:10363000704770B500F0B2F8922449004FF0005185
:103640004FF08053FFF772BFDFF848C170B51CEA36
:10365000111E1EBF1CEA13159EEA0C0F95EA0C0FF3
:1036600000F06F8081EA030423EA4C134EEAD47E13
:1036700021EA4C1141F4801143F48013AE44A1FBC4
:10368000024CA0FB0365AEF17F7E361955EB0C05AD
:10369000A1FB034C4CF10003A0FB021C16EB0C0633
:1036A000654153F10003094218BF46F0010613F4C7
:1036B000007F0BD14FEA03314FEA0530340341EA72
:1036C000155140EA16506FF003020AE04FEAC32199
:1036D0004FEAC520F40241EA555140EA56506FF0D6
:1036E000020202EB2E4201EB025585EACE710AD0AE
:1036F0005FEA440C18BF24F0004450F1000041F18F
:10370000000120EAD47040F2FE7C624500D270BD18
:10371000A84214BF4FF080444FF04044002E08BF31
:103720000024BEF1806FA8BFA1F1C041BDE8704088
:1037300080F282804FF0000001F1C04101F00041B1
:1037400070479EEA0C0F0CEA131518BF95EA0C0F90
:1037500006D04FF0000081EA030E0EF0004170BD6C
:1037600000F01CF88900013E00F007B800F009B82D
:103770004FEA430C5FEA5C5C08D081EA030100F089
:103780005BB84FEA410C5FEA5C5CF6D14FF0000099
:10379000014970470000FF070000F87F0EF1020E9C
:1037A0002EF0030E5EF8046B364205D4012A43EB7B
:1037B000030515F5001F12D8012841EB010C1CF57B
:1037C000001F0CD80ED14FEAD17C15F5001F0CEB71
:1037D0004C0C0CF1020C08BF4CEBD37C04E04FF016
:1037E000080C01E04FEAD37C0CEB4C0526FA05F6F9
:1037F00006F00706B6F1040C06D20EEB860CBDE807
:1038000070404CF0010C6047DFE80CF0090B02023D
:103810004FF000414FF00000A1F5002170BD1946A6
:103820001046012851EB010418BFD4F5001484BFE1
:10383000002001F0004170BD0808A0F500114FEA1A
:103840003101704753EA010C17D41CF5801F58BF93
:10385000BCF5801F00F106808B4218BF704708BF7F
:103860008242704707D713F5801F58BF11F5801F9C
:1038700019D48B4270479B4270471CF5801F08D5B6
:10388000BCF5801FF7D5994218BF704708BF90421A
:1038900070474FF4001C1CEB430F38BF1CEB410F6B
:1038A00001D2994270470FB40CBC03BCFFF7C1BEF4
:1038B00091EA030F10B581F000413FF597AD83F019
:1038C000004300F009B8000010B591EA030F48BFAB
:1038D00083F000433FF58AAD841A71EB030C07D2E5
:1038E00012198CF0004C43EB0C03001B61EB0C0134
:1038F000DFF8A4E14FEA1154A4EB135C1EEA430F76
:1039000018BF9EEA445F00F0B08023EA6E03524283
:1039100021EA0451C3EB6E0338BF5B1EDCF1200EBD
:1039200025D322FA0CFE10EB0E0043FA0CFE41EBFD
:103930000E01CCF1200E03FA0EFE10EB0E0051F139
:103940000001CCF1200E29D412FA0EF201EB045141
:10395000BDE8104058BF7047401C1CBFB2F1004F7B
:10396000704700280CBF491C20F00100704712EB83
:10397000020E43EB030218BF4FF0010E4EEA420263
:10398000ACF1200CDCF11E0E54D943FA0CFE10EB06
:103990000E0051F1FF31CCF11E0ED5D50EF1010E06
:1039A00012FA0EFE404141EB010101EB445C5FEA7B
:1039B0005C5C10D910EBDE7001EB045138BFBEF136
:1039C000004FBDE8104018BF704700280CBF491CCD
:1039D00020F00100704730D24FEAD42C11F50011CD
:1039E00024F400641BD0B1FA81F20B3AA41AA41E8D
:1039F000D2F12003914030FA03F31943904001EBD8
:103A0000CC71002C01EB0451BDE81040A8BF7047F9
:103A100001F1C0414FF0000001F000417047B0FAE1
:103A200080F310FA03F100D110BDE41A173C4805E9
:103A3000C90AE4E701EB045110BD491001EB045140
:103A4000BDE810404FEA300002E04FF0000170473F
:103A50004A0008BF0042F8D0B2F5001F28BF7047E7
:103A600001F000414FF0000070479EEA445F07D02C
:103A700011EA5E0FBDE8104004BF0021002070472E
:103A8000BDE8104070B5FFF789FE00BF40DFF63E8D
:103A900083F00041104670470000E0FF43004FEA0A
:103AA000D30C4FEA3C0C43401FBF40070CF1605160
:103AB00013F0FE4F70471CF0006F03D100200CF094
:103AC000004170470CF0004343EA507010B540EAE3
:103AD000CC0000F0E0F900BF000000924FEA0001C6
:103AE000FFF7AABE4FF000414FF00000A1F5002102
:103AF0007047000090EA010F48BF81F0004100F1DB
:103B00001C82421A3CBF801A89184FEAD0524FF0EB
:103B10007F4C1CEA410FA2EBD15318BF9CEA026F05
:103B200000F03B804FF0004C4CEA00204CEA0121B1
:103B300021FA03FC10EB0C0C1ED202F1FF325FEAFB
:103B40001C2040EBC25038BF70471CF07F0F4FEA7B
:103B5000400C18BFBCF17F4F38BF7047C3F1200342
:103B6000994008BF20F00100BCF17F4F38BF70477B
:103B7000A0F1C04000F0D5B94FEA3C00000A40EB8C
:103B8000C25028BF1CF0FF0F4FEA400CE6D018BF10
:103B9000BCF17F4F38BF7047EAE79CEA026F05D05F
:103BA00010EA5C0F08BF00F00040704710B500F04D
:103BB00072F900BF64FBBE3E4FF47F0C1CEAD012CA
:103BC0001EBF1CEAD11392EA0C0F93EA0C0F00F00F
:103BD000858090EA010F48BF42F4807240F4000CE7
:103BE00041F400002CF07F4120F07F4000B581427D
:103BF000A2EB03020FF2081CACEB504EC0F1000028
:103C00009EF800E04FEA4E0E00FB0EFC38BF490064
:103C10004FEA2C1C02F5FA020CFB0EF34FEACE1E03
:103C20004FEA112C4FEAC1210EEB635E42EB2242B8
:103C30000EFB0CFC4FEA1C5300FB03114FEA112C46
:103C40004FEA01310EFB0CFC4FEADC4C00FB0C117F
:103C5000C14228BF09184CEB03335DF804EB10EBAD
:103C6000410143EBC250B2F57C0F38BF704729D5F4
:103C700012F0F00F1CBF00F1C04000F00040704790
:103C8000008182838485868788898B8C8D8E8F9135
:103C90009293959697999A9C9D9FA0A2A3A5A7A859
:103CA000AAACAEB0B2B3B5B7B9BCBEC0C2C5C7C985
:103CB000CCCED1D4D7D9DCDFE2E6E9ECF0F3F7FAE9
:103CC000FE0000004FEA400C0CF1807CBCF17E4FFE
:103CD00028BF7047B0F1C04000F023B990EA010F4F
:103CE0000CEAD11348BF42F48072624538BF634585
:103CF00007D213F47F0F16D080EA010000F00040D5
:103D0000704710B500F0C7F8097EFC3E00F005B81A
:103D100080EA010000F00040704780EA010000F0F6
:103D2000004000F0FEB812F47F0F04BF0248704755
:103D300080EA010000F0F5B80000C07F10F00041FB
:103D400048BF4042B0FA80F310FA03F2C3F19D037A
:103D50000BD051EAC35101EB1220530638BF704714
:103D600000F1010008BF20F001007047B0FA80F3B5
:103D700010FA03F2C3F19D030AD0D90501EB12201A
:103D8000530638BF704700F1010008BF20F0010062
:103D9000704700004FF47F0C1CEAD0121EBF1CEAD3
:103DA000D11392EA0C0F93EA0C0F00F0478090EACF
:103DB000010F48BF42F480724FF0004C4CEA0020E3
:103DC0004CEA012102EB0302A0FB0113A2F5000261
:103DD000002918BF43F001035B0028BF4FEA3303FB
:103DE00042EB22425FEA132C4CEBC2502EBFBCEBDD
:103DF000436FB2F57C0F70474FEA036CBCF1004F84
:103E000008BF20F00100B2F57C0F38BF70470BD51A
:103E100082F0FF0212F5803FC8BF704700F1C0403A
:103E2000D8BF00F00040704700F5000C5FEA4C0C72
:103E300048BF7047B0F1C04000F073B890EA010F7E
:103E40000CEAD11348BF42F48072624538BF634523
:103E500004D280EA010000F00040704710B500F085
:103E60001AF800BF8900013E00F007B800F009B859
:103E70005FEA410C5FEA1C6C08D080EA010000F0A8
:103E800050B85FEA400C5FEA1C6CF6D14FF000407E
:103E9000A0F5800070470EF1020E2EF0030E5EF8C2
:103EA000044B244204D44FEA4102B2F17F4F11D8AF
:103EB0004FEA4003B3F17F4F0CD80ED14FEAD07CCC
:103EC000B2F17F4F0CEB4C0C0CF1020C08BF4CEB29
:103ED000D17C04E04FF0080C01E04FEAD17C0CEB00
:103EE0004C0324FA03F404F00704B4F1040C06D2E2
:103EF0000EEB840CBDE810404CF0010C6047DFE88D
:103F00000CF0070802024FF00040A0F5800010BD41
:103F10000846420018BFD2F1807288BF00F000400E
:103F200010BDFF2141EAD050C005704790EA010F53
:103F300048BF81F000413FF5E4AD421A04D882F059
:103F40000042A0EB020011444FEAD0524FF07F4CE8
:103F50001CEA410FA2EBD15318BF9CEA026F4AD072
:103F60004FF0004C4CEA00204CEA012121FA03FCFE
:103F7000B0EB0C0C0FD412F0FE0F36D05FEA4C0001
:103F80001DD5001240EBC25038BF70471CF03F0FE8
:103F900018BF70470BE0A2F101025FEA1C2040EB62
:103FA000C25038BF70471CF07F0F18BF7047C3F175
:103FB0002003994014BF401E20F001007047800884
:103FC0004FEA122308BF7047B0FA80FCA2EB0C0244
:103FD000CCF1280C60FA0CF093EA122F04BF00EB2E
:103FE000C25070474FEAC3707047130A5FEADC1093
:103FF00008BF7047F6E79CEA026F04D010EA5C0F36
:1040000008BF0020704710B5FFF745FF40DFF63EC0
:1040100081F0004070470000202020202020202038
:104020002020202020202020202020202020202090
:104030002020202020202020202020202020202080
:104040002020202020202020202020202020202070
:104050002020202020202020202020202020202060
:104060002020202020202020000000008C4000087C
:1040700000000020680000006C010008F440000807
:1040800068000020F807000088010008333333334C
:104090003333B33FDC050000DC0500000000000006
:1040A00000A24A0400000000000000000102030416
:1040B00006070809000000000000000000000000E2
:1040C00000000000000000000000000000000000F0
:1040D00000000000000000000102030401020304CC
:1040E000060708090204060800000000000000009E
:0440F00000000000CC
:0400000508000131BD
:00000001FF
