:020000040800F2
:1000000088120020AD0E0008A10200089D310008F2
:10001000A3020008A7020008AB02000800000000CD
:10002000000000000000000000000000AF02000817
:10003000B10200080000000027310008034C00084E
:10004000C70E0008C70E0008C70E0008C70E00083C
:10005000C70E0008C70E0008C70E0008C70E00082C
:10006000C70E0008C70E0008C70E0008C70E00081C
:10007000C70E00087B0E0008C70E0008170D000809
:10008000C70E0008C70E0008C70E0008C70E0008FC
:10009000C70E0008C70E0008C70E0008C70E0008EC
:1000A000C70E0008C70E0008C70E0008C70E0008DC
:1000B000C70E0008C70E0008CB050008C70E0008D1
:1000C000C70E0008C70E0008C70E0008C70E0008BC
:1000D000C70E0008630B0008C70E0008C70E000813
:1000E000C70E0008C70E0008C70E0008C70E00089C
:1000F000C70E0008C70E0008C70E0008C70E00088C
:10010000C70E0008C70E0008C70E0008C70E00087B
:10011000C70E0008C70E0008C1070008C70E000878
:10012000C70E0008C70E0008C70E0008C70E00085B
:1001300000F002F800F03AF80AA090E8000C8244BF
:100140008344AAF10107DA4501D100F02FF8AFF29C
:10015000090EBAE80F0013F0010F18BFFB1A43F0A5
:1001600001031847C8520000E8520000103A24BFAB
:1001700078C878C1FAD8520724BF30C830C144BF0C
:1001800004680C607047000000230024002500264E
:10019000103A28BF78C1FBD8520728BF30C148BFEA
:1001A0000B6070471FB51FBD10B510BD04F041FDB9
:1001B0001146FFF7F7FF03F0C7F904F05FFD03B442
:1001C000FFF7F2FF03BC00F071FC00000EE000201E
:1001D000274908604FF47A7004F000FB012025499C
:1001E000C1F880014FF47A7004F0F8FAEFE70FE0FD
:1001F00000201F49091D08604FF4FA7004F0EEFA60
:1002000001201C49C1F884014FF4FA7004F0E6FAA9
:10021000EEE71FB500F03EF900F096FD00F00FFB91
:1002200000F0D0FB142003214FF48062124BCDE983
:100230000032CDE902100023104A11A1124804F047
:10024000F7F9114804F02DFA142002214A020F4B4D
:10025000CDE90032CDE9021000230D4A0DA10F486F
:1002600004F0E6F90D4804F01CFA002004B010BDBB
:10027000800122420000224218020020CD01000825
:100280006C65643000000000280100201806002082
:10029000EF0100086C65643100000000A00100203F
:1002A000704700BFFEE700BFFEE700BFFEE77047F4
:1002B000704700000CB50020019000906C48006869
:1002C00040F480306A49086000BF6948006800F463
:1002D000003000900198401C0190009818B90198D6
:1002E000B0F5A06FF1D16248006800F4003010B1A1
:1002F0000120009001E0002000900098012843D1E7
:100300005C48006840F010005A49086008460068E0
:1003100020F0030008600846006840F00200086012
:10032000534840685249486008464068486008465B
:10033000406840F4806048600846406820F47C10C3
:1003400048600846406840F4E81048600846006885
:1003500040F08070086000BF4548006800F0007001
:100360000028F9D04248406820F003004049486026
:100370000846406840F00200486000BF3C484068C2
:1003800000F00C000828F9D10CBD10B5FFF792FF62
:1003900010BD10B53648006840F0010034490860CF
:1003A00008464068344908403149486008460068BA
:1003B000324908402E4908600846006820F4802031
:1003C00008600846406820F4FE0048604FF41F00B3
:1003D0008860FFF7DAFF4FF000602949086010BD20
:1003E00010B5002100200022214B5B6803F00C01B6
:1003F00021B1042906D0082928D107E0214B224C3D
:10040000236027E01F4B204C236023E0184B5B68E0
:1004100003F47010164B5B6803F48032022303EB85
:10042000904022B9194B4343174C23600DE0104B09
:100430005B6803F4003323B1144B4343124C236035
:1004400003E0104B4343104C236003E00D4B0E4C74
:10045000236000BF00BF064B5B68C3F303130C4C63
:10046000E15C094B1B68CB40074C236010BD0000CA
:1004700000100240002002400000FFF8FFFFF6FEDF
:1004800008ED00E000127A000000002000093D00A5
:100490000400002008B50121102001F0AFF803206E
:1004A000ADF8000010208DF8030003208DF8020045
:1004B0006946044800F0E6FD0121024800F08FFE85
:1004C00008BD00000010014000B589B04FF4006085
:1004D000E04908800121042001F09DF80121082055
:1004E00001F08CF8C020ADF8080003208DF80A0058
:1004F00004208DF80B0002A9D74800F0C3FDD748AF
:1005000001F0E4FA06A801F0E1FE0020ADF81800C1
:10051000D0480088401E80B2ADF81C000020ADF825
:100520001E00ADF81A0006A9CC4801F0A3FB002379
:100530001A460321C94801F0ACFF03A801F0D9FE17
:100540000020ADF8140003A9C44801F026FE0121E3
:10055000C24802F0B1F901221146C04801F001FF82
:100560000020BE49243108800121BC4801F0DEFE94
:100570001E208DF8040002208DF8050001208DF862
:1005800006008DF8070001A800F0B3FC09B000BD1B
:1005900008B50121042001F031F81020ADF8000069
:1005A0008DF8030003208DF802006946AC4800F086
:1005B00069FD1021AA4800F012FE08BD014600297D
:1005C00001DA484270470846FCE710B50121A3480C
:1005D00002F086F9A148008800F0100030B9A14867
:1005E0000088401C00B29F49088005E09D480088B3
:1005F000401E00B29B49088010BD9B490968898C48
:10060000984AB2F90020934B1B8802FB03107047F5
:100610002DE9F04786B0FFF7F0FFC5170446934871
:100620000068B4EB0008B8F5FA6F64DA18F5FA6FF1
:1006300061DD8E4830C00838D0E900108B4BD3E91B
:100640000223891A60EB0300884AC2E9041040467D
:10065000FFF7B4FF404527D18449886A04F0D0FBF6
:1006600081468A464046FFF7A9FF064604F0C8FBCC
:10067000CDE900017D48D0E906633246009804F0D8
:1006800013FC4A465346CDE9020104F00DFCCDE9C6
:1006900004017648D0E90C633246049804F0FCFA71
:1006A000724AC2E90C0126E07049886A04F0A8FB8E
:1006B00081468A464046FFF781FF064604F0A0FBCC
:1006C000CDE900016948D0E908633246009804F09A
:1006D000EBFB4A465346CDE9020104F0E5FBCDE9C8
:1006E00004016248D0E90C633246049804F010FD1E
:1006F0005E4AC2E90C015D49D1E90C6100225C4B04
:10070000304604F0CFFC0AD85849D1E90C610022E8
:10071000574B304604F008FD544AC2E90C015349D6
:10072000D1E90C6100221346304604F081FB0AD265
:100730004E4800224E4BD0E90C61304604F0ACFA32
:100740004A4AC2E90C0106B0BDE8F0870021474AD9
:10075000116351631046D0E90010C2E90210002174
:100760001161516170471FB50121102000F053FF46
:1007700040F2E730ADF808004720ADF80400002053
:10078000ADF80A00ADF8060001A93A4801F072FA86
:1007900001221146374801F0E4FD36208DF80000B3
:1007A00002208DF801008DF8020001208DF8030071
:1007B000684600F09EFB01212E4801F0B7FD1FBDE9
:1007C00010B501212B4802F07AF828B101212948FF
:1007D00002F086F8FFF71CFF10BD10B500F0A0FD79
:1007E0004FF4803000F0BCFD00F0F9FD0446012C10
:1007F00024D1102002F0B6F9022002F09FF9002067
:1008000000F033FE002000F042FE002000F036FE33
:100810004FF4E011200400F00BFE012000F014FE64
:1008200000BF392000F0BFFD0028FAD0022000F000
:100830000EFE00BF00F014FE0828FBD110BD10B55D
:10084000FFF7CBFFFFF740FEFFF780FFFFF78BFFBF
:1008500010BD000020000020000C014000080040F6
:1008600000080140180000201C0000202800002083
:100870000088B3400010004008B50121042000F0BA
:10088000BDFE0320ADF8000018208DF80300032002
:100890008DF8020069464E4800F0F4FB03214C48F5
:1008A00000F09FFC08BD00B587B00121084600F0AC
:1008B000B2FE40F2E730ADF814004720ADF810006A
:1008C0000020ADF81600ADF8120004A94FF08040EA
:1008D00001F0D0F96020ADF800000020ADF808006C
:1008E0000120ADF802000020ADF8060069464FF087
:1008F000804001F0FCF90821C80601F047FE012004
:10090000ADF802000020ADF8060069464FF08040C7
:1009100001F02FFA0821C80601F041FE01218807E5
:1009200001F004FE0121880701F000FD07B000BDC1
:1009300070B504460D4627480078A04218D12CB95E
:10094000A9B24FF0804001F089FF3AE0012C04D1B8
:10095000A9B2A00701F084FF33E000214FF08040EE
:1009600001F07CFF00214FF0804001F079FF28E08A
:10097000184804706CB900214FF0804001F070FFFE
:10098000012000F066F8A9B24FF0804001F066FF48
:1009900017E0012C0BD10021A00701F05FFF01201F
:1009A00000F057F8A9B2A00701F058FF09E00021B4
:1009B0004FF0804001F052FF00214FF0804001F0E5
:1009C0004FFF70BD10B5FFF757FFFFF76CFF10BD6D
:1009D000000801406000002010B56FF0040000F036
:1009E000D2FA2E4800682E49B0FBF1F02D4908706C
:1009F0000846007800EB4001C1EBC0104FF6FF71D4
:100A000001EAC0002849088010BD0146254A127835
:100A10004A434FF0E0235A6100229A611A46126954
:100A200042F001021A6100BF4FF0E022106900F0AD
:100A300001021AB100F48032002AF5D04FF0E02212
:100A4000126922F001024FF0E0231A6100229A613C
:100A500070470146144A12884A434FF0E0235A6116
:100A600000229A611A46126942F001021A6100BF1F
:100A70004FF0E022106900F001021AB100F4803258
:100A8000002AF5D04FF0E022126922F001024FF067
:100A9000E0231A6100229A617047000000000020E4
:100AA00000127A006200002064000020014600BFAE
:100AB000704700BF494A128802F04002002AF9D06C
:100AC000C2B2464B1B1D1A80704710B586B0044653
:100AD000012144F2040000F091FD4FF40070ADF8E4
:100AE000140003208DF8160018208DF8170005A9B2
:100AF0003B4800F0C7FA4FF48060ADF814000420C2
:100B00008DF8170005A9364800F0BCFA25208DF8AD
:100B1000000003208DF801008DF8020001208DF8FF
:100B20000300684600F0E5F901940020ADF80800E4
:100B3000ADF80A00ADF80C00ADF810000C20ADF8CF
:100B40000E0001A9254800F000FE012240F22551C7
:100B5000224800F092FE0121204800F082FE06B0FB
:100B600010BD10B540F225511C4800F06BFF10B3CA
:100B70001A4800F0E7FEC4B21A48008800F40040AA
:100B8000C8B91848008800F4804060B10A2C03D02E
:100B900000201449088020E01248008840F40040FA
:100BA0001049088019E00D2C06D10E48008840F449
:100BB00080400C49088010E00A480088C0F30D000E
:100BC00009490C5407480088401C0649088008461B
:100BD0000088C72801DD0020088010BD00380140D2
:100BE000000801406C000020180A002000B591B0F8
:100BF000012144F2050000F001FD0121084600F04A
:100C0000F0FC4FF40070ADF8400003208DF8420076
:100C100018208DF8430010A9464800F033FA4FF42D
:100C20008060ADF8400048208DF8430010A941488D
:100C300000F028FA0F208DF8000002208DF8010046
:100C400000208DF8020001208DF80300684600F0B6
:100C500050F9394801F048FE384805903848069068
:100C6000002007900A2008900020099080200A9018
:100C700000200B900C9020200D9000020E90002080
:100C80000F9005A92C4801F0D1FE4FF4E1300190FE
:100C90000020ADF80800ADF80A00ADF80C00ADF882
:100CA00010000C20ADF80E0001A92448001F00F030
:100CB0004CFD012240212148001F00F003FE0122CB
:100CC00002211D4801F0E9FE01211B4801F0D9FE77
:100CD00001211A48001F00F0C4FD11B000BD10B57D
:100CE000044621461548001F00F028FE00BF802161
:100CF0001248001F00F090FE0028F8D010BD70B51B
:100D000005460E46002403E0285DFFF7E8FF641C5B
:100D1000B442F9DB70BD10B54FF4803001F0EBFE4A
:100D200038B14FF4803001F0FAFE08210548FFF792
:100D3000E6FF10BD000801405800024004380140A1
:100D4000E00A00206E00002000B591B00121880467
:100D500000F061FC0121092000F050FC012108464F
:100D600000F03FFC4FF48060ADF8400003208DF8A8
:100D7000420018208DF8430010A9474800F082F97E
:100D80004FF40060ADF8400048208DF8430010A9F2
:100D9000414800F077F90D208DF8000001208DF812
:100DA000010000208DF8020001208DF80300684644
:100DB00000F09FF8394801F097FD3948059039480F
:100DC0000690002007900A200890002009908020BB
:100DD0000A9000200B900C9020200D904FF4405072
:100DE0000E9000200F9005A92C4801F01FFE4FF433
:100DF000E13001900020ADF80800ADF80A00ADF830
:100E00000C00ADF810000C20ADF80E0001A924482C
:100E1000001F00F09AFC012240212148001F00F031
:100E200051FD012202211D4801F037FE01211B481E
:100E300001F027FE01211A48001F00F012FD11B039
:100E400000BD10B5044621461548001F00F076FD90
:100E500000BF80211248001F00F0DEFD0028F8D0FE
:100E600010BD70B505460E46002403E0285DFFF76F
:100E7000E8FF641CB442F9DB70BD10B54FF480701C
:100E800001F039FE38B14FF4807001F048FE0821BE
:100E90000548FFF7E6FF10BD000C0140300002409E
:100EA00004480040EA0A00207600002009488047F4
:100EB00009480047FEE7FEE7FEE7FEE7FEE7FEE73C
:100EC000FEE7FEE7FEE7FEE704480549034A054B57
:100ED000704700009303000831010008880E0020CD
:100EE00088120020880E002031490143314A1160E8
:100EF000704770B5002100230F22C47804B32D4C35
:100F0000246804F4E064C4F5E064210AC1F1040338
:100F1000CA40447804FA03F184781440214309015B
:100F2000254C0678A155047804F01F050124AC4037
:100F300005786D11AD0005F1E025C5F8004109E027
:100F4000047804F01F050124AC401C4D067876118E
:100F500045F8264070BD1A4A0A400243154B1B1F34
:100F60001A60704739B1134A121D12680243114BBF
:100F70001B1D1A6006E00F4A121D126882430D4BBA
:100F80001B1D1A607047042808D14FF0E021096941
:100F900041F004014FF0E022116107E04FF0E02141
:100FA000096921F004014FF0E0221161704700004F
:100FB0000000FA050CED00E000E400E080E100E054
:100FC00080FFFF1F10B50446CC48844208D10121A0
:100FD000042000F02DFB0021042000F029FB46E056
:100FE000C748844208D10121082000F021FB0021DC
:100FF000082000F01DFB3AE0C248844208D10121DC
:10100000102000F015FB0021102000F011FB2EE055
:10101000BD48844208D10121202000F009FB0021B5
:10102000202000F005FB22E0B848844208D10121CD
:10103000402000F0FDFA0021402000F0F9FA16E00F
:10104000B348844208D10121802000F0F1FA002148
:10105000802000F0EDFA0AE0AE48844207D1012179
:10106000801500F0E5FA0021A01500F0E1FA10BDAE
:1010700010B50121084600F0DBFA0021012000F044
:10108000D7FA10BD2DE9F0410246002500260020C8
:1010900000230024002791F803C00CF00F0591F8FD
:1010A00003C00CF0100CBCF1000F03D091F802C08B
:1010B0004CEA050591F800C0BCF1000F31D014686E
:1010C00000202BE04FF0010C0CFA00F3B1F800C047
:1010D0000CEA03069E4220D183004FF00F0C0CFA5D
:1010E00003F7BC4305FA03FC4CEA040491F803C07F
:1010F000BCF1280F06D14FF0010C0CFA00FCC2F82D
:1011000014C00AE091F803C0BCF1480F05D14FF0BC
:10111000010C0CFA00FCC2F810C0401C0828D1D306
:101120001460B1F800C0BCF1FF0F34DD546800203A
:101130002EE000F1080C4FF0010808FA0CF3B1F8AA
:1011400000C00CEA03069E4221D183004FF00F0C31
:101150000CFA03F7BC4305FA03FC4CEA040491F8CB
:1011600003C0BCF1280F05D100F1080C08FA0CF8F7
:10117000C2F8148091F803C0BCF1480F07D100F108
:10118000080C4FF0010808FA0CF8C2F81080401C57
:101190000828CED35460BDE8F0814FF6FF7101807E
:1011A000022181700421C1707047024600209368BB
:1011B0000B400BB1012000E0002070470146886819
:1011C00080B2704702460020D3680B400BB101206B
:1011D00000E0002070470146C86880B27047016196
:1011E0007047416170470AB1016100E04161704799
:1011F000C16070474FF480320A438261816182612D
:1012000082698269704702460020434B18684FF696
:101210008073184040EA021008433F4B1860704743
:101220003E49C8617047F0B50A46002300240021FA
:10123000002500F00046B6F1004F02D1364EF169AC
:1012400001E0354E7168C0F3034583B200F44016E7
:10125000B6F5401F08D121F070612F4E766826F058
:1012600070662D4F7E6012E000F48016B6F5801F88
:1012700006D1032606FA05F4A14341F0706106E0A9
:10128000460D360103FA06F6B14341F0706122B112
:10129000460D360103FA06F6314300F00046B6F17A
:1012A000004F02D11C4EF16101E01B4E7160F0BD98
:1012B00030B500228B071C0F0F2303FA04F2164BE4
:1012C00008338C1053F824309343134C08348D109A
:1012D00044F8253023468C1053F824308C07240F13
:1012E00000FA04F423430C4C08348D1044F82530E4
:1012F00030BD0A49DC310860704700000008014039
:10130000000C014000100140001401400018014091
:10131000001C01400020014000000140000020426C
:10132000DF48006840F00100DD4908600846406879
:10133000DC490840DA49486008460068DA49084054
:10134000D74908600846006820F4802008600846F5
:10135000406820F4FE0048604FF41F00886070472A
:10136000CF49096821F48031CD4A116011460968DE
:1013700021F480211160B0F5803F03D0B0F5802FBB
:101380000ED106E0C649096841F48031C44A1160B3
:1013900007E0C349096841F4A021C14A116000E097
:1013A00000BF00BF704710B5014600220023002097
:1013B0004A11012A02D1BA4C236806E0022A02D15E
:1013C000B74C236A01E0B64C636A01F01F020124A6
:1013D00094401C400CB1012000E0002010BD38B545
:1013E000002000900024002500BF3120FFF7DBFF24
:1013F00005460098401C00900098B0F5A06F01D001
:10140000002DF2D03120FFF7CEFF08B1012400E01B
:101410000024204638BD01460020A14A106820F073
:10142000F80040EAC10010607047A04908607047AA
:10143000024600209A4B586820F47C1042EA0103CF
:101440001843974B586070479849086670470146A3
:101450000020934A506820F0030008435060704712
:101460008F48406800F00C007047014600208C4A0D
:10147000506820F0F000084350607047014600209B
:10148000874A506820F4E060084350607047014686
:101490000020834A506820F4605040EAC100506048
:1014A000704729B17E4A527A02437D4B5A7204E05A
:1014B0007B4A527A82437A4B5A7270477B49D831C1
:1014C0000860704701460020754A506820F440408B
:1014D0000843506070470021714A20321170704AF1
:1014E00082F82010012802D004280AD104E001214A
:1014F0006B4A2032117005E00521694A20321170D3
:1015000000E000BF00BF7047694908607047644948
:10151000096A0143624A11627047654944390860AB
:10152000704730B500210022002400235C4D6D6817
:1015300005F00C0121B1042905D0082923D105E0CB
:101540005C4D056022E05B4D05601FE0544D6D6809
:1015500005F47012524D6D6805F48034022505EBD8
:1015600092421CB9544D554305600BE04C4D6D68DB
:1015700005F400351DB1504D5543056002E04D4D59
:101580005543056002E04B4D056000BF00BF444D70
:101590006D6805F0F0010909484D6B5C0568DD4098
:1015A00045603F4D6D6805F4E061090A434D6B5C91
:1015B0004568DD4085603A4D6D6805F46051C90AA3
:1015C0003E4D6B5C4568DD40C560354D6D6805F48A
:1015D0004041890B3A4D6B5CC568B5FBF3F505617D
:1015E00030BD29B12E4A526902432D4B5A6104E0A5
:1015F0002B4A526982432A4B5A61704729B1284AC3
:1016000092690243264B9A6104E0254A926982431B
:10161000234B9A61704729B1214AD2690243204B7A
:10162000DA6104E01E4AD26982431D4BDA617047D9
:1016300029B11B4AD2680243194BDA6004E0184A08
:10164000D2688243164BDA60704729B1144A126996
:101650000243134B1A6104E0114A12698243104B92
:101660001A61704712494039086070470F49C864D1
:1016700070470B49C87170470948406A40F0807054
:1016800007494862704701460020054A92680A40AF
:101690000AB1012000E000207047014988727047BC
:1016A000001002400000FFF8FFFFF6FE000042427B
:1016B0008004424200127A0000093D007E000020B2
:1016C0008E00002010B50446FB48844209D1012158
:1016D0008803FFF7ADFF00214FF48040FFF7A8FF1C
:1016E00032E0F648844209D101214804FFF7ADFFFA
:1016F00000214FF40030FFF7A8FF25E0F0488442B6
:1017000009D101218804FFF7A0FF00214FF48020B8
:10171000FFF79BFF18E0EB48844209D10121C80480
:10172000FFF793FF00214FF40020FFF78EFF0BE03F
:10173000E548844208D101210805FFF786FF002112
:101740004FF48010FFF781FF10BD2DE9F04786B000
:1017500005460E460024A24600BFA1460027B089D8
:1017600000B100BF2F462C8A4CF6FF700440F08871
:1017700004432C82AC894EF6F3100440B0883189C2
:101780000843718908430443AC81AC8A4FF6FF409B
:101790000440B0890443AC8201A8FFF7C2FEC648EA
:1017A000874202D1DDF810A001E0DDF80CA0A88985
:1017B00000F4004040B10AEBCA0000EB0A103168A7
:1017C0004900B0FBF1F807E00AEBCA0000EB0A1091
:1017D00031688900B0FBF1F86420B8FBF0F0040137
:1017E0002009642101FB1089A88900F4004040B160
:1017F000322000EBC900B0FBF1F000F00700044319
:1018000008E0322000EB09106421B0FBF1F000F099
:101810000F0004432C8106B0BDE8F0874FF4165149
:10182000016000218180C18001810C214181002162
:101830008181704710B502460020108A4FF2FF03E5
:1018400018400B884C8823438C882343CC8823433F
:101850001843108210BD0021018041808180C18029
:10186000704721B1828942F40052828104E082896A
:101870004DF6FF731A4082817047F0B5034600248D
:1018800000260025002040F66A17B94200D100BFAB
:101890001846C1F3421401F01F06012707FA06F5A6
:1018A000012C01D10C3004E0022C01D1103000E0F9
:1018B00014301AB107682F43076002E00768AF438E
:1018C0000760F0BD1AB1838A0B43838202E0838AEA
:1018D0008B4383827047028A4FF6F0731A4002826C
:1018E000028A0A430282704782894FF2FF731A40CC
:1018F000828182890A438281704721B1828942F0C4
:101900000202828104E082894FF6FD731A408281CF
:101910007047028A4FF6DF731A400282028A0A4336
:101920000282704721B1028A42F48042028204E0BE
:10193000028A4BF6FF731A4002827047C1F3080215
:101940008280704701468888C0F30800704781890B
:1019500041F0010181817047028BD2B20283028B78
:1019600042EA012202837047028B02F47F42028323
:10197000028B0A430283704721B1828A42F020021F
:10198000828204E0828A4FF6DF731A4082827047B7
:1019900021B1828A42F01002828204E0828A4FF6EC
:1019A000EF731A408282704721B1828A42F00802A6
:1019B000828204E0828A4FF6F7731A40828270476F
:1019C00021B1828942F40042828103E08289C2F31C
:1019D0000E028281704721B1828A42F400628282C3
:1019E00004E0828A4FF2FF731A4082827047828A33
:1019F0004FF6FB731A408282828A0A4382827047C2
:101A000021B1828A42F00202828204E0828A4FF689
:101A1000FD731A408282704702460020B1F5007FB4
:101A200000D100BF13880B400BB1012000E0002063
:101A3000704701F40072B2F5007F00D100BFCA43C5
:101A40000280704770B50246002400230025002064
:101A500040F66A16B14200D100BFC1F3421501F051
:101A60001F03012606FA03F3012D02D196893340A4
:101A700006E0022D02D1168A334001E0968A3340F7
:101A80000C12012606FA04F41688344013B10CB186
:101A9000012000E0002070BD10B50022002340F6B8
:101AA0006A14A14200D100BF0A1201249440A3B2DB
:101AB000DC43048010BD00000038014000440040B9
:101AC00000480040004C00400050004010B5044663
:101AD000FE48844208D10121C014FFF7A9FD00216E
:101AE000E014FFF7A5FDC4E0B4F1804F08D1012157
:101AF0000846FFF7AAFD00210120FFF7A6FDB8E088
:101B0000F348844208D101210220FFF79EFD002105
:101B10000220FFF79AFDACE0EE48844208D1012193
:101B20000420FFF792FD00210420FFF78EFDA0E0C6
:101B3000E948844208D101210820FFF786FD0021F1
:101B40000820FFF782FD94E0E448844208D1012197
:101B50001020FFF77AFD00211020FFF776FD88E0C6
:101B6000DF48844208D101212020FFF76EFD0021CB
:101B70002020FFF76AFD7CE0DA48844208D1012189
:101B80004014FFF755FD00216014FFF751FD70E090
:101B9000D548844209D10121C804FFF749FD00213D
:101BA0004FF40020FFF744FD63E0D048844209D1A0
:101BB00001210805FFF73CFD00214FF48010FFF7DD
:101BC00037FD56E0CA48844209D101214805FFF794
:101BD0002FFD00214FF40010FFF72AFD49E0C54812
:101BE000844208D101214020FFF72FFD0021402031
:101BF000FFF72BFD3DE0C048844208D10121802041
:101C0000FFF723FD00218020FFF71FFD31E0BB48D7
:101C1000844208D101218015FFF717FD0021A0158E
:101C2000FFF713FD25E0B648844209D101210804DD
:101C3000FFF7FEFC00214FF48030FFF7F9FC18E0BD
:101C4000B048844209D101214804FFF7F1FC00218A
:101C50004FF40030FFF7ECFC0BE0AB48844208D1B6
:101C600001218804FFF7E4FC00214FF48020FFF7F6
:101C7000DFFC10BD00220288944B98420ED0994B95
:101C800098420BD0B0F1804F08D0914B984205D0CC
:101C9000904B984202D0904B984204D14FF68F73EC
:101CA0001A404B881A438D4B984207D08C4B984270
:101CB00004D04FF6FF431A40CB881A4302808B882A
:101CC00083850B880385814B98420BD0854B9842C6
:101CD00008D08B4B984205D08A4B984202D08A4B51
:101CE000984201D10B7A038601238382704770B535
:101CF000002400220023058C4FF6FE763540058433
:101D0000028C8388048B4FF68F752C40B51E2C40B7
:101D10000D882C43751E2A400D892A434D882A437D
:101D20006A4DA8420BD06F4DA84208D0744DA8420E
:101D300005D0744DA84202D0734DA84213D14FF67E
:101D4000F7752A404D892A434FF6FB752A408D8846
:101D50002A434FF6FF652B404FF6FF552B408D89E8
:101D60002B43CD892B4383800483CD8885860284D1
:101D700070BD70B5002400220023058C4FF6EF766D
:101D800035400584028C8388048B48F6FF752C400F
:101D90004FF6FF452C400D884FF6FF7606EA0525E5
:101DA0002C434FF6DF752A400D8906EA05152A43B4
:101DB0004D8806EA05152A43444DA84202D0494DF4
:101DC000A8421DD14FF67F752A404D894FF6FF7608
:101DD00006EA05152A434FF6BF752A408D8806EAA4
:101DE00005152A434FF6FF352B404FF2FF752B4068
:101DF0008D8906EA85052B43CD8906EA85052B43A7
:101E000083800483CD880587028470BD70B500246B
:101E100000220023058C4FF6FF6635400584028CB6
:101E20008388848B4FF68F752C404FF6FC752C40C1
:101E30000D882C434FF6FF552A400D894FF6FF764B
:101E400006EA05252A434D8806EA05252A431F4D43
:101E5000A84202D0234DA8421DD14FF2FF752A405F
:101E60004D894FF6FF7606EA05252A434FF6FF35E2
:101E70002A408D8806EA05252A434EF6FF752B4039
:101E80004DF6FF752B408D8906EA05152B43CD894C
:101E900006EA05152B4383808483CD8885870284D9
:101EA00070BD70B5002200230024058C4EF6FF762D
:101EB00035400584038C8488828B48F6FF752A4060
:101EC0004FF6FF452A400D8820E00000002C01401D
:101ED0000004004000080040000C004000100040DA
:101EE0000014004000340140004C0140005001400B
:101EF0000054014000180040001C00400020004039
:101F00000040014000440140004801404FF6FF7688
:101F100006EA05252A434DF6FF752B400D8906EA92
:101F200005352B434D8806EA05352B43FA4DA8426B
:101F300002D0FA4DA84208D14BF6FF752C408D898E
:101F40004FF6FF7606EA85152C4384808283CD8880
:101F5000A0F84050038470BD828B4FF2FF331A40CB
:101F60008283828B4FF6FF7303EA01231A43828335
:101F70007047F0B50C461546002200210026078C5C
:101F80004EF6FF7C07EA0C070784828B018C4FF624
:101F9000FF7707EA043640F6FF473A404FF6FF77EF
:101FA00007EA05273A434FF6FF7707EA03373A4334
:101FB000D94FB8420ED0D94FB8420BD0B0F1804FB4
:101FC00008D0D74FB84205D0D64FB84202D0D64F2E
:101FD000B84206D14DF6FF77394046F48057394371
:101FE00005E047F6FF57394044F480573943828370
:101FF0000184F0BD828B4FF6F3731A408283828B8B
:102000000A4382837047F0B50C4615460022002132
:102010000026078C4FF6FF6C07EA0C070784828BBB
:10202000018C4FF6FF7707EA04264FF60C773A400B
:102030004FF6FF7707EA03172F433A43B64FB842EC
:102040000ED0B64FB8420BD0B0F1804F08D0B44F8D
:10205000B84205D0B34FB84202D0B34FB84206D110
:102060004FF6FF57394046F48077394305E04FF289
:10207000FF57394044F48077394382830184F0BDAF
:10208000028B4FF2FF331A400283028B4FF6FF732D
:1020900003EA01231A4302837047F0B50C46154644
:1020A000002200210026078C4FF6EF7C07EA0C0780
:1020B0000784028B018C4FF6FF7707EA041640F67F
:1020C000FF473A404FF6FF7707EA03373A434FF6A8
:1020D000FF7707EA05273A438F4FB8420ED08F4F5C
:1020E000B8420BD0B0F1804F08D08D4FB84205D028
:1020F0008C4FB84202D08C4FB84206D14FF6DF77F2
:10210000394046F01007394305E04FF65F77394014
:1021100044F01007394302830184F0BD028B4FF66F
:10212000F3731A400283028B0A4302837047F0B5AF
:102130000C46154600220021068C4FF6FE773E40E5
:102140000684028B018C4FF60C7632407E1C06EA28
:1021500003162E433243704EB0420ED06F4EB04243
:102160000BD0B0F1804F08D06D4EB04205D06D4E0F
:10217000B04202D06C4EB04206D14FF6FD763140EF
:1021800044F00106314305E04FF6F576314044F066
:102190000106314302830184F0BD70B505460C464B
:1021A0005D4885420ED05D4885420BD0B5F1804F29
:1021B00008D05B48854205D05A48854202D05A482B
:1021C000854200D100E000BF208850B92389A28851
:1021D00061882846FFF7ABFFE1882846FFF79EFF9E
:1021E00025E0208804280AD12389A288618828460E
:1021F000FFF753FFE1882846FFF742FF17E02088EA
:1022000008280AD12389A28861882846FFF7FBFEA7
:10221000E1882846FFF7EEFE09E02389A28861885D
:102220002846FFF7A6FEE1882846FFF795FE70BD19
:102230002DE9F04105460C4600260127608808B9C3
:10224000022600E00026A088012801D1022700E034
:1022500001272088A0B92389A28861882846FFF732
:1022600066FFE1882846FFF759FF23893A46314641
:102270002846FFF712FFE1882846FFF701FF13E029
:102280002389A28861882846FFF707FFE18828464E
:10229000FFF7F6FE23893A4631462846FFF747FF07
:1022A000E1882846FFF73AFFBDE8F0810A884B88AD
:1022B0001A438B881A43CB881A430B891A434B89DC
:1022C0001A438B891A43A0F8442070474FF6FF71D8
:1022D000818000210180C18041800172704700210E
:1022E000018041808180C180018141818181C181E2
:1022F0007047002101804180012181800021C1803F
:10230000018170470021018041808180C18001816D
:102310004181818170470000002C01400034014060
:102320000004004000080040000C004021B1028879
:1023300042F00102028004E002884FF6FE731A4068
:102340000280704731B1B0F8442042F40042A0F856
:10235000442005E0B0F84420C2F30E02A0F8442067
:1023600070471AB183890B43838102E083898B43D1
:10237000838170478182704741EA0203A0F84830A8
:1023800070471AB183890B43838102E083898B43B1
:102390008381704701894FF6F872114001817047BF
:1023A0000A46002101894FF68F73194011430181BC
:1023B000704730B504460D4629462046FFF7F0FF2A
:1023C000208940F00700208130BD2DE9F04104460E
:1023D0000D4616461F46602D06D13B46012231466A
:1023E0002046FFF75AFE05E03B46012231462046D3
:1023F000FFF79DFE29462046FFF7D2FF208940F0D7
:1024000007002081BDE8F08130B50C46002101892C
:10241000C9B24FF6FF7505EA032515432543294345
:10242000018130BD2DE9F04105460E46174698461C
:10243000002443463A4631462846FFF7E5FF2C89FB
:102440004FF6F870044044F007044FF68F700440D4
:1024500044F070042C81BDE8F081F0B504460D46CF
:1024600016461F463B46324629462046FFF7CCFF1C
:10247000208940F480402081F0BD01858282704730
:102480000A46002101884FF68F73194011430180DD
:102490007047F0B50C4615461E4600210022002369
:1024A0000189028B038C4FF6F877394021434FF6B0
:1024B000FC473A4040F201173A434FF6DD773B4084
:1024C0004FF6FF7707EA06172F433B43018102834C
:1024D0000384F0BD0A460021018B4FF68F7319402B
:1024E0001143018370470A460021018B48F6FF73B0
:1024F00019404FF6FF7303EA022319430183704723
:102500000A460021818B4FF68F7319401143818356
:1025100070470A460021818B48F6FF7319404FF639
:10252000FF7303EA022319438183704721B10288B4
:1025300042F08002028004E002884FF67F731A4066
:102540000280704721B1828842F00402828004E058
:1025500082884FF6FB731A408280704721B18288CF
:1025600042F00802828004E082884FF6F7731A4036
:102570008280704721B1828842F00102828004E0AB
:1025800082884FF6FE731A40828070470A46002107
:10259000018B4FF6F77319401143018370470A46C8
:1025A0000021018B4FF2FF7319404FF6FF7303EACE
:1025B00002231943018370470A460021818B4FF69D
:1025C000F77319401143818370470A460021818BBC
:1025D0004FF2FF7319404FF6FF7303EA02231943CA
:1025E000818370470A460021018B4FF6FB73194027
:1025F0001143018370470A460021018B4FF6FF33D8
:1026000019404FF6FF7303EA022319430183704711
:102610000A460021818B4FF6FB73194011438183D9
:1026200070470A460021818B4FF6FF3319404FF661
:10263000FF7303EA02231943818370470A4600218E
:10264000018B4FF67F7319401143018370470A468F
:102650000021018BC1F30E014FF6FF7303EA022341
:102660001943018370470A460021818B4FF67F731F
:1026700019401143818370470A460021818BC1F3C1
:102680000E014FF6FF7303EA02231943818370475B
:102690000A460021018C4FF6FD7319401143018455
:1026A00070470A460021018C4FF6F7731940114319
:1026B000018470470A460021018C4FF6DF731940F0
:1026C0004FF6FF7303EA02131943018470470A4669
:1026D0000021018C4FF67F7319404FF6FF7303EA18
:1026E00002131943018470470A460021018C4FF6FA
:1026F000FF5319404FF6FF7303EA02231943018485
:1027000070470A460021018C4FF2FF7319404FF6C3
:10271000FF7303EA02231943018470470A4600212C
:10272000018C4DF6FF7319404FF6FF7303EA023335
:1027300019430184704730B5002301248C40A3B2B3
:10274000048C9C430484048C02FA01F5ADB22C4342
:10275000048430BD30B5002304248C40A3B2048C23
:102760009C430484048C02FA01F5ADB22C4304842A
:1027700030BD70B5034600200024184618300125EE
:102780008D40ACB21D8CA5431D8409B1082909D127
:1027900000EB6100056825F07005056005681543CC
:1027A00005600EE00D1FC5F34E052844056825F4AD
:1027B000E045056005684FF6FF7606EA02263543D8
:1027C000056070BD21B1028842F00202028004E07F
:1027D00002884FF6FD731A400280704721B10288CB
:1027E00042F00402028004E002884FF6FB731A40B4
:1027F0000280704721B1828842F08002828004E02A
:1028000082884FF67F731A408280704702884FF6A5
:10281000F7731A40028002880A4302807047828858
:102820004FF68F731A40828082880A4382807047F5
:1028300002894FF6F8731A40028102890A43028125
:10284000704702894FF67F731A40028102890A435A
:102850000281704781847047818570478186704707
:102860000187704781877047A0F840107047028841
:102870004FF6FF431A40028002880A4302807047E5
:102880000146888E70470146088F70470146888F41
:1028900070470146B1F8400070470146888C704788
:1028A0000146088D704702460020138A0B400BB189
:1028B000012000E000207047CA430282704730B513
:1028C0000246002000230024158A05EA01039589A9
:1028D00005EA010413B10CB1012000E0002030BD75
:1028E000CA4302827047000001684FF6FE72114031
:1028F00001600021016041608160C1608D498842B2
:1029000008D18C490839496841F00F01894A083AD1
:1029100051608AE087491431884208D185490839D5
:10292000496841F0F001834A083A51607DE08149ED
:102930002831884208D17F490839496841F47061DB
:102940007C4A083A516070E07A493C31884208D1AB
:1029500078490839496841F47041764A083A51602B
:1029600063E074495031884208D172490839496896
:1029700041F470216F4A083A516056E06D49643164
:10298000884208D16B490839496841F47001694AA5
:10299000083A516049E067497831884208D1654971
:1029A0000839496841F07061624A083A51603CE078
:1029B0006149884206D1011F096841F00F01021FD9
:1029C000116032E05C491431884208D15A49091F2C
:1029D000096841F0F001584A121F116025E056497C
:1029E0002831884208D15449091F096841F47061AF
:1029F000514A121F116018E04F493C31884208D1FA
:102A00004D49091F096841F470414B4A121F11607A
:102A10000BE049495031884207D14749091F0968ED
:102A200041F47021444A121F1160704710B5002212
:102A3000026847F6F0739A430C6A8B6823430C696B
:102A400023434C6923438C692343CC6923434C6A59
:102A500023438C6A23431A430260CB6843600B68AC
:102A600083604B68C36010BD0021016041608160DC
:102A7000C160016141618161C16101624162816244
:102A8000704721B1026842F00102026004E002686E
:102A90004FF6FE731A40026070471AB103680B4389
:102AA000036002E003688B43036070474160704736
:102AB0000146486880B2704701460020002201F0BC
:102AC00080531BB11C4B083B1A6802E0194B083BB2
:102AD0001A6802EA01030BB1012000E000207047F0
:102AE00000F0805119B11449091F086002E0114932
:102AF00008394860704701460020002201F08053E9
:102B00001BB10D4B083B1A6802E00A4B083B1A68E0
:102B100002EA01030BB1012000E00020704700F041
:102B2000805119B10449091F086002E001490839C0
:102B30004860704708000240080402400146002037
:102B4000FE4A106800F03800084310607047FB49E7
:102B5000096821F00801F94A11601146096801432A
:102B600011607047F549096821F01001F34A1160BE
:102B700011460968014311607047F148EF49486008
:102B8000F04848607047EE48EC494860ED484860BE
:102B90007047EA48006940F08000E84908617047E2
:102BA000E648006940F08000E4490861704704206D
:102BB000E249C96801F0010109B101200EE0DF49D5
:102BC000C96801F0040109B1022007E0DB49C968C6
:102BD00001F0100109B1032000E00420704700B5A6
:102BE00002460423FFF7E3FF034603E0FFF7DFFF9E
:102BF0000346521E012B01D1002AF7D102B9052349
:102C0000184600BD30B5044604254FF43020FFF7C8
:102C1000E6FF0546042D17D1C848006940F00200C0
:102C2000C649086108464461006940F040000861F7
:102C30004FF43020FFF7D3FF0546C048006941F646
:102C4000FD710840BD490861284630BD10B5042417
:102C50004FF43020FFF7C3FF0446042C16D1B748C9
:102C6000006940F00400B54908610846006940F079
:102C7000400008614FF43020FFF7B1FF0446AF4831
:102C8000006941F6FB710840AC490861204610BD5F
:102C900000B502460423FFF78AFF034603E0FFF76F
:102CA00086FF0346521E012B01D1002AF7D102B93B
:102CB0000523184600BD10B504244FF43020FFF75B
:102CC000E7FF0446042C16D19C48006940F004003C
:102CD0009A4908610846006940F0400008614FF4D5
:102CE0003020FFF7D5FF04469448006941F6FB7198
:102CF000084092490861204610BD00208F49C969EB
:102D000001F0020109B1012000E00020704730B558
:102D1000A5250424FFF7F1FF00B100254FF4302072
:102D2000FFF75DFF0446042C3AD18548834988604B
:102D3000844888600846006940F020000861084621
:102D4000006940F0400008614FF43020FFF747FF72
:102D50000446042C1BD17948006941F6DF71084014
:102D6000764908610846006940F01000086176481D
:102D70000580E002FFF733FF0446052C10D06F48B2
:102D8000006941F6EF7108406C49086108E0052CC4
:102D900006D06A48006941F6EF710840674908614A
:102DA000204630BD78B506460C460425002000902C
:102DB000E802FFF714FF0546042D24D15F4800699F
:102DC00040F001005D4908613480E802FFF707FF29
:102DD0000546042D10D1B01C0090200C00990880ED
:102DE000E802FFF7FCFE05465448006941F6FE7113
:102DF00008405249086106E05048006941F6FE71FA
:102E000008404E490861284678BD70B504460D4615
:102E10000426F002FFF7E3FE0646042E11D14748D0
:102E2000006940F00100454908612580F002FFF784
:102E3000D6FE06464148006941F6FE7108403F490A
:102E40000861304670BD70B505460E460424E002A8
:102E5000FFF7C5FE0446042C17D13948374988606E
:102E6000384888600846006940F0100008612E80EC
:102E7000E002FFF7B4FE0446052C06D02F48006997
:102E800041F6EF7108402D490861204670BD2DE9DB
:102E9000F04304464FF6FF763746B046B146042568
:102EA000E443E6B2C4F30727C4F307484FEA1469C2
:102EB000E802FFF794FE0546042D49D120481F493A
:102EC0008860204888600846006940F0100008616A
:102ED000FF2E06D01C4808300680E802FFF77FFE70
:102EE0000546042D08D1FF2F06D017480A30078069
:102EF000E802FFF774FE0546042D0AD1B8F1FF0F72
:102F000007D011480C30A0F80080E802FFF767FEF8
:102F10000546042D0AD1B9F1FF0F07D00A480E303B
:102F2000A0F80090E802FFF75AFE0546052D0FD0E5
:102F30000248006941F6EF71084007E000200240B6
:102F400023016745AB89EFCD00F8FF1F6649086193
:102F50002846BDE8F08330B5054604244FF4302000
:102F6000FFF73DFE0446042C41D160485E4988606D
:102F70005F4888600846006940F020000861084604
:102F8000006940F0400008614FF43020FFF727FE51
:102F90000446042C22D15448006941F6DF710840F0
:102FA000514908610846006940F0100008611DB1F0
:102FB00000205049088002E0A5204E4908804FF4C7
:102FC0003020FFF70CFE0446052C10D0464800695F
:102FD00041F6EF7108404449086108E0052C06D02D
:102FE0004148006941F6DF7108403F4908612046C9
:102FF00030BDF0B505460E46174604243B483A4915
:1030000088603B488860E002FFF7E9FD0446042C35
:1030100019D13548006940F010003349086147F084
:10302000F800304328433349891C0880E002FFF749
:10303000D6FD0446052C06D02B48006941F6EF71F9
:103040000840294908612046F0BD2748C06980082A
:1030500070472548006A704700202349096801F03D
:10306000200109B1012000E00020704729B11E4A6B
:10307000126902431C4B1A6104E01B4A1269824325
:10308000194B1A61704701460020012908D1164AE0
:10309000D26902F001020AB1012008E0002006E036
:1030A000114AD2680A400AB1012000E000207047AE
:1030B0000D49C860704704200B49C96801F001013F
:1030C00009B101200EE00849C96801F0040109B105
:1030D000022007E00449C96801F0100109B103208A
:1030E00000E00420704700000020024023016745F3
:1030F000AB89EFCD00F8FF1FEFF3108072B6704779
:1031000080F310887047314A1368012B04D04FF0C8
:10311000010313602E4A10602E4A11602E484FF0B2
:10312000805101607047EFF3108272B62748016842
:1031300091B14FF0000101602548016829B1EFF31A
:10314000098121E9F00F00680160224909680968D6
:10315000B1E8F00F81F3098882F310884EF0040E75
:1031600070471C4908601A494FF000000860174971
:103170004FF00100086019484FF47F01D0F800209B
:1031800041EA0201016014484FF080510160144887
:103190000068006880F3088862B670471EF0040F6C
:1031A00014BFEFF30880EFF3098020E9F00F40F837
:1031B00004ED14BF80F3088880F3098800B500F09F
:1031C00037F85DF804EB4EF0040E70479C000020C9
:1031D000940000209800002004ED00E020ED00E0C5
:1031E00008ED00E0F0B504460D461646301D20F00F
:1031F000070040380146002203E03F4F41F82270AB
:10320000521C102AF9D30D624FF0000CC1F824C0F3
:10321000C1F828C0C1F82CC0C1F830C04B638C6322
:103220004FF0807CC1F83CC0F0BD34490860704765
:1032300070B505462C1D3148006838B128462F4925
:1032400009688847064606B970BD00BF2CA0E16B2F
:1032500000F0F2FE2EA0216A00F0EEFE30A0616ABE
:1032600000F0EAFE32A0A16A00F0E6FE34A0E16AB6
:1032700000F0E2FE36A0216800F0DEFE38A06168B2
:1032800000F0DAFE3AA0A16800F0D6FE3CA0E168AA
:1032900000F0D2FE3EA0216900F0CEFE40A06169A0
:1032A00000F0CAFE42A0A16900F0C6FE44A0E16998
:1032B00000F0C2FE46A0216B00F0BEFE48A0616B8C
:1032C00000F0BAFE4AA0A16B00F0B6FE287800F02C
:1032D000040038B101F0C6F90646314648A000F0B6
:1032E000ABFE02E04EA000F0A7FE00BFFEE710B567
:1032F00052A000F0A1FE10BDEFBEADDEA000002088
:103300007073723A203078253038780A0000000057
:103310007230303A203078253038780A00000000CA
:103320007230313A203078253038780A00000000B9
:103330007230323A203078253038780A00000000A8
:103340007230333A203078253038780A0000000097
:103350007230343A203078253038780A0000000086
:103360007230353A203078253038780A0000000075
:103370007230363A203078253038780A0000000064
:103380007230373A203078253038780A0000000053
:103390007230383A203078253038780A0000000042
:1033A0007230393A203078253038780A0000000031
:1033B0007231303A203078253038780A0000000029
:1033C0007231313A203078253038780A0000000018
:1033D0007231323A203078253038780A0000000007
:1033E000206C723A203078253038780A00000000CE
:1033F0002070633A203078253038780A00000000C9
:1034000068617264206661756C74206F6E207468E8
:10341000726561643A2025730D0A0D0A00000000F0
:1034200068617264206661756C74206F6E206861DB
:103430006E646C65720D0A0D0A0000007368757485
:10344000646F776E2E2E2E0A00000000704716481B
:103450000068704770B50446FFF74EFE05461248F7
:1034600004602846FFF74CFE70BD10B50E4800689A
:10347000401C0D49086001F0F5F80446206C401E20
:103480002064206C18B9E06B206401F041F901F070
:103490002CFB10BD01464FF47A7201FB02F000F2E2
:1034A000E730B0FBF2F07047A40000200020704726
:1034B00000207047002070470020704710B5264C50
:1034C00002E020688047241D24488442F9D310BDBF
:1034D00010B5224C02E020688047241D2048844219
:1034E000F9D310BD10B50446FFF7F2FFFCF791FECB
:1034F00010BD7FB51B4C14200221CA011A4BCDE927
:103500000032CDE902100023AFF2270217A12046B6
:1035100001F08EF80546204601F0C3F87FBD10B5D6
:10352000FFF7EAFD01F03EFB00F0B6FD01F01DFBE8
:1035300000F016FFFFF7DDFF01F023FB00F079F943
:1035400000F028FF002010BD10B5FFF7D5FDFFF7F4
:10355000E6FF002010BD000020540008245400089D
:1035600028540008F80B0020F80A00206D61696EED
:10357000000000002DE9F041064601F073F808B1A3
:1035800000F091FF804D6C6810E0A4F10C07082258
:103590003146384600F0B5FA38B901F063F808B1A1
:1035A00000F08FFF3846BDE8F0812468281D844272
:1035B000EBD101F057F808B100F083FF0020F2E7EB
:1035C00070B504460D46164614B94FF0FF3070BD75
:1035D0002846FFF7CFFF10B14FF0FF30F7E72A463C
:1035E0000321204600F050FEE6820020A0762083D2
:1035F00000BFECE710B50446204600F067FE00204F
:1036000010BD0020704770B504460025606A90B177
:10361000A07D00F0100070B92046616A8847054619
:103620002DB12A46214659A000F006FD03E0E08AAC
:1036300040F01000E082284670BD70B504460E468A
:103640000025A07D00F0100088B9606A58B12046BE
:10365000616A8847054635B12A4621464BA000F0ED
:10366000EBFC284670BDE08A40F01000E082A07DAF
:1036700000F0080030B1207E00F0080010B16FF0BB
:103680000600EFE7A06A20B131462046A26A9047C3
:1036900005460DB1A81D28B946F008002083A07E7C
:1036A000401CA0762846DDE770B504460025A07EC4
:1036B00008B9681E70BDA07E401EA076A07E08B12D
:1036C0000020F7E7E06A18B12046E16A884705461E
:1036D0000DB1A81D08B9002020832846EAE72DE98E
:1036E000F04104460D4616461F46A07E30B94FF005
:1036F000FF3000F0F7F80020BDE8F081206B38B112
:103700003B46324629462046D4F830C0E047F3E72E
:103710006FF0050000F0E6F80020EDE72DE9F0413C
:1037200004460D4616461F46A07E30B94FF0FF30C6
:1037300000F0D8F80020BDE8F081606B38B13B465E
:10374000324629462046D4F834C0E047F3E76FF00C
:10375000050000F0C7F80020EDE770B504460D46FF
:103760001646A06B28B1324629462046A36B9847DF
:1037700070BD0020FCE70246D16100207047024680
:103780001162002070470000E4000020546F20699F
:103790006E697469616C697A6520646576696365D0
:1037A0003A2573206661696C65642E205468652033
:1037B0006572726F7220636F64652069732025647F
:1037C0000A00000070B52AE0FFF796FC054600F0FD
:1037D00045F8E0B125480068A0F1140404F1140094
:1037E000D0E900215160D0E9001211604060006012
:1037F00000BF206F10B12046216F8847204600F09F
:1038000079FD012807D12846FFF77AFC70BD2846CC
:10381000FFF776FCFAE72846FFF772FC00BF00F0DE
:103820001DF80028D0D100BFF0E701E0FFF7CAFF84
:10383000FCE71FB52020072180220D4BCDE9003287
:10384000CDE9021000230B4A0BA10D4800F0F0FE59
:103850000B4800F026FF1FBD094870470349086860
:10386000884201D0012070470020FCE714010020AD
:10387000E80C00202B3800087469646C65000000B7
:10388000700C002010B5FFF737FC04460C48007898
:10389000401C0B4908702046FFF732FC10BD10B5E4
:1038A000FFF72AFC044606480078401E04490870C9
:1038B0002046FFF725FC10BD014800787047000046
:1038C000A800002010B5FFF7F7FF10B1FE48006810
:1038D00010BD00F0C7FE044614B9FB480068F7E7C6
:1038E000206BF5E770B50446FFF7E6FF10B1F64828
:1038F000046070BD00F0B6FE054615B9F2480460DC
:10390000F7E72C6300BFF4E710B5FFF7D5FF08B168
:10391000ED4810BD00F0A6FE044614B104F13000DD
:10392000F7E7E948F5E7F0B50C460546E6B2042AA4
:1039300015D300F0030797B9014646EA062343EA88
:10394000034304E008C108C108C108C1103A102AA5
:10395000F8D201E008C1121F042AFBD20D4601E093
:1039600005F8016B171EA2F10102F9D1F0BD2DE996
:10397000F0410F46164604463D463346102B28D3E9
:1039800005F0030C04F003084CEA080CBCF1000F2E
:103990001FD121462A4610E052F804CB41F804CB4F
:1039A00052F804CB41F804CB52F804CB41F804CBD5
:1039B00052F804CB41F804CB103B102BECD204E0BE
:1039C00052F804CB41F804CB1B1F042BF8D20C4651
:1039D000154603E015F801CB04F801CBB3F1000C58
:1039E000A3F10103F6D1BDE8F08170B50C460146A4
:1039F00023468B4210D29D188D420DD91144134499
:103A000005E05D1E2B462E784D1E29462E70151E94
:103A1000A2F10102F5D108E003E013F8015B01F81F
:103A2000015B151EA2F10102F7D170BDF0B503468E
:103A300000201C460D4608E026782F78F61B301E25
:103A400000D004E0641C6D1C521E002AF4D800BF94
:103A5000F0BD01460A4600E0521C10780028FBD158
:103A6000501A7047F0B506460F463846FFF7F1FF8B
:103A700005460DB93046F0BD3046FFF7EAFF044673
:103A800009E0641E2A4639463046FFF7CFFF08B9E1
:103A90003046F0E7761CAC42F3DA0020EBE730B5B5
:103AA00003460C4600BF13F8011B14F8012B4129F3
:103AB00002DB5A2900DC2031412A02DB5A2A00DCD1
:103AC0002032914201D10029EDD1881A30BD70B564
:103AD0000346A2B118460C4600BF14F8016B00F86B
:103AE000016B3EB902E0002500F8015B551E2A1E5D
:103AF000F9D102E0551E2A1EEFD100BF00BF1846C3
:103B000070BD30B5034600200BE011F8015B1C7856
:103B1000641B64B2201E02D113F8015B05B902E0F8
:103B2000521E002AF1D100BF30BD024601E0521CF6
:103B3000491C107818B110780B789842F7D010789B
:103B40000B78C01A704702460B46114600E0491C2C
:103B5000087810B1881A9842F9D3881A70477047CC
:103B60002DE9F04F85B00D469C46DDE90F740E9BA4
:103B700004F04008B8F1000F02D0DFF8508101E0F6
:103B8000DFF84C81CDF8008004F01008B8F1000F88
:103B900001D024F0010404F00108B8F1000F02D0B4
:103BA0004FF0300801E04FF02008C246002604F034
:103BB0000208B8F1000F11D0002A02DA2D26524275
:103BC0000CE004F00408B8F1000F01D02B2605E04A
:103BD00004F00808B8F1000F00D02026002142B9F7
:103BE0004FF0300B8846491C0DF1040909F808B064
:103BF0001DE01AE0E146B9F10A0F08D14FF00A0BB7
:103C0000B2FBFBFE0BFB1E28B2FBFBF202E002F054
:103C10000F08120900BFDDF8009019F808B08846B7
:103C2000491C0DF1040909F808B0002AE2D1B94293
:103C300000DD0F46DB1B04F01108B8F1000F10D1B6
:103C400016B1002B00DD5B1E06E0A84203D84FF042
:103C5000200880F80080401CB3F10008A3F10103A4
:103C6000F3DC26B1A84201D806705B1E401C04F0AC
:103C70001008B8F1000F0AD104E0A84201D880F87A
:103C800000A0401CB3F10008A3F10103F5DC06E03D
:103C9000A84203D84FF0300880F80080401CB84696
:103CA0007F1E8845F4DC08E0A84205D80DF1040821
:103CB00018F8018080F80080401CB1F10008A1F1E3
:103CC0000101F1DC0DE00000AC0000200D54000803
:103CD000FC530008A84203D84FF0200880F8008069
:103CE000401CB3F10008A3F10103F3DC05B0BDE80B
:103CF000F08F0146002009E00B685A1C0A601A7810
:103D000000EB800302EB4302A2F130000A68127854
:103D1000303A0A2AF0D370472DE9FF4F89B0804628
:103D200044460A984044461E464504D24FF0FF36AA
:103D3000A6EB08000A906FE10B980078252806D0C2
:103D4000B44202D80B9800782070641C61E1002511
:103D500026E00B98401C0B900B9800782D2802D180
:103D600045F010051CE00B9800782B2802D145F097
:103D7000040515E00B980078202802D145F00805CD
:103D80000EE00B980078232802D145F0200507E0CB
:103D90000B980078302802D145F0010500E000E0E2
:103DA000D7E700BF4FF0FF370B98007830380A286C
:103DB00004D20BA8FFF79DFF07460EE00B98007892
:103DC0002A280AD10B98401C0B900C9880C80C90A4
:103DD000002F02DA7F4245F010054FF0FF390B98B3
:103DE00000782E281CD10B98401C0B900B98007863
:103DF00030380A2804D20BA8FFF77BFF81460AE07F
:103E00000B9800782A2806D10B98401C0B900C9830
:103E100050F8049B0C90B9F1000F01DA4FF0000943
:103E2000002004900B980078682803D00B98007845
:103E30006C2805D10B98007804900B98401C0B90CF
:103E40000A2005900B9800786F2875D00CDC632849
:103E500013D004DC252870D058286FD18DE0642859
:103E60006DD06928F9D18FE070286AD0732825D0E9
:103E7000752878D07828F0D182E005F0100040B99C
:103E800004E0B44201D820202070641C781E071E74
:103E9000F7DC0C9810F8041B0C90C8B20790B442E1
:103EA00001D807982070641C04E0B44201D8202097
:103EB0002070641C781E071EF7DCAAE00C980068CE
:103EC00006900C98001D0C90069808B9C4A00690A6
:103ED0000698FFF7BEFD8346B9F1000F02DDCB4522
:103EE00000DDCB4605F0100048B904E0B44201D82B
:103EF00020202070641C38467F1E5845F6DC0020C8
:103F000008900BE0B44202D8069800782070641C38
:103F10000698401C06900898401C08900898584540
:103F2000F0DB04E0B44201D820202070641C384645
:103F30007F1E5845F6DC6CE01CE015E028E022E02E
:103F4000FFE7781C10B9082745F00105CDE9007995
:103F500002950C9804C8102331460C902046FFF7B8
:103F6000FFFD044655E012E0B44201D82520207040
:103F7000641C4EE0082005901DE045F0400500BFA0
:103F80001020059017E000BF45F0020500BF12E0C9
:103F9000B44201D825202070641C0B98007830B101
:103FA000B44202D80B9800782070641C02E00B9891
:103FB000401E0B902DE000BF04986C2807D10C9890
:103FC00050F804AB0C9005F00200B8B116E004986C
:103FD00068280BD10C9830F8041B1FFA81FA0C905A
:103FE00005F0020050B10FFA8AFA07E00C9850F879
:103FF00004AB0C9005F0020000B100BFCDE90079E0
:104000000295524631462046059BFFF7A9FD04461E
:1040100000BF0B98401C0B900B98007800287FF491
:104020008BAEB44201D8207001E000203070A4EBC8
:1040300008000DB0BDE8F08F0FB438B505A80090AA
:104040007F216948009B049AFFF766FE04467F2C97
:1040500000D97F246548006818B96348FFF77FFDE1
:1040600015E062480068058B60480068008B40F0EE
:1040700040005E490968088323465B4A00215B488B
:104080000068FFF74BFB59480068058300BF00201C
:10409000009038BC5DF814FB08B555A0FFF7CCFFC5
:1040A00056A0FFF7C9FF5EA0002301220221009065
:1040B0005EA0FFF7C1FF65A0FFF7BEFF08BD0FB40C
:1040C000F8B504460D4609A8009029462046009BF5
:1040D000089AFFF721FE0646002000903046F8BC03
:1040E0005DF814FB37B505460C4622464FF0FF310C
:1040F0002846029BFFF710FE3EBD0FB438B50446BC
:1041000006A800902046009A0599FFF7EBFF0546A8
:1041100000200090284638BC5DF814FB3348006846
:10412000704770B50546314806682846FFF722FA01
:10413000044664B12D48006818B12C480068FFF7A8
:10414000B3FA43212046FFF778FA28480460304646
:1041500070BD70B504462548006818B92046FFF7C1
:10416000FEFC19E021480068058B20480068008BA0
:1041700040F040001D49096808832046FFF769FCAC
:10418000064633462246002118480068FFF7C6FA63
:1041900016480068058300BF70BD014609B90020BC
:1041A0007047C8B220B1C8B2334A105C401CF7E770
:1041B00001F47F4028B13048C1F30722805C093008
:1041C000EEE701F47F0028B12B48C1F30742805C81
:1041D0001130E5E7284800EB116000781930DFE77F
:1041E000284E554C4C290000680D0020B0000020DE
:1041F0000A205C207C202F0A000000002D20525451
:10420000202D2020202020546872656164204F708A
:1042100065726174696E672053797374656D0A0005
:104220004A616E203139203230313800202F207C15
:10423000205C202020202025642E25642E2564204B
:104240006275696C642025730A00000020323030EA
:1042500036202D203230313720436F7079726967F4
:1042600068742062792072742D74687265616420AC
:104270007465616D0A000000FC5200087047014639
:10428000364800EB011070472DE9F04104460D4619
:104290001646324800EB051745F0800020720822D0
:1042A00031462046FFF713FCFEF726FF8046381DF7
:1042B00004F10C010268516002680A600160486004
:1042C00000BF4046FEF71CFFBDE8F08170B5044614
:1042D000FEF712FF054604F10C00D0E90021516001
:1042E000D0E9001211604060006000BF2846FEF770
:1042F00007FF70BD0146087A00F0800008B1012078
:1043000070470020FCE72DE9F04104460D464FF0D0
:104310000008002600270CB1052D02DD0020BDE8B5
:10432000F08100F0C0F817B90C4800EB05177E6863
:104330000CE0A6F10C08082221464046FFF7E1FBFD
:1043400018B900F0BEF84046E9E73668381D8642E5
:10435000EFD100F0B6F80020E1E70000B400002043
:1043600010B5002068490880002405E0674901EB8A
:10437000C40000F0C5F8641C082CF7DB0720644972
:10438000087000206349086063490860634800F0D2
:10439000B7F810BD70B560480068FFF7FEFE451E17
:1043A0005A4850F83500A0F114045A48046004F14A
:1043B0001C00FEF7D6FE70BD2DE9F041FEF79CFE15
:1043C00007465148008818BB53480068FFF7E5FED0
:1043D000461E4E4850F83600A0F114044D480068BF
:1043E000844214D04A490E704A48056804604C481B
:1043F000007830B904F11C0105F11C00FEF783FEC2
:1044000005E004F11C0105F11C00FEF77CFE00BF75
:104410003846FEF775FEBDE8F08170B50446FEF73C
:104420006BFE0546012084F8340094F83520374BA4
:1044300003EBC20004F114014268116042684A6053
:104440004160086000BF3449A06B096808433249E5
:1044500008602846FEF754FE70BD70B50446FEF7AE
:104460004BFE054604F11400D0E900215160D0E96B
:10447000001211604060006000BF94F83510234ABC
:1044800002EBC1000168814201D1012100E000215D
:1044900029B12148A16B006888431F49086028465C
:1044A000FEF72EFE70BD10B5FEF726FE0446164838
:1044B0000088401C00B2144908802046FEF720FE08
:1044C00010BD10B5FEF718FE04460F480088401EC8
:1044D00000B20D4908800846B0F90000002807DC4A
:1044E000002008802046FEF70BFEFFF765FF02E084
:1044F0002046FEF705FE10BD0348008880B27047D5
:10450000406000607047000004010020E80D0020BA
:104510000C010020080100201001002014010020DF
:10452000A80000200268516002680A6001604860CB
:104530007047D0E900215160D0E90012116040605D
:104540000060704770B5D5480468FEF7D5FD054694
:104550002046FFF782FF042084F8340004F1440071
:1045600000F008FA2046FFF7C5FE012805D1206FAC
:1045700018B92046FFF7AAFE04E004F11401C84868
:10458000FFF7D0FF2846FEF7BBFDFFF715FF70BD14
:1045900070B5044625466FF00100286305F114004C
:1045A000FFF7C7FF2846FFF738FFFFF705FF70BD8D
:1045B0002DE9FC5F04468B4615461E46DDE90C9A44
:1045C000DDE90E7804F114004060006000BF1C3487
:1045D0006560A660C4F80C90C4F810A02321D4E94B
:1045E0000302FFF7A0F9D4E9033C63441A1FAFF2BA
:1045F000AB03D4E90101FEF7F5FD2060A7766776ED
:104600000020E061C4F82080C4F824806061207636
:104610006065A0651C3C00902346AFF28B022146EA
:10462000019004F1440000F08EF90020BDE8FC9FE9
:104630002DE9FF5F05460C4616461F46DDE910AB27
:10464000DDE90E89224600212846FFF71DFE3B4684
:104650003246214628468DE8000FFFF7A9FF04B037
:10466000BDE8F09F8D480068704770B5044694F827
:104670003400022802D04FF0FF3070BDFEF73CFD41
:10468000054604F11400FFF754FF04F1440000F064
:10469000F8F92846FEF734FD2046FFF7BEFE00205D
:1046A000EBE710B504463434A078607061780120DF
:1046B00088406060022004F834092046FFF7D5FFE7
:1046C000FFF7D0FF08B1FFF777FE002010BD70B5EF
:1046D000044694F8340010B12046FFF7BEFE04F102
:1046E000440000F047F9042084F834002046FFF726
:1046F000EDFD206F50B1FEF7FFFC054604F11401FB
:104700006748FFF70FFF2846FEF7FAFC002070BD50
:1047100070B5FEF7F1FC05466048046894F8340073
:1047200001281CD1D4E90510814218D004F11400ED
:10473000FFF7FFFE94F835205A4B03EBC20004F15B
:1047400014014268116042684A604160086000BF1D
:104750002846FEF7D5FCFFF72FFE002070BD284647
:10476000FEF7CEFC0020F9E770B5044694F834005B
:10477000012802D04FF0FF3070BDFEF7BDFC0546AA
:10478000022084F834002046FFF767FE04F144005D
:1047900000F077F92846FEF7B3FC0020ECE731B5CE
:1047A000FEF7AAFC05463D4804682046FFF7DCFFFB
:1047B0006A46002104F1440000F07BF904F1440052
:1047C00000F0E8F82846FEF79BFCFFF7F5FD206BAC
:1047D000801C08B900202063002038BD10B50446B5
:1047E0002046FFF7DCFF10BD2DE9F04104460E46E0
:1047F00015461EB3022E26D1FEF77EFC074694F81E
:10480000340001280ED12046FFF727FE287884F8CF
:10481000350094F8351001208840A0632046FFF74A
:10482000FCFD07E0287884F8350094F83510012065
:104830008840A0633846FEF763FC05E02046FFF79A
:1048400030FFBDE8F08100BF00BF0020F9E72DE98F
:10485000F0410646FFF706FF08B1FFF724FE124DB0
:104860006C6810E0A4F10C07082231463846FFF7C7
:1048700048F938B9FFF7F6FE08B1FFF722FE3846CF
:10488000BDE8F0812468281D8442EBD1FFF7EAFEE1
:1048900008B1FFF716FE0020F2E700000801002033
:1048A00014010020E80D0020B400002002685160CF
:1048B00002680A600160486070472DE9F0470446CD
:1048C0000E4617469846DDF8209084F80990607AE5
:1048D00020F001006072E66127620020A062C4F847
:1048E0002480002506E004F1140101EBC50000F06E
:1048F00049F96D1C012DF6DBBDE8F08770B5044663
:10490000204600F042F910B14FF0FF3070BD206832
:10491000A0F11405A86AF9E710B502460020014687
:104920000EE002F1140303EBC100D0E90043636021
:10493000D0E9003423604060006000BF481C01469D
:104940000129EEDB10BD2DE9F84307460C4615465C
:104950001E46DDE90889224604213846FFF794FC0B
:104960004346324629463846CDF80090FFF7A5FF6A
:10497000BDE8F88370B50446FEF7BEFB0546204649
:10498000FFF7CAFF2846FEF7BBFB2046FFF79EFC59
:10499000002070BD2DE9F8430546FEF7ADFB8046CB
:1049A0002846FFF7B9FF687A20F001006872404698
:1049B000FEF7A6FBFEF74BFD696A0844A862FEF706
:1049C0009BFB8046754F009700242AE019E05DF8B4
:1049D00024201168142202EBC402881A826AAB6A8E
:1049E000D21A00D108E0826AAB6AD21A6FF0004393
:1049F0009A4200D20CE000BF5DF8240000684DF838
:104A000024005DF8240007EBC40149688842DED128
:104A100000BF2CB15DF824000830611C4DF8210066
:104A2000641C002CD2D05E480068401C5C490860C1
:104A30000846066805F114010098FFF737FF0224C5
:104A400012E006F0030060B9C4F1010305F114029D
:104A500002EBC301C4F101025DF82200FFF726FF5B
:104A600000E003E0B608641C012CEAD900BF687AB4
:104A700040F0010068724046FEF742FB0020BDE8AE
:104A8000F88370B50446607A00F0010010B94FF069
:104A9000FF3070BDFEF730FB05462046FFF73CFFB8
:104AA0002846FEF72DFB607A20F00100607200209E
:104AB000EFE7034649B1012904D0022908D00329B0
:104AC00010D10AE0586A10600CE01068586209E0E2
:104AD000587A20F00200587204E0587A40F0020040
:104AE000587200BF00BF0020704770B5FEF7AFFCE2
:104AF0000546FEF701FB064628E028480068A0F1BD
:104B00001404A06A281A6FF0004188421DD2204682
:104B1000FFF702FFD4E907108847FEF798FC054627
:104B2000607A00F0020058B1607A00F0010038B1FC
:104B3000607A20F0010060722046FFF72BFF05E04D
:104B4000607A20F00100607200E004E0134800F099
:104B50001CF80028D1D000BF3046FEF7D1FA70BD56
:104B600010B50E48FFF7CAFE10BD10B5002405E0D1
:104B70000A4901EBC40000F005F8641C002CF7D0D2
:104B800010BD704740600060704701460868884269
:104B900001D1012070470020FCE700001C0100202B
:104BA0002401002070B51B4800684FF47A72B0FBF6
:104BB000F2F1B1F1807F00D31DE021F07F40401E73
:104BC0004FF0E022506150170F22002807DA130738
:104BD0001D0E114B00F00F04241F1D5503E0130799
:104BE0001C0E0E4B1C5400BF00204FF0E0229061C1
:104BF0000720106100BFFEF761FC09A0FFF791FAE2
:104C000070BD10B5FEF73EFEFEF72FFCFEF747FE27
:104C100010BD00000000002018ED00E000E400E0FE
:104C200075617274320000007047704770477047BA
:104C30007047754600F02CF8AE46050069465346AD
:104C400020F00700854618B020B5FCF73DF9BDE817
:104C500020404FF000064FF000074FF000084FF0E3
:104C6000000B21F00701AC46ACE8C009ACE8C00974
:104C7000ACE8C009ACE8C0098D46704710B50446E1
:104C8000AFF300802046BDE81040FBF798BA000063
:104C900000487047280E002010B591EA030F48BF66
:104CA00083F0004300F14882841A71EB030C05D2B3
:104CB000121943EB0C03001B61EB0C01DFF824E13C
:104CC0004FEA1154A4EB135C1EEA430F18BF9EEA8F
:104CD000445F73D023EA0E03DCF1200E21EA045175
:104CE00043F4801332D322FA0CFE10EB0E0023FAA9
:104CF0000CFE41EB0E01CCF1200E03FA0EFE10EB80
:104D00000E0051F10001B1F5801FCCF1200E32D21E
:104D100001EB045112FA0EF2BDE8104058BF704783
:104D2000401C38BF5FEA420218BF7047002814BF1A
:104D300020F0010041F100014FEA410313F5001F8B
:104D400038BF7047A1F1C04100F0A6B9012A43EB7A
:104D50000302ACF1200CDCF11F0E32BF4FF0000E4D
:104D600023FA0CF310EB030041EB0451B4EB115F99
:104D7000D0D0A1EB045101F5801149085FEA300061
:104D800001EB04510ED350F1000038BF12FA0EFEB1
:104D900008D1BDE81040C9E7401C38BF5FEA4202B5
:104DA000CAD1C3E7BDE810404FEA410313F5001F25
:104DB00038BF7047A1F1C04100F06EB99EEA445F70
:104DC00008D011EA5E0FBDE8104004BF01F00041B9
:104DD00000207047BDE8104070B500F00FF900BF2B
:104DE00064FBBE3E0000E0FF491058BFC1F14041E6
:104DF0005B1058BFC3F140438B42EFF30080704714
:104E000010F0004248BF4042B0FA80F310FA03F1BC
:104E10000AD0C3F11D0303F580634FEA415002EB52
:104E2000035202EBD12170474FF0000070470000A1
:104E300051EA030C17D41CF5801F58BFBCF5801F26
:104E400000F10680994218BF704708BF9042704732
:104E500007D711F5801F58BF13F5801F19D4994249
:104E60007047894270471CF5801F08D5BCF5801F2C
:104E7000F7D58B4218BF704708BF824270474FF486
:104E8000001C1CEB410F38BF1CEB430F01D28B42BF
:104E9000704770B500F0B2F8922449004FF000510D
:104EA0004FF08053FFF7A0BFDFF848C170B51CEA90
:104EB000111E1EBF1CEA13159EEA0C0F95EA0C0F7B
:104EC00000F06F8081EA030423EA4C134EEAD47E9B
:104ED00021EA4C1141F4801143F48013AE44A1FB4C
:104EE000024CA0FB0365AEF17F7E361955EB0C0535
:104EF000A1FB034C4CF10003A0FB021C16EB0C06BB
:104F0000654153F10003094218BF46F0010613F44E
:104F1000007F0BD14FEA03314FEA0530340341EAF9
:104F2000155140EA16506FF003020AE04FEAC32120
:104F30004FEAC520F40241EA555140EA56506FF05D
:104F4000020202EB2E4201EB025585EACE710AD035
:104F50005FEA440C18BF24F0004450F1000041F116
:104F6000000120EAD47040F2FE7C624500D270BDA0
:104F7000A84214BF4FF080444FF04044002E08BFB9
:104F80000024BEF1806FA8BFA1F1C041BDE8704010
:104F900080F282804FF0000001F1C04101F0004139
:104FA00070479EEA0C0F0CEA131518BF95EA0C0F18
:104FB00006D04FF0000081EA030E0EF0004170BDF4
:104FC00000F01CF88900013E00F007B800F009B8B5
:104FD0004FEA430C5FEA5C5C08D081EA030100F011
:104FE0005BB84FEA410C5FEA5C5CF6D14FF0000021
:104FF000014970470000FF070000F87F0EF1020E24
:105000002EF0030E5EF8046B364205D4012A43EB02
:10501000030515F5001F12D8012841EB010C1CF502
:10502000001F0CD80ED14FEAD17C15F5001F0CEBF8
:105030004C0C0CF1020C08BF4CEBD37C04E04FF09D
:10504000080C01E04FEAD37C0CEB4C0526FA05F680
:1050500006F00706B6F1040C06D20EEB860CBDE88E
:1050600070404CF0010C6047DFE80CF0090B0202C5
:105070004FF000414FF00000A1F5002170BD19462E
:105080001046012851EB010418BFD4F5001484BF69
:10509000002001F0004170BD0808A0F500114FEAA2
:1050A0003101704753EA010C17D41CF5801F58BF1B
:1050B000BCF5801F00F106808B4218BF704708BF07
:1050C0008242704707D713F5801F58BF11F5801F24
:1050D00019D48B4270479B4270471CF5801F08D53E
:1050E000BCF5801FF7D5994218BF704708BF9042A2
:1050F00070474FF4001C1CEB430F38BF1CEB410FF3
:1051000001D2994270470FB40CBC03BCFFF7C1BE7B
:1051100091EA030F10B581F000413FF5C5AD83F072
:10512000004300F009B8000010B591EA030F48BF32
:1051300083F000433FF5B8AD841A71EB030C07D23E
:1051400012198CF0004C43EB0C03001B61EB0C01BB
:10515000DFF8A4E14FEA1154A4EB135C1EEA430FFD
:1051600018BF9EEA445F00F0B08023EA6E0352420B
:1051700021EA0451C3EB6E0338BF5B1EDCF1200E45
:1051800025D322FA0CFE10EB0E0043FA0CFE41EB85
:105190000E01CCF1200E03FA0EFE10EB0E0051F1C1
:1051A0000001CCF1200E29D412FA0EF201EB0451C9
:1051B000BDE8104058BF7047401C1CBFB2F1004F03
:1051C000704700280CBF491C20F00100704712EB0B
:1051D000020E43EB030218BF4FF0010E4EEA4202EB
:1051E000ACF1200CDCF11E0E54D943FA0CFE10EB8E
:1051F0000E0051F1FF31CCF11E0ED5D50EF1010E8E
:1052000012FA0EFE404141EB010101EB445C5FEA02
:105210005C5C10D910EBDE7001EB045138BFBEF1BD
:10522000004FBDE8104018BF704700280CBF491C54
:1052300020F00100704730D24FEAD42C11F5001154
:1052400024F400641BD0B1FA81F20B3AA41AA41E14
:10525000D2F12003914030FA03F31943904001EB5F
:10526000CC71002C01EB0451BDE81040A8BF704781
:1052700001F1C0414FF0000001F000417047B0FA69
:1052800080F310FA03F100D110BDE41A173C480571
:10529000C90AE4E701EB045110BD491001EB0451C8
:1052A000BDE810404FEA300002E04FF000017047C7
:1052B0004A0008BF0042F8D0B2F5001F28BF70476F
:1052C00001F000414FF0000070479EEA445F07D0B4
:1052D00011EA5E0FBDE8104004BF002100207047B6
:1052E000BDE8104070B5FFF789FE00BF40DFF63E15
:1052F00083F00041104670470000E0FF000001000D
:10530000020001000300010002000100040001008E
:10531000020001000300010002000100050001007D
:10532000020001000300010002000100040001006E
:10533000020001000300010002000100060001005C
:10534000020001000300010002000100040001004E
:10535000020001000300010002000100050001003D
:10536000020001000300010002000100040001002E
:10537000020001000300010002000100070001001B
:10538000020001000300010002000100040001000E
:1053900002000100030001000200010005000100FD
:1053A00002000100030001000200010004000100EE
:1053B00002000100030001000200010006000100DC
:1053C00002000100030001000200010004000100CE
:1053D00002000100030001000200010005000100BD
:1053E00002000100030001000200010004000100AE
:1053F00002000100030001000200010030313233DD
:10540000343536373839616263646566003031326D
:10541000333435363738394142434445460000007D
:10542000B1340008B5340008B93400084C54000801
:1054300000000020280100006C01000874550008DD
:1054400028010020601100008801000800A24A0421
:105450000000000000000000010203040607080924
:1054600000000000000000000008004000000000F4
:10547000000000000000000000000000000000002C
:10548000000000000000000000000000000000001C
:105490000000F03F000000000000F03F01000000AD
:1054A00000000000000000000000000002000000FA
:1054B000000000000000000000001234567890AB9D
:1054C000CDEF1234567890ABCDEF00000000010212
:1054D0000304010203040607080902040608000089
:1054E00000000000000000000000000000000000BC
:1054F00000000000000000000000000000000000AC
:1055000000000000B8000020B80000207800000073
:1055100001000000C8000020C8000020200000009A
:1055200002000000D8000020D80000203000000059
:1055300003000000E8000020E80000204000000018
:1055400004000000F8000020F80000202C000000FB
:10555000000000000000000000000000000000004B
:10556000000000000000000000000000000000003B
:045570000000000037
:0400000508000131BD
:00000001FF
