:020000040800F2
:1000000078070020D9070008210200082302000811
:10001000250200082702000829020008000000004D
:100020000000000000000000000000002B0200089B
:100030002D020008000000002F0200083102000815
:10004000F3070008F3070008F3070008F3070008A8
:10005000F3070008F3070008F3070008F307000898
:10006000F3070008F3070008F3070008F307000888
:10007000F3070008F3070008F3070008F307000878
:10008000F3070008F3070008F3070008F307000868
:10009000F3070008F3070008F3070008410700080A
:1000A000F3070008F3070008F3070008F307000848
:1000B0005506000819060008F3070008F3070008B2
:1000C000F3070008F3070008F3070008F307000828
:1000D000F30700082D1E0008F3070008F3070008C7
:1000E000F3070008F3070008F3070008F307000808
:1000F000F3070008F3070008F3070008F3070008F8
:10010000F3070008F3070008F3070008F3070008E7
:10011000F3070008F3070008F3070008F3070008D7
:10012000F3070008F3070008F3070008F3070008C7
:1001300000F002F800F03AF80AA090E8000C8244BF
:100140008344AAF10107DA4501D100F02FF8AFF29C
:10015000090EBAE80F0013F0010F18BFFB1A43F0A5
:1001600001031847A01D0000C01D0000103A24BF65
:1001700078C878C1FAD8520724BF30C830C144BF0C
:1001800004680C607047000000230024002500264E
:10019000103A28BF78C1FBD8520728BF30C148BFEA
:1001A0000B6070471FB51FBD10B510BD01F077FE85
:1001B0001146FFF7F7FF00F009F801F095FE03B4D0
:1001C000FFF7F2FF03BC01F0D9FD000000F034F9A5
:1001D00000F0DCF800F074FA00F085F900F0FCF9AA
:1001E00000F00AFA01F07EFD01264FF4FA480B4CAC
:1001F0004FF47A770025C8F1000920680028FCD068
:10020000384601F09DFD2560606820B14846656074
:1002100000F09EF9F1E740466660F9E70000002033
:100220007047FEE7FEE7FEE7FEE77047704770475E
:10023000704700000CB500224C4800920192016802
:1002400041F4803101604FF4A063016801F4003192
:1002500001910099491C0091019911B900999942A5
:10026000F3D10168890333D50121019140490A681E
:1002700042F010020A600A6822F003020A600A686B
:1002800042F002020A604168416041684160416891
:1002900041F480614160416821F47C114160416812
:1002A00041F4E8114160016841F08071016001682A
:1002B0008901FCD5416821F003014160416841F0AA
:1002C000020141604168C1F381010229FAD10CBDEC
:1002D00001920CBD254810B5016841F00101016093
:1002E0004168244A114041600168234A114001607D
:1002F000016821F480210160416821F4FE01416020
:100300004FF41F018160FFF795FF1C494FF000601B
:10031000086010BD154A10B55068194B10F00C015B
:10032000184803D0042901D0082901D0036012E045
:100330005168536801F470114FF0020413F4803FC8
:1003400004EB914102D053689B0301D50E4B00E0B2
:100350000B4B5943016051680A4AC1F30311121D46
:10036000515C0268CA40026010BD000000100240EB
:10037000002002400000FFF8FFFFF6FE08ED00E05D
:1003800000127A000800002000093D0030B589B055
:100390000121022000F054FD0121042000F047FD5E
:1003A0004020ADF8200018208DF8230003208DF8A0
:1003B000220008A9B64800F052FB1D208DF81C0051
:1003C00001248DF81D4000258DF81E508DF81F402A
:1003D00007A800F026FA6320ADF814004820ADF815
:1003E0001000ADF81650ADF81250AA4D04A92846D9
:1003F00000F004FE31207021ADF80600ADF80010C9
:100400000220ADF80800ADF802406946284600F029
:100410002EFE0821284601F077F90121284601F037
:100420004BF901221146284601F0A5F80121284682
:1004300001F08CF809B030BD30B5012189B0084613
:1004400000F0FEFC0121042000F0F1FC0420ADF8D6
:10045000200018208DF8230003208DF8220008A921
:100460008B4800F0FCFA1C208DF81C0001248DF84C
:100470001D4000258DF81E508DF81F4007A800F084
:10048000D0F940F2E730ADF814000920ADF81000C3
:10049000ADF81650ADF81250850704A9284600F0B3
:1004A000ADFD40F2F3107021ADF80600ADF800107C
:1004B0000220ADF80800ADF802406946284600F079
:1004C00047FE0821284601F039F90121284601F0AC
:1004D000F3F801221146284601F04DF80121284683
:1004E00001F034F8A6E7F8B50121042000F09FFCE4
:1004F0008020ADF800001024654E8DF803400325E0
:100500008DF802506946304600F0A9FA8021304645
:1005100000F011FB0820ADF800008DF803408DF8C5
:1005200002506946304600F09AFA0821304600F041
:1005300002FBADF800408DF803408DF8025069468B
:10054000304600F08CFA1021304600F0F4FAF8BD85
:10055000514A10B50021117011465060C9684C4BCA
:100560000144002807DAD1604042506080211846DB
:1005700000F0E1FA04E0D1608021184600F0D9FAD9
:100580000121444800F0E2FFBDE810400821434843
:1005900000F0CFBA404A10B500215170114690606A
:1005A00009693B4B0144002807DA11614042906021
:1005B0000821184600F0BFFA04E01161082118462E
:1005C00000F0B7FA0121880700F0C0FFBDE8104035
:1005D0000821324800F0ADBA2F4910B5012008704B
:1005E00080212B4800F0A7FAFFF7D0FEBDE81040AD
:1005F00008212A4800F09DBA274910B5012048700B
:100600000821234800F097FAFFF716FFBDE81040D5
:100610001021224800F08DBA10B51E4C0121204651
:1006200001F0BDF980B11C4A107868B95168002901
:1006300008DC0021204600F089FF0821174800F05F
:100640007AFA01E0491E51602046BDE810400121C0
:1006500001F0B1B910B501218C07204601F09FF9D6
:1006600080B10D4A507868B99168002908DC0021F2
:10067000204600F06BFF1021084800F05CFA01E012
:10068000491E91602046BDE81040012101F093B958
:1006900000080140000400401C000020000C014044
:1006A00008B517208DF8000002208DF801008DF8A4
:1006B000020001208DF80300684600F0B2F808BD82
:1006C0002DE9FE430121292000F0B1FBFFF7E8FFEF
:1006D0004024DFF8E490ADF8084048258DF80B5031
:1006E00002A9484600F0BBF90621012000F06BFA90
:1006F000009400248DF804400C268DF80560012735
:100700008DF80670684600F0EDF84FF08008ADF8FF
:1007100008808DF80B5002A9484600F0A0F9072187
:10072000012000F050FA8DF804408DF80560CDF8F6
:1007300000808DF80670684600F0D4F8BDE8FE83AE
:1007400070B5802000F01EF91B4D0024A0B180215F
:10075000284600F0DAF960B90021184800F0F6FEEA
:1007600017480460174804601748016809B9012157
:100770000160802000F014F9402000F003F9002807
:1007800018D00821114800F0CAF901280DD04021E5
:10079000284600F0BAF940B900214FF0804000F03F
:1007A000D5FE0B4804600B480460BDE87040402053
:1007B00000F0F6B870BD0000000C014000040040DD
:1007C0002000002028000020000000200008014038
:1007D000240000202C0000200948804709480047D9
:1007E000FEE7FEE7FEE7FEE7FEE7FEE7FEE7FEE7E1
:1007F000FEE7FEE704480549054A064B704700003E
:10080000D502000831010008780100207807002097
:10081000780300207803002028490843284908600D
:10082000704730B50F23C27801780125F2B1244A10
:10083000126801F1E02102F4E062C2F5E062120AFE
:10084000C2F10404D3404278A24084781C4014438F
:10085000220181F80024007800F01F018D4040093A
:10086000800000F1E020C0F8005130BD01F01F0011
:1008700085404809800000F1E020C0F8805130BD7B
:10088000104A114001430E48001F016070470C4A96
:10089000121D0029116801D0014300E0814311605D
:1008A00070474FF0E0210428086903D020F00400CD
:1008B0000861704740F00400FAE700000000FA0504
:1008C0000CED00E080FFFF1F374900200860091D84
:1008D0000860091D0860091D086033493348143158
:1008E0000860704730B5304A8379016853B31368A4
:1008F0008B431360111D0B680468A3430B600179DF
:1009000011440B68046823430B60274B08331968B4
:100910000468A14319601C1D21680568A943216072
:100920004179102905D011440A68006802430A6021
:1009300030BD1968026811431960216800680143DD
:10094000216030BD0079104402688A43026030BDE6
:100950000021016001710C224271817170471249BE
:1009600010310A6802430A60704701460E4A0020AF
:10097000143212680A4200D0012070470A4914312B
:1009800008607047084A014600201268064B0A407A
:1009900014331B680B4202D0002A00D0012070479C
:1009A000014914310860704700040140FFFF0F0047
:1009B0008F4910B5884206D10121042000F049FA80
:1009C000002104203BE08B49884206D10121082008
:1009D00000F03FFA0021082031E08749884206D123
:1009E0000121102000F035FA0021102027E0834972
:1009F000884206D10121202000F02BFA002120207E
:100A00001DE07F49884206D10121402000F021FAF3
:100A10000021402013E07B49884206D1012180203B
:100A200000F017FA0021802009E0774988420AD1B6
:100A300084150121204600F00CFA00212046BDE873
:100A4000104000F006BA10BD10B50121084600F0B4
:100A500000FA0021BDE81040012000F0FAB9F0B51D
:100A6000CC78002204F00F03E40601D58C782343F0
:100A70000C784FF00F0C14F0FF0F4FF0010E1BD04D
:100A800005680E880EFA02F42640A64210D19600A0
:100A90000CFA06F725EA070703FA06F5CE783D4378
:100AA000282E02D0482E02D002E0446100E004610A
:100AB000521C082AE5D305600A88FF2A1CD944681D
:100AC000002202F108060EFA06F50E882E40AE420C
:100AD0000ED196000CFA06F7BC4303FA06F7CE785F
:100AE0003C43282E00D14561CE78482E00D10561C7
:100AF000521C082AE5D34460F0BD4FF6FF71018017
:100B0000022181700421C170704702460020926862
:100B10000A4200D001207047806880B270470246C8
:100B20000020D2680A4200D001207047C06880B21D
:100B3000704701617047416170470AB101617047B8
:100B400041617047C160704741F4803282618161C8
:100B500082618169806970472C4B10B51A684FF625
:100B60008074224042EA00100843186010BD2849F2
:100B7000C8617047F0B5254C002801DAE36900E050
:100B80006368450D2E0185B2C0F30157B540C0F32F
:100B90000342032F05D0C6020AD503269640B3436D
:100BA00007E023F07062636823F07063636002E023
:100BB000AB4343F0706201B12A43002801DAE261DD
:100BC000F0BD6260F0BD10B58A0721F003040F4943
:100BD000120F21440F238C6893409C438C608B68D8
:100BE000904003438B6010BD0949C1F8DC00704799
:100BF00000080140000C01400010014000140140B9
:100C000000180140001C014000200140000001408C
:100C100000002042A548016841F0010101604168DF
:100C2000A34A114041600168A24A11400160016875
:100C300021F480210160416821F4FE0141604FF4FC
:100C40001F018160704799490A6822F480320A6066
:100C50000A6822F480220A60B0F5803F07D0B0F520
:100C6000802F03D1086840F4A0200860704708680E
:100C700040F48030F9E70346002059098B4A0129E6
:100C80000AD002290AD0516A03F01F0201239340BF
:100C90000B4200D0012070471168F5E7116AF3E7B5
:100CA00018B500204FF4A06400903120FFF7E3FF57
:100CB0000099491C0091A14201D00028F5D03120B3
:100CC000FFF7D9FF002800D0012018BD774A11682E
:100CD00021F0F80141EAC0001060704776490860D1
:100CE0007047724B5A68084322F47C1210435860D4
:100CF00070477149086670476C4A516821F00301DA
:100D00000143516070476948406800F00C0070472B
:100D1000664A516821F0F001014351607047634A0F
:100D2000516821F4E0610143516070475F4A5168A6
:100D300021F4605141EAC000506070475B4A0029CD
:100D4000517A01D0014300E08143517270475A4902
:100D5000C1F8D8007047554A516821F44041014319
:100D6000516070475149002281F8202081F82020ED
:100D7000012802D0042802D1052081F82000704704
:100D80004E490860704749490A6A02430A6270473F
:100D90004A4944390860704730B5444A5168484B65
:100DA00011F00C0103D0042901D0082901D00360FF
:100DB00012E05168536801F470114FF0020413F40B
:100DC000803F04EB914102D053689B0301D53D4B1A
:100DD00000E03B4B5943016051680F2303EA1111B6
:100DE000394B5C5C0168E14041605468072505EAC5
:100DF00014241C5D21FA04F48460546805EAD424A8
:100E00001B5DD940C1605268032303EA92322E4B26
:100E10001B1F9A5CB1FBF2F1016130BD234A00292E
:100E2000516901D0014300E08143516170471F4A7D
:100E30000029916901D0014300E08143916170472D
:100E40001A4A0029D16901D0014300E08143D161F0
:100E50007047164A0029D16801D0014300E0814360
:100E6000D1607047114A0029116901D0014300E0A7
:100E700081431161704711494039086070470E493C
:100E8000C86470470949C87170470848416A41F011
:100E9000807141627047054A0146002092680A420B
:100EA00000D001207047014988727047001002404D
:100EB0000000FFF8FFFFF6FE0000424280044242BD
:100EC00000127A0000093D0034000020F94910B5F5
:100ED000884202D10121C41486E0B0F1804F09D0CC
:100EE000F54988420DD101210220FFF7BBFF002107
:100EF000022064E001210846FFF7B4FF0021012031
:100F00005DE0EE49884206D101210420FFF7AAFFE7
:100F10000021042053E0EA49884206D1012108203B
:100F2000FFF7A0FF0021082049E0E649884206D1EA
:100F300001211020FFF796FF002110203FE0E24939
:100F4000884206D101212020FFF78CFF00212020BC
:100F500035E0DE49884202D10121441444E0DC49F5
:100F6000884202D10121CC043EE0DA49884202D114
:100F700001210C0538E0D849884202D101214C05F5
:100F800032E0D649884206D101214020FFF76AFFAE
:100F90000021402013E0D249884206D1012180205F
:100FA000FFF760FF0021802009E0CE4988420AD186
:100FB000841501212046FFF755FF00212046BDE89A
:100FC0001040FFF74FBFC849884202D101210C04ED
:100FD0000AE0C649884202D101214C0404E0C44918
:100FE00088420AD101218C042046FFF732FF2046B7
:100FF000BDE810400021FFF72CBF10BD30B50288BE
:10100000AC4CB24DA0420DD0A8420BD0B0F1804FF5
:1010100008D0A94B984205D0A84B984202D0A84BC3
:10102000984203D122F070034A881A43A54B984294
:1010300006D0A54B984203D022F44073CA881A43C5
:1010400002808A8882850A880285A0420AD0A84246
:1010500008D0A54A904205D0A44A904202D0A44AA2
:10106000904201D1097A01860121818230BD30B5DB
:10107000028C22F001020284028C8388048B22F00D
:10108000020224F073050C882C430D8915434A880D
:101090002A43884DA8420BD08C4DA84208D0924DCF
:1010A000A84205D0914DA84202D0914DA8420DD141
:1010B00022F008054A8923F440732A4322F00405EC
:1010C0008A882A438D891D43CB892B4383800483DF
:1010D000C9888186028430BD70B5028C22F010026E
:1010E0000284028C8388048B0D8824F4E6464FF634
:1010F000FF7404EA052535430E8922F0200204EA34
:10110000061616434A8804EA02123243694EB04278
:1011100002D06E4EB04215D122F080064A8923F4E7
:10112000406304EA0212324322F040068A8804EA4D
:10113000021232438E8904EA86061E43CB8904EAF2
:101140008303334383800583C9880187028470BD8C
:1011500070B5028C22F480720284028C8388848BA6
:101160000D8824F0730425430E894FF6FF7422F492
:10117000007204EA062616434A8804EA0222324331
:101180004C4EB04202D0514EB04215D122F400660E
:101190004A8923F4405304EA0222324322F480664F
:1011A0008A8804EA022232438E8904EA06161E4324
:1011B000CB8904EA0313334383808583C9888187FD
:1011C000028470BD70B5028C22F480520284058CBA
:1011D0008288838B0C8823F4E6464FF6FF7303EA7C
:1011E0000424344325F400560D8903EA05353543BC
:1011F0004E8803EA06362E432E4DA84202D0334DC8
:10120000A84205D122F480458A8903EA82122A4342
:1012100082808483C988A0F84010068470BD828BC8
:1012200022F440628283828B4FF6FF7303EA01212E
:101230000A4382837047828B22F00C028283828B66
:101240000A4382837047028B22F440620283028B3E
:101250004FF6FF7303EA01210A4302837047F0B59A
:10126000048C24F010040484078B048C4FF6FF7563
:1012700027F4734705EA03333B4305EA02221A4386
:101280000C4B05EA011698420ED0104B98420BD039
:10129000B0F1804F08D0084B984205D0074B9842D8
:1012A00002D0074B984225D124F02001314341F070
:1012B000100124E0002C0140000400400008004020
:1012C000000C0040001000400014004000340140B9
:1012D000004C014000500140005401400018004003
:1012E000001C00400020004000400140004401403C
:1012F0000048014024F0A0030B4343F01001028397
:101300000184F0BD028B22F00C020283028B0A439F
:101310000283704770B5048C24F001040484058BAB
:10132000048C4FF6FF7606EA0313134325F0F3050A
:10133000F84A2B4390420ED0F74A90420BD0B0F1BE
:10134000804F08D0F54A904205D0F54A904202D02D
:10135000F44A904202D124F0020201E024F00A0291
:101360000A4342F001010383018470BD2DE9F84F67
:101370000D4604460888E74FDFF89CC3DFF89C83DE
:10138000DFF89C934988AA882B894FF0804A48B39C
:1013900004282FD04FF6FF760828934632D0208CB1
:1013A0009E4620F480502084A38B208C06EA0132D4
:1013B000009223F4734306EA0B221A4306EA0E3323
:1013C0001343BC420AD0644508D0544506D0444576
:1013D00004D04C4502D0D34A944242D120F400506C
:1013E000009940E02046FFF795FFE9882046BDE8D8
:1013F000F84F87E72046FFF732FFE9882046BDE82F
:10140000F84F20E7208C20F480702084B4F81CE092
:10141000208C06EA031306EA01222EF0F30E43EABB
:101420000B0343EA0E030092BC420AD0644508D085
:10143000544506D0444504D04C4502D0B94A9442A4
:1014400003D120F40070009901E020F420600843EB
:1014500040F48070A3832084E9882046BDE8F84FDB
:10146000E9E620F40240084340F48050A38320843E
:10147000E9882046BDE8F84FD1E62DE9F0410C4659
:10148000002649880746012501B90226A288012ABB
:1014900000D10225208823890028384610D0FFF784
:1014A000DEFEE1883846FFF7CEFE23892A46314624
:1014B0003846FFF72FFFE1883846BDE8F04121E7C5
:1014C000FFF728FFE1883846FFF71CFF23892A46EB
:1014D00031463846FFF7C3FEE1883846BDE8F041A3
:1014E000B1E610B50A884B88CC881A438B88234311
:1014F0001A430B891A434B8989891A430A43A0F876
:10150000442010BD4FF6FF71818000210180C18011
:101510004180017270470021018041808180C1803B
:10152000018141818181C181704700210180418019
:1015300001228280C18001817047002101804180A9
:101540008180C180018141818181704700290188AA
:1015500002D041F0010101E021F00101018070475A
:10156000002930F8441F02D041F4004101E0C1F3EA
:101570000E0101807047002A828901D00A4300E0F1
:101580008A4382817047818270471143A0F84810D6
:101590007047002A828901D00A4300E08A43828191
:1015A0007047018921F0070101817047028922F00B
:1015B00070020A430281704700B50346FFF7F6FF49
:1015C000188940F00700188100BD70B516460D4619
:1015D000602904464FF0010231460AD0FFF79AFE17
:1015E00029462046FFF7E2FF208940F007002081CE
:1015F00070BDFFF734FEF3E730B504894FF6FF7591
:1016000005EA03231343E4B20B432343038130BDB4
:1016100010B50446FFF7F0FF208940F077002081E5
:1016200010BD10B50446FFF7E7FF208940F4804065
:10163000208110BD018582827047028822F07002ED
:101640000A430280704770B50589048B068C25F02B
:1016500007050D434FF6FC410C4040F201110C43CD
:101660004FF6FF7101EA031126F0220611433143C0
:1016700005810483018470BD028B22F070020A434D
:1016800002837047028B4FF6FF7322F4E04203EAB5
:101690000121114301837047828B22F070020A43BB
:1016A00082837047828B4FF6FF7322F4E04203EA95
:1016B00001211143818370470029018802D041F044
:1016C000800101E021F080010180704700298188BC
:1016D00002D041F0040101E021F004018180704753
:1016E0000029818802D041F0080101E021F00801C1
:1016F000818070470029818802D041F0010101E01A
:1017000021F0010181807047028B22F008020A4318
:1017100002837047002C0140003401400004004067
:1017200000080040000C0040028B4FF6FF7322F4CB
:10173000006203EA012111430183EAE7828B22F070
:1017400008020A438283E4E7828B4FF6FF7322F498
:10175000006203EA012111438183DAE7028B22F060
:1017600004020A430283D4E7028B4FF6FF7322F48C
:10177000806203EA012111430183CAE7828B22F0D0
:1017800004020A438283C4E7828B4FF6FF7322F47C
:10179000806203EA012111438183BAE7028B22F0C0
:1017A00080020A430283B4E7028B4FF6FF73C2F351
:1017B0000E0203EA012111430183AAE7828B22F082
:1017C00080020A438283A4E7828B4FF6FF73C2F341
:1017D0000E0203EA0121114381839AE7028C22F071
:1017E00002020A43028494E7028C22F008020A43B0
:1017F00002848EE7028C4FF6FF7322F0200203EA88
:1018000001111143018484E7028C4FF6FF7322F02B
:10181000800203EA0111114301847AE7028C4FF63A
:10182000FF7322F4007203EA01211143018470E77F
:10183000028C4FF6FF7322F4006203EA0121114388
:10184000018466E7028C4FF6FF7322F4005203EA2C
:101850000131114301845CE710B50123048C8B40F6
:101860009C430484038C8A401343038410BD10B549
:101870000423048C8B409C430484038C8A401343D0
:10188000038410BD30B50124058C00F118038C4091
:10189000A543058489B108290FD0091FC1F34E0063
:1018A0001844016821F4E041016001684FF6FF73BC
:1018B00003EA02221143016030BD03EB51000168CD
:1018C00021F0700101600168F4E70029018802D06D
:1018D00041F0020101E021F00201018019E7002935
:1018E000018802D041F0040101E021F004010180EF
:1018F0000FE70029818802D041F0800101E021F04A
:101900008001818005E7028822F0080202800288B7
:101910000A430280FDE6828822F07002828082887B
:101920000A438280F5E6028922F0070202810289D9
:101930000A430281EDE6028922F0800202810289D7
:101940000A430281E5E68184E3E68185E1E681865A
:10195000DFE60187DDE68187DBE6A0F84010D8E608
:10196000028822F44072028002880A430280D0E694
:10197000808ECEE6008FCCE6808FCAE6B0F84000BD
:10198000C7E6808CC5E6008DC3E602460020128AB9
:101990000A4200D00120BCE6C9430182B9E60246F2
:1019A0000020138A92890B4202EA010202D0002A27
:1019B00000D00120ADE6C9430182AAE6C44910B5B2
:1019C00088420AD101218C032046FFF742FA2046C3
:1019D000BDE810400021FFF73CBABE49884202D161
:1019E00001214C0410E0BC49884202D101218C0441
:1019F0000AE0BA49884202D10121CC0404E0B84986
:101A000088420AD101210C052046FFF72BFA204617
:101A1000BDE810400021FFF725BA10BD30B50446DF
:101A2000008A85B00D464CF6FF710840E9880143F5
:101A30002182A0894EF6F3110840A9882A89114312
:101A40006A8902431143A181A08A4FF6FF410840F1
:101A5000A9890143A1826846FFF79EF99C48844208
:101A600001D1039800E00298A189090400EBC001AC
:101A700001EB0010296801D5490000E08900B0FBA6
:101A8000F1F06422B0FBF2F109010B096FF01805C7
:101A90006B4300EB8300A3891D044FF0320306D58E
:101AA00003EBC000B0FBF2F000F0070005E003EB31
:101AB0000010B0FBF2F000F00F000843208105B0E9
:101AC00030BD4FF41651016000218180C180018139
:101AD0000C2242818181704710B5028A4FF2FF03C8
:101AE0001A400B884C8823438C88C9880C432343B5
:101AF0001343038210BD0021018041808180C18099
:101B000070470029818902D041F4005101E021F49D
:101B100000518181704710B5C1F3421301F01F04D9
:101B20000121A140012B07D0022B07D01430002A3D
:101B3000026805D00A4304E00C30F8E71030F6E7FD
:101B40008A43026010BD002A828A01D00A4300E065
:101B50008A4382827047028A22F00F020282028A3E
:101B60000A4302827047828922F40062828182895C
:101B70000A43828170470029818902D041F0020125
:101B800001E021F0020181817047028A22F02002E7
:101B90000282028A0A43028270470029018A02D027
:101BA00041F4804101E021F4804101827047C1F39A
:101BB0000801818070478088C0F3080070478189E0
:101BC00041F0010181817047028BD2B20283028B06
:101BD00042EA012101837047028B02F47F420283B3
:101BE000028B0A43028370470029818A02D041F0A8
:101BF000200101E021F02001818270470029818AC3
:101C000002D041F0100101E021F010018182704703
:101C10000029818A02D041F0080101E021F0080189
:101C2000818270470029818902D041F4004101E09E
:101C3000C1F30E01818170470029818A02D041F4ED
:101C4000006101E021F4006181827047828A22F004
:101C500004028282828A0A43828270470029818A32
:101C600002D041F0020101E021F0020181827047BF
:101C70000246002012880A4200D001207047C94362
:101C80000180704770B501F01F0501260024C1F3E3
:101C9000421306FA05F2012B0FD0022B0FD0838AD4
:101CA0004FEA11210088134206FA01F600EA060005
:101CB00001D000B10124204670BD8389F0E7038A7A
:101CC000EEE70A0A01219140C943018070470000F4
:101CD000003801400044004000480040004C0040F3
:101CE0000050004010B56FF00400FEF7DAFD204808
:101CF00020490068B0FBF1F01F49C0B200EB400280
:101D00000870C2EBC0104FF6FF7202EAC0004880B4
:101D100010BD1949097848434FF0E021486100237C
:101D20008B61086940F0010008610869C20701D0B1
:101D3000C003FAD5086920F0010008618B61704783
:101D40000D49498848434FF0E021486100238B61E9
:101D5000086940F0010008610869C20701D0C003AA
:101D6000FAD5086920F0010008618B617047000016
:101D70000800002000127A0044000020704741490A
:101D80000A885206FCD53F4AC1B2121D1180704725
:101D9000F0B5064687B0012144F20400FFF747F88A
:101DA000384D2846FFF70AFE6815ADF810000324E9
:101DB0008DF812401820344F8DF8130004A93846CE
:101DC000FEF74DFE2815ADF8100004208DF8130025
:101DD00004A93846FEF743FE25208DF814008DF83F
:101DE00015408DF8164001208DF8170005A8FEF764
:101DF00018FD0021ADF80810ADF804100C20ADF866
:101E00000610ADF80C10ADF80A0000966946284699
:101E1000FFF704FE012240F225512846FFF77BFE22
:101E200001212846FFF76DFE07B0F0BD70B5154CD7
:101E300040F225512046FFF725FF00280ED020460E
:101E4000FFF7B9FE114AC1B21088030406D4440456
:101E50004FF0000306D50A2901D0138070BD40F46D
:101E600000400DE00D2909D0C0F30D04084D401CC1
:101E700080B229551080C728EFD870BD40F480404B
:101E8000108070BD0038014000080140480000206B
:101E90004C00002070477047704770477047754688
:101EA00000F02CF8AE4605006946534620F00700C6
:101EB000854618B020B5FEF79DFCBDE820404FF0E8
:101EC00000064FF000074FF000084FF0000B21F024
:101ED0000701AC46ACE8C009ACE8C009ACE8C009F1
:101EE000ACE8C0098D46704710B50446AFF30080DA
:101EF0002046BDE81040FEF762B900000048704778
:101F000014010020241F0008000000204C000000E5
:101F10006C010008701F00084C0000202C07000016
:101F200088010008000000000000000000A24A0430
:101F30000000000000000000010203040607080979
:101F40000000000000000000000000000000000091
:101F50000000000002040608000000000102030463
:101F60000102030406070809000000000000000049
:0400000508000131BD
:00000001FF
