:020000040800F2
:10000000F0A70020B9020008997C000859280008D0
:10001000957C0008431A000887A200080000000031
:10002000000000000000000000000000C98B000874
:10003000951E00080000000091800008D98E00087D
:10004000D3020008D3020008D3020008D30200083C
:10005000D3020008D3020008D3020008D30200082C
:10006000D3020008D3020008D3020008D30200081C
:10007000D3020008D3020008D3020008D30200080C
:10008000D3020008D3020008D3020008D3020008FC
:10009000D3020008D3020008D3020008D3020008EC
:1000A000D3020008D3020008D3020008D3020008DC
:1000B0003D8F0008D3020008758F0008D3020008A6
:1000C000D3020008D3020008D3020008D3020008BC
:1000D000D30200086D9E0008F59E0008D3020008B8
:1000E000D3020008D3020008D3020008D30200089C
:1000F000D3020008D3020008D3020008D30200088C
:10010000D3020008D3020008D3020008D30200087B
:10011000D3020008D3020008D3020008D30200086B
:10012000D3020008D3020008D3020008D30200085B
:1001300000F002F800F0B0F80AA090E8000C824449
:100140008344AAF10107DA4501D100F0A5F8AFF226
:10015000090EBAE80F0013F0010F18BFFB1A43F0A5
:10016000010318472C3401004C3401000A444FF0BD
:10017000000C10F8013B13F0070408BF10F8014B06
:100180001D1108BF10F8015B641E05D010F8016B4B
:10019000641E01F8016BF9D113F0080F1EBF10F8AF
:1001A000014BAD1C0C1B09D16D1E58BF01F801CBD2
:1001B000FAD505E014F8016B01F8016B6D1EF9D555
:1001C0009142D6D37047000000230024002500266A
:1001D000103A28BF78C1FBD8520728BF30C148BFAA
:1001E0000B6070476E2900F04383702900F0858111
:1001F000662911F09881652911F09581672911F020
:1002000092816129AFF3008003681B0A28BF41F087
:100210008001692900F0F680642900F0F3807529D7
:1002200000F0F0806F2900F03A84782900F05181C5
:10023000E92900F0D583E42900F0D283F52900F004
:10024000CF83EF2900F03784F82900F0508103684C
:10025000DB0928BF41F08001632900F04483732942
:1002600000F04983E32900F09186F32900F0968697
:10027000002070471FB500F0EBFE040000200021B5
:1002800010F0AAF9401C60600020002110F08EF9E7
:10029000E0601FBD10B510BD00F0ACFE1146FFF7C9
:1002A000E9FF0EF061FB00F085FF03B4FFF7F2FFFA
:1002B00003BC0AF005F800000948804709480047D8
:1002C000FEE7FEE7FEE7FEE7FEE7FEE7FEE7FEE706
:1002D000FEE7FEE704480549054A064B7047000063
:1002E000DD8E000831010008F0A10020F0A70020F9
:1002F000F0A30020F0A30020704700001CB50C46BE
:10030000064B7B4469460090204600F0CAFA04463A
:100310000020694600F0D8FA20461CBDC305000045
:100320000FB4044910B503AA029800F0E9FA10BC12
:100330005DF814FB180000200FB41CB5084B06AA8A
:100340007B4469460090059800F0ABFA0446002013
:10035000694600F0B9FA20461CBC5DF814FB0000A9
:100360008505000070B5044685690068C10601D5A1
:10037000302600E02026C00707D070BDD4E9012157
:1003800030469047206A401C20626D1EF6D570BD35
:1003900070B5044685690078C00707D170BDD4E9FF
:1003A000012120209047206A401C20626D1EF6D556
:1003B00070BD70B50C460546012A05D02878800628
:1003C00000D5EA69002302E0012305E05B1C9342AB
:1003D00002D2E05C0028F9D1A869E618C01AA86129
:1003E000286A184428622846FFF7BCFF04E0D5E9D4
:1003F000012114F8010B9047B442F8D32846FFF7C7
:10040000C7FF70BD2DE9F04106460024106875292C
:10041000314616A510D000F0C0F9002802DA40429B
:1004200013A507E031688A0701D512A502E0490744
:1004300004D511A5012401E000F0B8F900210A2239
:1004400006F1240709E0B0FBF2FCB0FBF2F302FB7B
:100450001C00303078541846491C0028F3D123463C
:100460002A463046BDE8F04100F0A9B9000000007E
:100470002D0000002B00000020000000F0B40D460D
:100480000188090502D5214C7C4402E01F4C7C44C4
:100490000E34002100F1240608E002F00F071209D3
:1004A000E75D42EA03721B097754491C52EA0307CD
:1004B000F3D102780023120704D5702D06D009B1BC
:1004C000022311342246F0BC00F079B90123103424
:1004D000F8E770B504460D462146106800F066F94D
:1004E000024629462046BDE870400023C6E7D21DDB
:1004F00022F00703D3E90023C0E70368126843F042
:10050000200303600823C3610023B7E73A2D0100ED
:100510002DE9F05F894604464FF0000ADFF874B118
:10052000FB44C0F820A02046E1688847002874D02A
:10053000252806D0D4E901219047206A401C20627A
:10054000F1E700265F462046E168884720280546F7
:1005500007DB312D05D2781910F8200C08B10643BD
:10056000F1E7B00701D526F00406C4F81CA0002767
:10057000C4F818A02A2D09D0284609F09AFE38B3ED
:1005800004EB8708303DC8F8185019E059F8041BEF
:10059000204604EB87029161E1688847012F0546F8
:1005A00018D1E069002820DA26F020061DE0D8F8EE
:1005B000180000EB800005EB40003038C8F8180048
:1005C0002046E1688847054609F073FE0028EED111
:1005D000012F0AD02E2D08D12046E16888477F1CC4
:1005E0000546022F46F02006C4DBA069002803DA86
:1005F000404246F00106A061F00701D026F0100647
:100600006C2D0BD0682D09D04C2D39D06A2D35D0EA
:10061000742D35D07A2D33D016E038E0E1682F46BE
:1006200020468847B842054609D16C2F26D04FF4A2
:100630008060E168064320468847054604E06C2F49
:100640001AD04FF4807006430DB3A5F1410019286C
:1006500002D8203546F400664A46294620462660E0
:100660004E46FFF7BFFD80B101280BD0F61D26F0E6
:10067000070000F1080956E74020E4E78020D8E7AA
:100680000020D6E706F104094DE7284652E7206A24
:10069000BDE8F09FCA2C010030B505460B462A463E
:1006A00013F8014B12F8010B08B1A042F8D01CB1AD
:1006B000002802D06D1CF1E7284630BD10B5431C60
:1006C00002E010F8011B71B18107FAD14FF001323D
:1006D00002C88C1A8C4314EAC211F9D0C01A0A0657
:1006E00003D0C01E10BDC01A10BD0A0401D0801E68
:1006F00010BD0902FCD0401E10BD00004FF0013CAF
:1007000050F8042B51F8043B9A4221D1A2EB0C0380
:10071000934313EACC1317D150F8042B51F8043B40
:100720009A4215D1A2EB0C03934313EACC130BD1DD
:1007300050F8042B51F8043B9A4209D1A2EB0C0368
:10074000934313EACC13DBD04FF00000704700BF97
:10075000D01A01BAB1FA81F101F0180122FA01F0C0
:10076000CB40C1F12001DBB2C0B2C01A2CFA01F3B8
:10077000D11A914311EAC311E6D17047704770470F
:100780007047704710B500F0A1F9006810BD10B5B2
:10079000044600F09BF9046010BD09684A0501D5C4
:1007A00040B27047C905FCD500B2704709684A05D8
:1007B00001D5C0B27047C905FCD580B270472DE99C
:1007C000F0470D4699469246044600F12408016818
:1007D000880604D5E06921F01001216000E00120C5
:1007E000A84201DD471B00E00027A1697A1902EB4E
:1007F0000900081AA0612078C00602D42046FFF73D
:10080000B1FD002608E0D4E901211AF8060090475E
:10081000206A401C761C20624E45F4DB2078C0061E
:100820000AD52046FFF79EFD06E0D4E901213020DD
:100830009047206A401C2062381EA7F10107F4DCB3
:1008400007E0D4E9012118F805009047206A401C10
:100850002062281EA5F10105F3DC2046FFF798FD74
:100860002078000602D50220BDE8F0870120FBE7D2
:1008700011680268006A530501D508700AE0D305C3
:1008800001D5088006E0130603D5C217C1E90002AE
:1008900000E008600120704701694A1C0261087885
:1008A000704700B58FB0CDE90131002105910549B0
:1008B0007944CDE9031011466846FFF729FE0FB0D1
:1008C00000BD0000E5FFFFFF0A6802F8010B0A60A7
:1008D000704710B5436913B1AFF3008001E0FFF733
:1008E00068FD012010BD127800F124010A70002279
:1008F0004A700122EDE711684FF0FF32E9E700008E
:10090000074B70B50D467B44FFF7CBFF04462846E6
:1009100000F048FB10B14FF0FF3070BD204670BDB5
:1009200093DD00002DE9FF5F15468A460446DFF897
:10093000AC80F8440027D8E900103E46CDE900100D
:1009400010E03AF816106A4602A800F02FFB411C8E
:1009500007D02178890603D5E269391891420DD86C
:100960000744761C2078800602D5E069B84205DD90
:10097000AE42E6DB3AF816000028E2D1A069C01BBF
:10098000A0612046FFF7EEFCD8E90010CDE9001089
:10099000002017E03AF818106A4602A800F006FB9B
:1009A000B0F1FF3F81460BD000250DF1080B05E0AB
:1009B000D4E901211BF8050090476D1C4D45F7D384
:1009C00008F10100B0428046E4DB206A384420622E
:1009D0002046FFF7DDFCBDE8FF9F0000CA280100AC
:1009E0002DE9F0418046D21D22F007020025D2E910
:1009F0000002F52915A614D0011E72F1000106DAD5
:100A00000023D0EB030063EB020211A608E0D8F844
:100A100000108B0701D50FA602E0490701D50EA6ED
:100A200001251146002408F1240704E000F052F8E3
:100A300030323A55641C50EA0102F7D12B46324657
:100A400021464046BDE8F041FFF7B9BE0000000076
:100A50002D0000002B0000002000000030B4002119
:100A600000F1240408E002F00705D208303542EA1C
:100A70004372DB086554491C52EA0305F3D104684C
:100A8000002310A2250707D5A40600D421B1C4690C
:100A900001230DA2641EC46130BCFFF790BE10B5E7
:100AA000044621461068FFF781FE02462046BDE855
:100AB00010400023D2E7D21D22F00701D1E9002324
:100AC000CCE7000000000000300000000048704744
:100AD00090A1002030B5B0F10A024FEA900E71F1FA
:100AE00000034EEA817EB0EB0E0061EB91014FEA0C
:100AF000101E4EEA017E10EB0E0041EB11114FEA81
:100B0000102E4EEA016E10EB0E0041EB11214FEA60
:100B1000104E4EEA014E10EB0E0041EB1141401811
:100B200041F100014FEAD00040EA41704FEAD101A3
:100B300010EB80054FEA810444EA907444EB010411
:100B40006D1944EB0404521BA3414FF0000348BF4E
:100B50000A3200D530BD401C41F1000130BD704764
:100B60002DE9FF4F0C461E464FF0FF378BB0D2E900
:100B70000001DDF860800A908A46C1F30A5505B984
:100B80003D46002108464FF00000BAF1000F00F486
:100B9000400005DA00EB80004FF4400101EA50000C
:100BA0004FEA9059B9F1010F00DDB9460A9850EAB1
:100BB0004A000ED044F61050A5F2FF3545432F14DD
:100BC000B8F1000F1ED07542291E1EDDC9F10002CA
:100BD0001CE0B8F1010F4FF0000001D0302103E01C
:100BE000F24305E02154401CB042FBDB30460022BA
:100BF000002121540B99C1F80880C1E900200FB0F1
:100C0000BDE8F08FBD1B6D1CDEE74A4600DA694285
:100C100006A800F061FA06AB93E8070003AB83E88F
:100C2000070050460A9900F0CEFA8DE80700A0F5BB
:100C300000501F3800900398002D09DD42F21F017B
:100C40004A46084403A90390684600F02DFD08E0D9
:100C5000A0F500504A461F3803A90390684600F0EB
:100C600037FD8DE807000004000C03D04FF0FF3083
:100C7000410800E01046B8F1000F03D000220092B6
:100C800015461EE0751E05D4FFF724FF303262556D
:100C90006D1EF9D5B3460122084302D000227F1C05
:100CA00004E02078302801D100227F1E002A099715
:100CB00086D01DE0112D07DAFFF70CFF30326255A8
:100CC0006D1C50EA0102F5D1084302D00098C8B16A
:100CD0000EE00021681E05E0235C625C6354225430
:100CE000401E491C8142F7DBAB46A81B401E099001
:100CF000002004F80B000B98099AC0F80880C0E99E
:100D0000002B7CE711264FF0000859E72DE9F04F42
:100D100088460446D21D22F0070191B0D1E90001B6
:100D2000CDE90A0109F0B1FA02460B98C00F01D0D3
:100D30002D2007E02068810701D52B2002E020212B
:100D400001EAC000032A099001D0072A05DB034607
:100D50004146204600F080F90BE12078800601D55D
:100D6000E06900E00620B8F1650F814606D0B8F1D1
:100D7000660F18D0B8F1670F70D131E00020B9F1DB
:100D8000110F009001DB112301E009F101030AAA10
:100D900001A90CA8FFF7E4FEDDE90C70002609F1BB
:100DA0000105834647E001204B4600904FF0004785
:100DB0000AAA01A90CA8FFF7D3FEDDE90DB00C9932
:100DC0005D46002610B909F101000D18B9EB0500C8
:100DD00003D4C0F1FF3609F10105A5EB09002BE0B2
:100DE000B9F1010F01DA4FF001090020B9F1110F3B
:100DF0000090484601DD112300E003460AAA01A93C
:100E00000CA8FFF7ADFEDDE90C704D4600268346C9
:100E1000207800070AD4AB4500DA5D4601A8012D11
:100E200004DD411911F8011C302907D04F4502DAC1
:100E300017F1040F04DA012082460FE06D1EEEE781
:100E4000002F02DCED1B3E4403E0781CA84200DDCD
:100E50007D1CB81B00F1010A4FF000472078000705
:100E600003D4AA4501DB4FF0FF3A0021B7F1004F50
:100E70000DF143088DF8431024D002202B23002FBE
:100E800001DA7F422D230A21021EA0F1010000DCBD
:100E90005FB197FBF1FC97FBF1F201FB1C7C17465D
:100EA0000CF1300C08F801CDEEE7A8F10100037059
:100EB0002188090501D5452100E06521A0F101083F
:100EC00000F8011C09980FA9A1EB0807FF1D00B14C
:100ED0000120411901EBEA70A1693844081A401E4B
:100EE000A0612078C00602D42046FFF73BFA09989B
:100EF00028B1D4E901219047206A401C2062207863
:100F0000C00622D52046FFF72DFA1EE0002E04DB96
:100F1000B34502DD01A8805D00E03020D4E9012165
:100F20009047206A401C2062761CAAF101005FEA0B
:100F3000000A0AD100F08CF8C0680168405CD4E96E
:100F400001219047206A401C2062281EA5F101055E
:100F5000DCDC07E0D4E9012118F8010B9047206A96
:100F6000401C2062381EA7F10107F3DC2046FFF782
:100F70000FFA032011B043E610B5436913B1AFF384
:100F8000008001E0FFF7CEFC012010BD128800F1C7
:100F9000240182840022C2840122EDE711684FF00F
:100FA000FF32E9E7007B00F08000704770B516461D
:100FB0000C46054600F044F8036893F80101012847
:100FC00006D0FF2C0FD8185D68B101202C7070BDC1
:100FD000D3F807013246214603F20713034428469B
:100FE000BDE8704018474FF0FF3070BD00487047B3
:100FF00090A100207546FFF7F9FFAE46050069464F
:10100000534620F00700854618B020B5FFF762F977
:10101000BDE820404FF000064FF000074FF00008F9
:101020004FF0000B21F00701AC46ACE8C009ACE87A
:10103000C009ACE8C009ACE8C0098D4670470000A3
:1010400010B500F005F8001D10BD00BF8DF50000C3
:1010500000487047B0A100202DE9F0411F4604462A
:1010600003260168072A01F4006004DB08B116A515
:1010700005E016A503E008B115A500E015A521F0CF
:1010800010002060A069C01EA0610FB1401EA061C9
:101090002046FFF767F94FB1D4E901213846904760
:1010A000206A401C2062C01C206206E0206AFAE729
:1010B000D4E9012115F8010B9047761EF8D220469D
:1010C000FFF766F9BDE8F0814E414E006E616E009B
:1010D000494E4600696E66002DE9F0478146164686
:1010E0008AB0334878440DC88DE80D003048784404
:1010F000801C03AC0DC884E80D0041F69B30084409
:10110000372190FBF1F290FBF1F5A5F1800501FB91
:1011100012041B3C02D56442012000E00020DFF8ED
:1011200090A080460027FA44AAF1BE0A0DE0E0072D
:1011300009D03246684607EB47010AEB810100F00F
:10114000C7FA8DE8070064107F1C002CEFD1184F00
:101150007F44AC3F18E0E80714D007EB04100DF112
:10116000180A90E80E008AE80E00C068F04201D12B
:1011700098190890324606A903A800F0A9FA03AB13
:1011800083E807006D10641C002DE4D132466946E7
:10119000B8F1000F03A802D000F086FA01E000F0D9
:1011A00097FAC9E90001C9F808200AB0BDE8F0873C
:1011B0009C21010010B50446AFF300802046BDE835
:1011C0001040FFF772B85FEA400C08BF91F0000FC3
:1011D0004FEA8C234FEAC12243EA51514FEA1C5097
:1011E00018BF00F5F0404FEA300018BF41F0004151
:1011F0005FEA6C5C00F02980BCF1FF3F08BF40F063
:1012000080407047130C06BF12044FF0100C4FF0D3
:10121000000C130E04BF12020CF1080C130F04BFD4
:1012200012010CF1040C930F04BF92000CF1020C9C
:10123000D30F04BF52000CF1010C11464FF0000215
:10124000A0F11F00A0EB0C00704711F0004F08BF89
:10125000704731F000413FF4D5AF0B0C06BF0904D5
:101260004FF0100C4FF0000C0B0E04BF09020CF1F4
:10127000080C0B0F04BF09010CF1040C8B0F04BF09
:1012800089000CF1020CCB0F04BF49000CF1010CDA
:10129000CCF12003A0EB0C0022FA03F302FA0CF2CB
:1012A00041EA030100F10100704720F07F4C80EA21
:1012B000030023F07F47ACEB070303F57C5300F0FA
:1012C000004003F1FF032DE980494FEA154B09B4B3
:1012D0004FEA144325EA0B4E24EA03480FF2042692
:1012E00006EB132749083E785FEA320203FB0667E4
:1012F000C7F5000707FB06F64FEA54374FEAD64614
:1013000006F1020607FB066CCCF1005C4FEA1C47B5
:101310002CEA074C07FB06F40CFB06F504EB15461C
:101320004FEA961634BF00204FF000404FEAD13705
:1013300006FB07FC4FEA1C4C0CFB0BF7D21B03FB14
:101340000CF761EB07010CFB0EF7B0EB074072EBFB
:1013500017420CFB08F734BFA2EB0742B2EB07427F
:1013600061EB17414FEA0C444FEA910706FB07FC7B
:101370004FEA1C4C0CFB0BF7B0EBC74072EB57323B
:1013800003FB0CF734BFA2EBC742B2EBC74261EBE1
:1013900057310CFB0EF7B0EBC70072EB57720CFB2A
:1013A00008F734BFA2EBC702B2EBC70261EB57717B
:1013B000039F4FEA816141EA921104EBCC044FEAAA
:1013C000D1374FEA826206FB07FC42EA90124FEAED
:1013D00080604FEA1C4C0CFB0BF7D21B03FB0CF795
:1013E00061EB07010CFB0EF7B0EB074072EB174205
:1013F0000CFB08F734BFA2EB0742B2EB074261EBEC
:1014000017414FEA8C554FEA910704EB9C2406FBE9
:1014100007FC4FEA1C4C0CFB0BF7B0EBC74072EB20
:10142000573203FB0CF734BFA2EBC742B2EBC74203
:1014300061EB57310CFB0EF7B0EBC70072EB577244
:101440000CFB08F734BFA2EBC702B2EBC70261EB9B
:10145000577115EB4C254FEA816141EA92114FEA31
:1014600082624FEAD13742EA901206FB07FC44F150
:1014700000044FEA80604FEA1C4C0CFB0BF7D21BB8
:1014800003FB0CF761EB07010CFB0EF7B0EB074019
:1014900072EB17420CFB08F734BFA2EB0742B2EB2A
:1014A000074261EB174115EB1C154FEA813141EA08
:1014B00092414FEA823242EA90424FEA80304FEA4C
:1014C0000C7644F1000448EA03434EEA0B484FF01F
:1014D000000EB2EB080C71EB030724BF62463946DD
:1014E0004EEB0E0E4FF0000B0018524149414BEBF2
:1014F0000B0BB2EB080C71EB03077BF1000B24BF65
:10150000624639464EEB0E0E4FF0000B001852416A
:1015100049414BEB0B0BB2EB080C71EB03077BF172
:10152000000B24BF624639464EEB0E0E51EA02070D
:1015300018BF46F0010616EB0E7655F1000254F185
:10154000000103D5BDE88901BDE80088BDE8890137
:10155000BDE80048B619524141EB0101A3F1010376
:10156000704780807F7E7D7C7B7A79787776767510
:101570007473727171706F6E6E6D6C6C6B6A6A6988
:101580006868676666656464636362616160605F22
:101590005F5E5E5D5D5C5C5B5B5A5A59595858579B
:1015A0005756565555555454535352525251515003
:1015B00050504F4F4F4E4E4D4D4D4C4C4C4B4B4B56
:1015C0004A4A4A494949484848474747474646469C
:1015D00045454544444444434343434242424241D7
:1015E0004141002B26D4770021D01CB54FEA3707A4
:1015F00003B44FF010004FF010014FF000000FBC8B
:10160000BDE810400BF1010BBBF1010F08BF5FEA11
:10161000170722BF12F1010211F101014FF0004141
:1016200043F1000300F0004043EA00007047F9D3A3
:101630005708DAE746EA064613F1400F4FEA164626
:101640001FDD13F1200FDFBF16430A4600212033B0
:101650005B42C8D0C3F1200746EA064602FA07F704
:101660004FEA164646EA0706C3F1200722FA03F2BC
:1016700001FA07F721FA03F14FF0000342EA0702EB
:10168000B1E746EA020646EA06464FEA164646EA49
:101690000106BCBF46EA0646360C4FF000034FF089
:1016A00000024FF000019EE72DE9C048934630B498
:1016B00091E8380007C831EA400C48BF34EA430CCF
:1016C00003D5FFF7F2FDFFF78CFFF0BCBDE8008803
:1016D0002DE9C048934630B491E8380007C810F0AF
:1016E000804F08BF13F0804F03D100F005F8FFF7DB
:1016F00078FFF0BCBDE8008820F07F4780EA030057
:1017000023F07F4C07EB0C03A3F57C5300F0004063
:10171000A3F1FE0392F0000F00F0B38095F0000FEC
:1017200000F077802DE901494FEA11404FEA144655
:1017300021EA004800FB06FC24EA064708FB06F6FF
:1017400007FB08F800FB07F718EB06484CEB164CB4
:101750004FEA124B18EB07484FEA15464CEB17407F
:1017600022EA0B4E0BFB06FC25EA06470EFB06F6AB
:1017700007FB0EFE0BFB07F71EEB064E4CEB164C61
:101780004FF000061EEB074E4CEB174B18EB0B0807
:1017900040F1000018EB0E0B58EB000840F1000080
:1017A0008F1A4FF000013CBFC943661B14BFB5EB55
:1017B000040C00213CBFC943F61B4FEA17444EEA14
:1017C0008E0E27EA04454FEA1C4704FB07622CEA09
:1017D000074C05FB07F70CFB05F604FB0CFC16EBAE
:1017E000074642EB174216EB0C4642EB1C421BEB42
:1017F000060658EB0202414146EA9E0601D5BDE8C5
:101800000189B619524141EB0101A3F10103BDE881
:1018100001894FEA14454FEA114724EA054621EAB7
:10182000074C05FB07F406FB07F70CFB06F105FB6D
:101830000CFC11EB074144EB17444FEA124711EB44
:101840000C4144EB1C4422EA074C05FB07F206FB63
:1018500007F70CFB06F605FB0CFC16EB074642EB04
:10186000174216EB0C4642EB1C456A1854F1000176
:1018700048BF7047B619524141EB0101A3F1010382
:10188000704795F0000F37D04FEA11424FEA1447E6
:1018900021EA024624EA074C02FB07F106FB07F7A0
:1018A0000CFB06F402FB0CFC14EB074441EB174164
:1018B0004FEA154714EB0C4441EB1C4125EA074C59
:1018C00002FB07F506FB07F70CFB06F602FB0CFC18
:1018D00016EB074645EB174516EB0C4645EB1C424D
:1018E000121951F1000148BF7047B619524141EB3E
:1018F0000101A3F1010370474FEA14454FEA114774
:1019000024EA054621EA074C05FB07F106FB07F729
:101910000CFB06F24FF0000605FB0CFC12EB074235
:1019200041EB174112EB0C4251EB1C4148BF704791
:10193000921841EB0101A3F10103704710B500F0CB
:10194000B5FF10BD2DE9F04107460C4600260025E5
:1019500009E036023919491B491E88B200F008F81F
:101960000644681CC5B2A542F3DB3046BDE8F081F1
:1019700070B50446002601F04DF82546E11704EB4A
:1019800011610912A02202EB4101C8B201F00EF868
:1019900001F08CF8E11704EB11610912A4EB0121AD
:1019A000C8B201F003F801F081F801F033F8A1208A
:1019B00000F0FCFF01F07AF8002000F0BFFF0646BF
:1019C00001F04EF8304670BD2DE9F04105460E4657
:1019D0001746002409E0E20026FA02F2D1B22A19E1
:1019E00090B200F006F8601CC4B2BC42F3DBBDE864
:1019F000F08170B504460E4601F00CF82546E1175B
:101A000004EB11610912A02202EB4101C8B200F0FF
:101A1000CDFF01F04BF8E11704EB11610912A4EBC3
:101A20000121C8B200F0C2FF01F040F8304600F0DA
:101A3000BDFF01F03BF801F013F80A200BF0AAFDFE
:101A400070BD00BFFEE710B50A200BF0C9FD10BD48
:101A500010B500200E4908600E48006820F4704060
:101A60000C4908600846006840F4405008600020B7
:101A70000949C1F88C01FFF7E6FF0120044908601D
:101A8000FFF7E1FF00200449C1F8800110BD00000C
:101A90008001224200100140000022420F4880696C
:101AA00040F010000D4988610D4800684FF20F01A9
:101AB00088430B4908600846006843F20301084365
:101AC000074908600846C06840F00200C860084640
:101AD000C06840F00800C860704700000010024075
:101AE0000010014010B500200E4908600E48006843
:101AF00020F470400C4908600846006840F44050EB
:101B0000086001200949C1F88C01FFF79CFF012002
:101B100004490860FFF797FF00200449C1F88001DD
:101B200010BD00008001224200100140000022424E
:101B300070B5054600241548006820F4704013492C
:101B400008600846006840F400400860002613E082
:101B500000200F4908601E200BF042FD01200D49B6
:101B6000C1F880016006040E09487438006808B1A5
:101B7000601CC4B2701CC6B2082EE9DB15B9FFF7B1
:101B8000B1FF01E0FFF764FF204670BD0010014087
:101B9000800122420000224270B5044612480068CB
:101BA00020F47040104908600846006840F4405036
:101BB000086000200D490860002512E0E0090B498B
:101BC0000C3108606006040E01200949C1F880014B
:101BD000FFF739FF002005490860FFF734FF681C54
:101BE000C5B2082DEADB70BD001001408001224221
:101BF0000000224210B50E48006820F470400C49E5
:101C000008600846006840F4405008600120094917
:101C100008600949C1F88001FFF715FF0020054958
:101C20000860FFF710FF00200349C1F8800110BDD4
:101C3000001001408C0122420000224210B50E48E3
:101C4000006820F470400C4908600846006840F4C1
:101C5000405008600020094908600949C1F88C011A
:101C6000FFF7F1FE012005490860FFF7ECFE0120B7
:101C70000349C1F88C0110BD0010014080012242CF
:101C80000000224210B500241448006820F470407F
:101C9000124908600846006840F4004008600120CE
:101CA0000F4908600BF09CFC01200E49C1F880012F
:101CB0000BF096FC07E0601CC4B2FA2C03DDFFF7C2
:101CC000BDFF012010BD0648803800680028F2D111
:101CD00003490C39086000BFF4E700000010014020
:101CE0008C0122420000224221B1026842F001022E
:101CF000026004E002684FF6FE731A40026070470B
:101D000001684FF6FE7211400160002101604160E0
:101D10008160C1604B49884208D14A490839496805
:101D200041F00F01474A083A51608AE045491431B1
:101D3000884208D143490839496841F0F001414AD5
:101D4000083A51607DE03F492831884208D13D4939
:101D50000839496841F470613A4A083A516070E0C4
:101D600038493C31884208D136490839496841F43C
:101D70007041344A083A516063E032495031884238
:101D800008D130490839496841F470212D4A083A90
:101D9000516056E02B496431884208D129490839FD
:101DA000496841F47001274A083A516049E02549E1
:101DB0007831884208D123490839496841F0706177
:101DC000204A083A51603CE01F49884206D1011F71
:101DD000096841F00F01021F116032E01A49143105
:101DE000884208D11849091F096841F0F001164AD4
:101DF000121F116025E014492831884208D1124988
:101E0000091F096841F470610F4A121F116018E040
:101E10000D493C31884208D10B49091F096841F43A
:101E20007041094A121F11600BE007495031884286
:101E300007D10549091F096841F47021024A121FA0
:101E400011607047080002400804024001464868DB
:101E500080B2704710B50022026847F6F0739A43CB
:101E60000C6A8B6823430C6923434C6923438C69B8
:101E70002343CC6923434C6A23438C6A23431A438C
:101E80000260CB6843600B6883604B68C36010BD21
:101E900041607047704700001CB50121102006F01A
:101EA00029F94FF40050ADF8000010208DF8030020
:101EB00003208DF8020069462D4800F088F94FF4A0
:101EC00000512B4800F061FA0220ADF800004820D4
:101ED0008DF803006946264800F079F9022124486C
:101EE00000F053FAFFF7DAFD0020224908601420C1
:101EF0000BF050FB01202049C1F8B40132200BF057
:101F000049FB00208DF80400012201A900F036F9F8
:101F1000012201A9A42000F031F916208DF8040057
:101F2000012201A9802000F029F90C208DF804007D
:101F3000012201A9882000F021F9022201A9A12093
:101F400000F022F89DF8040030280ED19DF805001D
:101F500003280AD19DF805009DF8042000EB02211A
:101F600006A0FEF7DDF900201CBD0120FCE7000003
:101F700000100140B401224200002242435450208C
:101F800049443A25780D0A002DE9F04106460F46EE
:101F90001546FFF72FFE7020FFF7FEFDFFF772FEDC
:101FA000F0B2FFF7F9FDFFF76DFEFFF723FE71209A
:101FB000FFF7F2FDFFF766FE00240BE0691EA14269
:101FC00001D0012100E000210846FFF7B1FD38559E
:101FD000601CC4B2AC42F1DBFFF730FEBDE8F0811B
:101FE00071B581B00024002661480078401C60492A
:101FF0000870084600780A2190FBF1F201FB1200FC
:1020000018B15B4800780A2867DA012201A902208A
:10201000FFF7BAFF9DF8040000F00F0000287ED003
:102020009DF8040000F00F00062878DA9DF80400FF
:1020300000F00F01FF208840C5B2E843C0B240F075
:10204000C0004C4981F8200000245AE0494890F82B
:1020500020000121A1400840F0B3474931F81400A5
:1020600004226946FFF790FF424890F8300000F0E4
:102070000100C0B19DF801009DF8001001F00F01B2
:1020800000EB01203B49163121F814009DF80300B4
:102090009DF8021001F00F0100EB012135480C30D2
:1020A00020F814101DE09DF801009DF8001001F0CB
:1020B0000F0100EB0120C0F5F07081B22D480C300B
:1020C00020F814109DF803009DF8021001F00F0194
:1020D00000EB0121274801E011E020E0163020F854
:1020E00014109DF8000000F0F000802807D00021B7
:1020F0002048163020F814100A3820F81410601CFC
:10210000C4B2052CA2DB01261A48808920B91948DF
:10211000C08A08B9002001900020154908709DF878
:10212000040000F01F00D0B9124890F8200000F021
:10213000800040B10F4890F8200020F080000D4949
:1021400081F820000BE04FF6FF700A498881C882B1
:10215000084690F8200000F0E00081F820000448D4
:102160000078F02802DD0A200149087030467CBD65
:10217000370000203C0000202A1501082DE9F0411D
:1021800005460E4617464FF00008FFF733FD702056
:10219000FFF702FDFFF776FDE8B2FFF7FDFCFFF762
:1021A00071FD00240BE0305DFFF7F6FCFFF76AFDE0
:1021B0008046B8F1000F00D003E0601CC4B2BC42FE
:1021C000F1DB00BFFFF73AFD4046BDE8F0812DE9A5
:1021D000F0410246002500260020002300240027AD
:1021E00091F803C00CF00F0591F803C00CF0100C2F
:1021F000BCF1000F03D091F802C04CEA050591F83C
:1022000000C0BCF1000F31D0146800202BE04FF06B
:10221000010C0CFA00F3B1F800C00CEA03069E4270
:1022200020D183004FF00F0C0CFA03F7BC4305FAE2
:1022300003FC4CEA040491F803C0BCF1280F06D15A
:102240004FF0010C0CFA00FCC2F814C00AE091F83F
:1022500003C0BCF1480F05D14FF0010C0CFA00FC93
:10226000C2F810C0401C0828D1D31460B1F800C0D7
:10227000BCF1FF0F34DD546800202EE000F1080CA3
:102280004FF0010808FA0CF3B1F800C00CEA03069D
:102290009E4221D183004FF00F0C0CFA03F7BC4390
:1022A00005FA03FC4CEA040491F803C0BCF1280FC2
:1022B00005D100F1080C08FA0CF8C2F8148091F866
:1022C00003C0BCF1480F07D100F1080C4FF0010822
:1022D00008FA0CF8C2F81080401C0828CED35460CD
:1022E000BDE8F081F0B50A46002300240021002556
:1022F00000F00046B6F1004F02D11D4EF16901E039
:102300001B4E7168C0F3034583B200F44016B6F566
:10231000401F08D121F07061154E766826F0706676
:10232000134F7E6012E000F48016B6F5801F06D1D0
:10233000032606FA05F4A14341F0706106E0460D5C
:10234000360103FA06F6B14341F0706122B1460D41
:10235000360103FA06F6314300F00046B6F1004FAD
:1023600002D1034EF16101E0014E7160F0BD000049
:10237000000001400246002093680B400BB1012091
:1023800000E0002070474161704701617047000024
:102390000EB50121102005F0ADFE42F20200ADF8AD
:1023A000000010208DF8030003208DF8020069461C
:1023B0003448FFF70CFF02213248FFF7E6FF4FF4E5
:1023C00000513048FFF7E1FFFFF768FB00202E497E
:1023D00008600A200BF0DEF801202C49C1F8B40196
:1023E0000A200BF0D7F80220ADF8000028208DF865
:1023F000030069462348FFF7EAFE02212148FFF760
:10240000C2FF64200BF0C6F8042201A948F2401074
:1024100000F052F800208DF8080001A91CA0FDF77B
:102420007FFF1EA101A8FEF769F940BB02208DF8CD
:102430000400012201A948F2400000F06FF90122D6
:1024400001A948F2470000F037F89DF80400602821
:1024500007DA9DF8041013A0FDF762FF012000F0D9
:102460002FF90A200BF096F800208DF804000122C5
:1024700001A948F2400000F051F900200EBD0120F2
:10248000FCE7000000100140B4012242000022429B
:102490004354502049443A25730D0A0039313437EA
:1024A0000000000044656661756C74205665723AE0
:1024B00025640D0A000000002DE9F04105460F4695
:1024C0001646FFF797FB2820FFF766FBFFF7DAFBBE
:1024D0002812FFF761FBFFF7D5FBE8B2FFF75CFBC3
:1024E000FFF7D0FBFFF786FB2920FFF755FBFFF72F
:1024F000C9FB00240BE0711EA14201D0012100E0C4
:1025000000210846FFF714FB3855601CC4B2B442E2
:10251000F1DBFFF793FBBDE8F081000031B582B03D
:102520000024002563480078401C62490870084672
:1025300000780A2190FBF1F201FB120018B15D480E
:1025400000780A287DDA012202A948F24E10FFF72E
:10255000B3FF9DF8080000F00F0000286BD09DF835
:10256000080000F00F00062865DA9DF8080000F06A
:102570000F01FF208840C0B200909DF80000C043CA
:10258000C0B240F0C0004C4981F82000002444E073
:10259000494890F820000121A140084020B3474954
:1025A00031F81400042201A9FFF786FF424890F891
:1025B000300000F00100C0B19DF804009DF8051046
:1025C00000EB012081B23C48163020F814109DF831
:1025D00006009DF8071000EB0120C0F5487081B29D
:1025E00035480C3020F8141015E09DF804009DF8D3
:1025F000051000EB012081B22F480C3020F8141098
:102600009DF806009DF8071000EB012081B22A48D2
:10261000163020F81410601CC4B2052CB8DB01255C
:102620002548808920B92448C08A08B90020029032
:102630000020204908709DF8080000F0800000B1DB
:1026400000E00DE09DF8080000F00F00062807DA12
:10265000002000900122694648F24E1000F05EF81A
:102660009DF8080000F08F0080281AD1124890F8D9
:10267000200000F0800040B10F4890F8200020F0CA
:1026800080000D4981F820000BE04FF6FF700A49E9
:102690008881C882084690F8200000F0E00081F8A8
:1026A000200004480078F02802DD0A200149087063
:1026B00028463EBD380000203C000020EC150108F3
:1026C00038B50546002400208DF800008DF8015033
:1026D00000BF09E09DF800000F49095D0844C0B241
:1026E0008DF80000601CC4B2B82CF3D39DF8000034
:1026F000C043401CC0B28DF80000B822064948F221
:10270000470000F00BF80222694648F2FF0000F093
:1027100005F8002038BD0000341501082DE9F0410E
:1027200004460E4617464FF00008FFF763FA2820CC
:10273000FFF732FAFFF7A6FA2012FFF72DFAFFF79C
:10274000A1FAE0B2FFF728FAFFF79CFA00250BE0A8
:10275000705DFFF721FAFFF795FA8046B8F1000F98
:1027600000D003E0681CC5B2BD42F1DB00BFFFF73B
:1027700065FA4046BDE8F0812DE9F05F81460F46DD
:1027800014462046E21704EB5272D2102146E3179A
:1027900004EB5373DB10A4EBC3030BB1012300E084
:1027A00000231A44624302F0FF0B99F8006009F11C
:1027B000010081460578812E05DB402D03DBFF2DCE
:1027C00001D0FF2E0DD14FF0000A06E0002007F8DF
:1027D000010B0AF1010000F0FF0ADA45F6DBBDE863
:1027E000F09F7F2D03DAA5F14000C5B202E0A5F10C
:1027F0004100C5B2A6F18100C6B2BE2000FB065062
:1028000000FB0BF80C2C04D0102C0CD0182C1ED173
:1028100013E01048D0F8090000EB080118223846F0
:1028200006F056F813E00B48D0F8110000EB080151
:102830002022384606F04CF809E00648D0F8190086
:1028400000EB08014822384606F042F800BF00BFFE
:1028500000BFC4E7AE0C002000BFFEE710B50020AB
:102860000F4908600F48406820F470400D494860E7
:102870000846406840F44050486000200A49C1F8CA
:10288000AC0102200AF0ACFE0120054908600220DC
:102890000AF0A6FE00200449C1F8B00110BD0000F6
:1028A000B0012242001001400000224208B501217F
:1028B000102005F01FFC4FF4C050ADF800001020B0
:1028C0008DF8030003208DF8020069460448FFF7E5
:1028D0007EFC0120034908600349C1F8AC0108BD32
:1028E00000100140B00122420000224210B5002039
:1028F0000F4908600F48406820F470400D49486057
:102900000846406840F44050486001200A49C1F838
:10291000AC0102200AF064FE012005490860022093
:102920000AF05EFE00200449C1F8B00110BD0000AD
:10293000B0012242001001400000224270B505465D
:1029400000241748406820F4704015494860084644
:10295000406840F400404860002616E0002011491D
:10296000086002200AF03CFE01200F49C1F8B001C6
:102970006006040E0B488438006808B1601CC4B2BD
:1029800001200AF02DFE701CC6B2082EE6DB15B938
:10299000FFF7ACFF01E0FFF761FF204670BD0000CC
:1029A00000100140B00122420000224270B50446EE
:1029B0001548406820F47040134948600846406854
:1029C00040F440504860002010490860002517E09E
:1029D000E0090E49091F08606006040E02200AF093
:1029E000FFFD01200A49C1F8B00102200AF0F8FDFC
:1029F00000200649086002200AF0F2FD681CC5B2FA
:102A0000082DE5DB70BD000000100140B00122423E
:102A10000000224210B50F48406820F470400D4974
:102A200048600846406840F44050486001200A4928
:102A300008600A49C1F8B00104200AF0D1FD002065
:102A40000549086004200AF0CBFD00200349C1F8C5
:102A5000B00110BD00100140AC0122420000224232
:102A600010B50F48406820F470400D494860084692
:102A7000406840F44050486000200A4908600A4914
:102A8000C1F8AC0104200AF0ABFD01200549086043
:102A90000549C1F8AC0104200AF0A2FD10BD0000F8
:102AA00000100140B00122420000224210B5002473
:102AB0001448406820F47040124948600846406855
:102AC00040F40040486001200F4908600AF088FD8A
:102AD00001200E49C1F8B0010AF082FD07E0601C38
:102AE000C4B2FA2C03DDFFF7BBFF012010BD06487E
:102AF000803800680028F2D10349091D086000BF32
:102B0000F4E7000000100140AC0122420000224224
:102B100008B50121142005F0EDFA01211148FFF755
:102B2000E1FB4FF40040ADF8000048208DF80300B1
:102B300069460D48FFF74BFB2020ADF80000482008
:102B40008DF8030069460948FFF741FB0120ADF805
:102B5000000028208DF8030069460348FFF737FB83
:102B600008BD0000000230000008014000100140D4
:102B700010B5044614B10120244908702348007898
:102B800068B320212248FFF7F5FB58B14FF400410C
:102B90002048FFF7EFFB28B101211E48FFF7EAFBB1
:102BA00001281CD10A200AF0F5FC00201749087002
:102BB00020211748FFF7DEFB08B9012010BD4FF4B4
:102BC00000411448FFF7D6FB08B90220F6E70121BF
:102BD0001048FFF7CFFB012815D10420EEE7202194
:102BE0000B48FFF7C7FB01280DD1C1030948FFF7C8
:102BF000C1FB012807D101210648FFF7BBFB10B933
:102C00000120024908700020D8E7000032000020AF
:102C1000001001400008014070B5044600261D4820
:102C20000588408845431B48808846F60401884251
:102C300016D118488079012812D1002015498871D1
:102C40002A2048812B2088810021084604F0C6FCF8
:102C50000120104988712B2048812A20888103E0B7
:102C60000021084604F0BAFC04F0CCFF00260DE079
:102C70004FF48070084908614000486107480460CB
:102C800080204861086180000861761CAE42EFD365
:102C900070BD0000A00C0020001001400C0C014091
:102CA00010B50446002C66D16C498871F02008806C
:102CB0004FF4A07048800846808849F2413188422C
:102CC0000BD06648808846F60401884205D06348E8
:102CD000808845F2103188421AD12C205F49088142
:102CE0002A2048812B2088810846808846F60401E6
:102CF000884205D05948808845F21031884206D173
:102D00004FF4A070554908804FF4F0704880A1E05E
:102D10005248808845F21051884210D14FF430500B
:102D20004E4908814FF4285048814FF42C50888137
:102D30004FF4F07008804FF4487048808AE04748AC
:102D4000808841F6631188420DD12C2043490881C7
:102D50002B2048812A2088814FF4F07008804FF49E
:102D60004870488076E022203C4908812020488134
:102D7000212088816EE00120384988714FF4A070CD
:102D80000880F02048800846808849F24131884216
:102D900005D03248808845F21031884207D12C2076
:102DA0002E4908812A2048812B2088813FE02B482A
:102DB000808846F60401884207D12C2027490881E3
:102DC0002B2048812A20888131E02448808845F2E0
:102DD0001051884210D14FF43050204908814FF4EF
:102DE000285048814FF42C5088814FF44870088057
:102DF0004FF4F07048801AE01848808841F663115B
:102E000088420DD12C20154908812A2048812B2089
:102E100088814FF4487008804FF4F070488006E0D5
:102E200022200E49088121204881202088810B48DA
:102E3000808846F60401884205D00848808845F21B
:102E40001031884206D14FF4F070044908804FF4E5
:102E5000A0704880002004F095F910BDA00C00205F
:102E60002DE9FF4F84B081468A46002003900290EE
:102E70000698A0EB09050798A0EB0A06CDF8049088
:102E8000CDF800A0002D01DD012705E00DB90027D8
:102E900002E04FF0FF376D42002E02DD4FF00108D7
:102EA00006E016B94FF0000802E04FF0FF38764216
:102EB000B54201DD2C4600E034464FF0000B21E026
:102EC000009A91B2019A90B200F022F80398284437
:102ED00003900298304402900398A04205DD0398C5
:102EE000001B03900198384401900298A04205DD30
:102EF0000298001B02900098404400900BF10100E2
:102F00001FFA80FB601C8345DADD08B0BDE8F08F56
:102F100030B504460D462946204604F05FFB04F018
:102F200071FE4FF48070074908614000486106480F
:102F300000880649086080200249486108618000D5
:102F4000086130BD001001407A0000200C0C0140E7
:102F5000F0B504460D4616461F462B463246294616
:102F60002046FFF77DFF3B46224629462046FFF7D5
:102F700077FF3B46324639462046FFF771FF3B4616
:102F8000324629463046FFF76BFFF0BD2DE9F0438E
:102F900006460F469046002445460320A0EB48090C
:102FA0003CE07A1B91B2321990B2FFF7B1FF3A1BA5
:102FB00091B2721990B2FFF7ABFF3A1991B2721940
:102FC00090B2FFF7A5FF7A1991B2321990B2FFF7CC
:102FD0009FFF7A1991B2321B90B2FFF799FF3A190D
:102FE00091B2721B90B2FFF793FF7A1B91B2321B22
:102FF00090B2FFF78DFF3A1B91B2721B90B2FFF7B0
:1030000087FF641CB9F1000F03DAA000801D814422
:1030100004E0601B80000A3081446D1EAC42C0DDBC
:10302000BDE8F08370B504460D461646D348808847
:1030300049F24131884205D0D048808845F21031AC
:10304000884240D1CD49488904F0CAFD4FF48070D0
:10305000CB490861400048612012CA4908608020BD
:10306000C74948610861800008614010086140005C
:103070004861E0B2C34908608020C14948610861E5
:1030800080000861BD49888904F0AAFD4FF4807072
:10309000BB490861400048612812BA490860802095
:1030A000B74948610861800008614010086140002C
:1030B0004861E8B2B34908608020B14948610861BD
:1030C000800008613DE1AD48808845F2105188429A
:1030D00050D1AA49488904F083FD4FF48070A84973
:1030E0000861400048612012A64908608020A44978
:1030F0004861086180000861A0494989491C88B27B
:1031000004F06EFD4FF480709D49086140004861F5
:10311000E0B29C49086080209949486108618000BC
:1031200008619649888904F05BFD4FF480709449EA
:103130000861400048612812924908608020904947
:1031400048610861800008618C498989491C88B2FE
:1031500004F046FD4FF480708949086140004861E1
:10316000E8B288490860802085494861086180008C
:103170000861E6E08148808841F6631188427DD18C
:103180007E48807920B97D480088401E001B84B2AB
:103190007A49488904F024FD4FF480707849086129
:1031A00040004861201277490860802074494861D6
:1031B0000861800008614010086140004861E0B289
:1031C0007049086080206E4948610861800008618C
:1031D000401008614000486120126A490860802060
:1031E000674948610861800008614010086140003B
:1031F0004861E0B263490860802061494861086124
:10320000800008615D49888904F0EAFC4FF4807011
:103210005B4908614000486128125A4908608020D3
:10322000574948610861800008614010086140000A
:103230004861E8B2534908608020514948610861FB
:1032400080000861401008614000486128124D4923
:10325000086080204A494861086180000861401088
:10326000086140004861E8B246490860802044494E
:10327000486108618000086163E0FFE73F4880889B
:1032800046F60401884249D13C488079012804D19E
:103290003A480088401E001B84B23849488904F02F
:1032A0009FFC4FF48070364908614000486120124D
:1032B0003449086080203249486108618000086113
:1032C0004010086140004861E0B22E49086080204B
:1032D0002B4948610861800008612849888904F009
:1032E0007FFC4FF480702649086140004861281235
:1032F00024490860802022494861086180000861F3
:103300004010086140004861E8B21E490860802012
:103310001B49486108618000086112E01748807904
:10332000012804D115480088401E001B84B21349AF
:103330004889214604F06EFC10498889294604F02A
:1033400069FC4FF480700E494861400048610B48A9
:1033500000890C49086080200949486108618000A3
:1033600008614010086140004861064806608020FE
:10337000486108618000086170BD0000A00C002059
:10338000001001400C0C01402DE9FC4F05460E4693
:1033900017469846DDF82C90002001902C48808834
:1033A00046F60401884229D129488079012825D18F
:1033B000AB46354626480088C01B401E86B24746AD
:1033C00023480088A0EB0B00401E1FFA80F8002065
:1033D0001F4988712A2048812B20888143463A461C
:1033E00031462846CDF80090FFF7CEFF012018495E
:1033F00088712B2048812A20888127E0781B401C77
:1034000080B2019034461FE02146284604F0E6F8D9
:1034100004F0F8FB4FF0000A11E04FF480700D4902
:103420000861400048610C48C0F800908020486165
:103430000861800008610AF101001FFA80FA019812
:103440008245EADB601C84B24445DDDDBDE8FC8FCB
:10345000A00C0020001001400C0C014008B5012117
:10346000192004F047FE0121FE48FEF73BFF4FF410
:10347000F860ADF8000010208DF8030003208DF8EF
:1034800002006946F848FEF7A2FE4FF4F861F648DC
:10349000FEF77BFF4FF6FF70ADF800006946F3487A
:1034A000FEF795FE4FF6FF71F048FEF76EFF3220F3
:1034B0000AF070F80121002004F0ACFB32200AF081
:1034C00069F8002003F0ECFDE9498880084680880F
:1034D000FF280ADB084680884FF6FF71884204D037
:1034E000E3488088B0F5134F7ED1D32004F078FBF9
:1034F00003F09EFD03F09CFD03F09AFDDC498880FB
:10350000084680884FF6FF7101EA0020D84988807C
:1035100003F08EFDD64989880843D549888008463E
:10352000808849F2413188425ED0BF2004F058FBC8
:1035300003F07EFD03F07CFD03F07AFD03F078FDDF
:10354000CB498880084680884FF6FF7101EA002049
:10355000C749888003F06CFDC54989880843C44980
:1035600088800846808846F60401884274D0D420BA
:1035700004F036FB03F05CFD03F05AFD03F058FD48
:10358000BB498880084680884FF6FF7101EA002019
:10359000B749888003F04CFDB54989880843B44990
:1035A00088800846808845F21031884254D04FF414
:1035B0005A4004F015FB03F03BFD4FF45B4004F070
:1035C0000FFB03F035FDAA498880084680884FF636
:1035D000FF7101EA0020A64988804FF45C4004F0A6
:1035E000FFFA03F025FD00E036E0A1498988084391
:1035F0009F49888008468088B0F5004F02D145F287
:10360000105088809A48808845F21051884223D013
:10361000A12004F0E5FA03F00BFD9549888003F042
:1036200007FD93498880084680884FF6FF7101EABC
:1036300000208F49888003F0FBFC8D49898808436E
:103640008B4988800846808845F26171884203D1A1
:1036500041F66310864988808548818885A0FCF7FB
:103660005FFE8348808849F2413188427ED1CF2075
:1036700004F0B6FA002004F0A1FAC12004F09EFA8A
:10368000302004F09BFAED2004F0AAFA642004F044
:1036900095FA032004F092FA122004F08FFA8120A8
:1036A00004F08CFAE82004F09BFA852004F086FAF6
:1036B000102004F083FA7A2004F080FACB2004F082
:1036C0008FFA392004F07AFA2C2004F077FA0020DF
:1036D00004F074FA342004F071FA022004F06EFA57
:1036E000F72004F07DFA202004F068FAEA2004F0C4
:1036F00077FA002004F062FA002004F05FFAC0209C
:1037000004F06EFA1B2004F059FAC12004F068FAA4
:10371000012004F053FAC52004F062FA302004F0CE
:103720004DFA302004F04AFAC72004F059FAB720C5
:1037300004F044FA362004F053FA482004F03EFA2C
:103740003A2004F04DFA552004F038FAB12004F084
:1037500047FA002004F032FA1A2004F02FFAB620BB
:1037600004F03EFA0A2004F029FA00E0A9E0A220C1
:1037700004F024FAF22004F033FA002004F01EFAD8
:10378000262004F02DFA012004F018FAE02004F0BD
:1037900027FA0F2004F012FA2A2004F00FFA28204A
:1037A00004F00CFA082004F009FA0E2004F006FADE
:1037B000082004F003FA542004F000FAA92004F0D1
:1037C000FDF9432004F0FAF90A2004F0F7F90F207C
:1037D00004F0F4F9002004F0F1F9002004F0EEF90F
:1037E000002004F0EBF9002004F0E8F9E12004F0F7
:1037F000F7F9002004F0E2F9152004F0DFF91720B2
:1038000004F0DCF9072004F0D9F9112004F0D6F90E
:10381000062004F0D3F92B2004F0D0F9562004F050
:10382000CDF93C2004F0CAF9052004F0C7F91020B6
:1038300004F0C4F90F2004F0C1F93F2004F0BEF9F0
:103840003F2004F0BBF90F2004F0B8F92B2004F05E
:10385000C7F9002004F0B2F9002004F0AFF901200C
:1038600010E000000002300000100140000C014098
:10387000A00C0020204C43442049443A25780D0AEE
:103880000000000004F09AF93F2004F097F92A2084
:1038900004F0A6F9002004F091F9002004F08EF95C
:1038A000002004F08BF9EF2004F088F9112004F0D7
:1038B00097F9782009F06EFE292004F091F903F0C1
:1038C0009ABBFE48808846F6040188427ED11120CA
:1038D00004F086F9142009F05DFED02004F080F990
:1038E000072004F06BF9422004F068F91D2004F071
:1038F00065F9D12004F074F9002004F05FF91A2072
:1039000004F05CF9092004F059F9D22004F068F9B8
:10391000012004F053F9222004F050F9C02004F0F3
:103920005FF9102004F04AF93B2004F047F9002029
:1039300004F044F9022004F041F9112004F03EF9AA
:10394000C52004F04DF9032004F038F9C82004F034
:1039500047F9002004F032F9252004F02FF9212046
:1039600004F02CF9052004F029F9002004F026F9D0
:103970000A2004F023F9652004F020F9252004F042
:103980001DF9772004F01AF9502004F017F90F20E0
:1039900004F014F9002004F011F9F82004F020F9E3
:1039A000012004F00BF9FE2004F01AF9002004F0C5
:1039B00005F9022004F002F9202004F011F9362064
:1039C00004F00EF9082004F0F9F800E02AE03A20AB
:1039D00004F006F9552004F0F1F82B2004F000F96A
:1039E000002004F0EBF8002004F0E8F8012004F0D7
:1039F000E5F83F2004F0E2F82A2004F0F1F8002076
:103A000004F0DCF8002004F0D9F8012004F0D6F826
:103A1000DF2004F0D3F8782009F0BCFD292004F061
:103A2000DFF84CE7A548808845F21031884240F025
:103A30007C87ED2004F0D4F8012004F0BFF8FE20CC
:103A400004F0BCF8EE2004F0CBF8DE2004F0B6F869
:103A5000212004F0B3F8F12004F0C2F8012004F0B2
:103A6000ADF8DF2004F0BCF8102004F0A7F8C42063
:103A700004F0B6F88F2004F0A1F8C62004F0B0F8E6
:103A8000002004F09BF8E22004F098F8E22004F013
:103A900095F8E22004F092F8BF2004F0A1F8AA20E3
:103AA00004F08CF8B02004F09BF80D2004F086F8A8
:103AB000002004F083F80D2004F080F8002004F0CA
:103AC0007DF8112004F07AF8002004F077F819202E
:103AD00004F074F8002004F071F8212004F06EF86E
:103AE000002004F06BF82D2004F068F8002004F0AA
:103AF00065F83D2004F062F8002004F05FF85D20D6
:103B000004F05CF8002004F059F85D2004F056F849
:103B1000002004F053F8B12004F062F8802004F093
:103B20004DF8002004F04AF88B2004F047F80020FC
:103B300004F044F8962004F041F8002004F03EF828
:103B4000B22004F04DF8002004F038F8002004F012
:103B500035F8022004F032F8002004F02FF803209A
:103B600004F02CF8002004F029F8B32004F038F811
:103B7000002004F023F8002004F020F8002004F0D6
:103B80001DF8002004F01AF8002004F017F80020B7
:103B900004F014F8002004F011F8002004F00EF8EE
:103BA000002004F00BF8002004F008F8002004F0D6
:103BB00005F8002004F002F8002003F0FFFF0020C9
:103BC00003F0FCFF002003F0F9FF002003F0F6FFF4
:103BD000002003F0F3FF002003F0F0FF002003F0CB
:103BE000EDFF002003F0EAFF002003F0E7FF0020D4
:103BF00003F0E4FF002003F0E1FF002003F0DEFF0C
:103C0000B42003F0EDFF8B2003F0D8FF002003F079
:103C1000D5FF962003F0D2FF002003F0CFFFA120B4
:103C200003F0CCFF002003F0C9FFB52003F0D8FF5C
:103C3000022003F0C3FF002003F0C0FF032003F0C5
:103C4000BDFF002003F0BAFF042003F0B7FF0020FF
:103C500003F0B4FFB62003F0C3FF002003F0AEFF73
:103C6000002003F0ABFFB72003F0BAFF002003F001
:103C7000A5FF002003F0A2FF3F2003F09FFF0020DC
:103C800003F09CFF5E2003F099FF002003F096FFF5
:103C9000642003F093FF002003F090FF8C2003F0DA
:103CA0008DFF002003F08AFFAC2003F087FF002087
:103CB00003F084FFDC2003F081FF01E0A00C002072
:103CC000002003F07BFF702003F078FF002003F05A
:103CD00075FF902003F072FF002003F06FFFEB20D0
:103CE00003F06CFF002003F069FFDC2003F066FFA7
:103CF000002003F063FFB82003F072FF002003F000
:103D00005DFF002003F05AFF002003F057FF002062
:103D100003F054FF002003F051FF002003F04EFF9A
:103D2000002003F04BFF002003F048FFBA2003F00F
:103D300057FF242003F042FF002003F03FFF002044
:103D400003F03CFF002003F039FFC12003F048FFDF
:103D5000202003F033FF002003F030FF542003F055
:103D60002DFF002003F02AFFFF2003F027FF002093
:103D700003F024FFC22003F033FF0A2003F01EFFEC
:103D8000002003F01BFF042003F018FF002003F0C5
:103D900015FFC32003F024FF3C2003F00FFF002099
:103DA00003F00CFF3A2003F009FF002003F006FFA8
:103DB000392003F003FF002003F000FF372003F059
:103DC000FDFE002003F0FAFE3C2003F0F7FE002089
:103DD00003F0F4FE362003F0F1FE002003F0EEFEC7
:103DE000322003F0EBFE002003F0E8FE2F2003F06A
:103DF000E5FE002003F0E2FE2C2003F0DFFE0020B1
:103E000003F0DCFE292003F0D9FE002003F0D6FEEB
:103E1000262003F0D3FE002003F0D0FE242003F080
:103E2000CDFE002003F0CAFE242003F0C7FE0020D0
:103E300003F0C4FE232003F0C1FE002003F0BEFE09
:103E40003C2003F0BBFE002003F0B8FE362003F058
:103E5000B5FE002003F0B2FE322003F0AFFE0020DA
:103E600003F0ACFE2F2003F0A9FE002003F0A6FE15
:103E70002C2003F0A3FE002003F0A0FE292003F075
:103E80009DFE002003F09AFE262003F097FE0020FE
:103E900003F094FE242003F091FE002003F08EFE38
:103EA000242003F08BFE002003F088FE232003F083
:103EB00085FE002003F082FEC42003F091FE622004
:103EC00003F07CFE002003F079FE052003F076FE6F
:103ED000002003F073FE842003F070FE002003F046
:103EE0006DFEF02003F06AFE002003F067FE18204C
:103EF00003F064FE002003F061FEA42003F05EFEE8
:103F0000002003F05BFE182003F058FE002003F0B1
:103F100055FE502003F052FE002003F04FFE0C200F
:103F200003F04CFE002003F049FE172003F046FE8C
:103F3000002003F043FE952003F040FE002003F034
:103F40003DFEF32003F03AFE002003F037FEE620AA
:103F500003F034FE002003F031FEC52003F040FEE4
:103F6000322003F02BFE002003F028FE442003F053
:103F700025FE002003F022FE652003F01FFE002036
:103F800003F01CFE762003F019FE002003F016FE5D
:103F9000882003F013FE002003F010FEC62003F07B
:103FA0001FFE202003F00AFE002003F007FE17206A
:103FB00003F004FE002003F001FE012003F0FEFDEB
:103FC000002003F0FBFDC72003F00AFE002003F0F1
:103FD000F5FD002003F0F2FD002003F0EFFD0020CE
:103FE00003F0ECFDC82003F0FBFD002003F0E6FD2C
:103FF000002003F0E3FD002003F0E0FD002003F0CB
:10400000DDFDC92003F0ECFD002003F0D7FD00200A
:1040100003F0D4FD002003F0D1FD002003F0CEFD1D
:10402000002003F0CBFD002003F0C8FD002003F0CA
:10403000C5FD002003F0C2FD002003F0BFFD0020FD
:1040400003F0BCFD002003F0B9FD002003F0B6FD35
:10405000002003F0B3FD002003F0B0FD002003F0CA
:10406000ADFD002003F0AAFDE02003F0B9FD16200D
:1040700003F0A4FD002003F0A1FD1C2003F09EFD31
:10408000002003F09BFD212003F098FD002003F0A9
:1040900095FD362003F092FD002003F08FFD4620B1
:1040A00003F08CFD002003F089FD522003F086FD13
:1040B000002003F083FD642003F080FD002003F066
:1040C0007DFD7A2003F07AFD002003F077FD8B2040
:1040D00003F074FD002003F071FD992003F06EFDE4
:1040E000002003F06BFDA82003F068FD002003F022
:1040F00065FDB92003F062FD002003F05FFDC420E0
:1041000003F05CFD002003F059FDCA2003F056FDCA
:10411000002003F053FDD22003F050FD002003F0F7
:104120004DFDD92003F04AFD002003F047FDE020BB
:1041300003F044FD002003F041FDF32003F03EFDB9
:10414000002003F03BFDE12003F04AFD162003F0C0
:1041500035FD002003F032FD1C2003F02FFD002070
:1041600003F02CFD222003F029FD002003F026FDA2
:10417000362003F023FD002003F020FD452003F04E
:104180001DFD002003F01AFD522003F017FD002052
:1041900003F014FD642003F011FD002003F00EFD78
:1041A0007A2003F00BFD002003F008FD8B2003F0C4
:1041B00005FD002003F002FD992003F0FFFC002024
:1041C00003F0FCFCA82003F0F9FC002003F0F6FC4F
:1041D000B92003F0F3FC002003F0F0FCC42003F04E
:1041E000EDFC002003F0EAFCCA2003F0E7FC00200D
:1041F00003F0E4FCD22003F0E1FC002003F0DEFC3D
:10420000D82003F0DBFC002003F0D8FCE02003F012
:10421000D5FC002003F0D2FCF32003F0CFFC0020FB
:1042200003F0CCFCE22003F0DBFC052003F0C6FC2D
:10423000002003F0C3FC0B2003F0C0FC002003F0BF
:10424000BDFC1B2003F0BAFC002003F0B7FC3420B7
:1042500003F0B4FC002003F0B1FC442003F0AEFCFA
:10426000002003F0ABFC4F2003F0A8FC002003F07B
:10427000A5FC612003F0A2FC002003F09FFC792044
:1042800003F09CFC002003F099FC882003F096FCCE
:10429000002003F093FC972003F090FC002003F033
:1042A0008DFCA62003F08AFC002003F087FCB720D9
:1042B00003F084FC002003F081FCC22003F07EFCAC
:1042C000002003F07BFCC72003F078FC002003F003
:1042D00075FCD12003F072FC002003F06FFCD620A7
:1042E00003F06CFC002003F069FCDD2003F066FCA9
:1042F000002003F063FCF32003F060FC002003F0D7
:104300005DFCE32003F06CFC052003F057FC00206B
:1043100003F054FC0A2003F051FC002003F04EFC93
:104320001C2003F04BFC002003F048FC332003F07A
:1043300045FC002003F042FC442003F03FFC002039
:1043400003F03CFC502003F039FC002003F036FC65
:10435000622003F033FC002003F030FC782003F0EF
:104360002DFC002003F02AFC882003F027FC00200D
:1043700003F024FC972003F021FC002003F01EFC36
:10438000A62003F01BFC002003F018FCB72003F06C
:1043900015FC002003F012FCC22003F00FFC0020EB
:1043A00003F00CFCC72003F009FC002003F006FC1E
:1043B000D12003F003FC002003F000FCD52003F023
:1043C000FDFB002003F0FAFBDD2003F0F7FB0020EB
:1043D00003F0F4FBF32003F0F1FB002003F0EEFB0D
:1043E000E42003F0FDFB012003F0E8FB002003F0D4
:1043F000E5FB012003F0E2FB002003F0DFFB0220DD
:1044000003F0DCFB002003F0D9FB2A2003F0D6FBED
:10441000002003F0D3FB3C2003F0D0FB002003F08E
:10442000CDFB4B2003F0CAFB002003F0C7FB5D204F
:1044300003F0C4FB002003F0C1FB742003F0BEFBBB
:10444000002003F0BBFB842003F0B8FB002003F046
:10445000B5FB932003F0B2FB002003F0AFFBA220DA
:1044600003F0ACFB002003F0A9FBB32003F0A6FB94
:10447000002003F0A3FBBE2003F0A0FB002003F00C
:104480009DFBC42003F09AFB002003F097FBCD2096
:1044900003F094FB002003F091FBD32003F08EFB8C
:1044A000002003F08BFBDD2003F088FB002003F0ED
:1044B00085FBF32003F082FB002003F07FFBE52067
:1044C00003F08EFB002003F079FB002003F076FB65
:1044D000002003F073FB002003F070FB022003F0C8
:1044E0006DFB002003F06AFB292003F067FB00202E
:1044F00003F064FB3C2003F061FB002003F05EFB53
:104500004B2003F05BFB002003F058FB5D2003F021
:1045100055FB002003F052FB742003F04FFB0020FA
:1045200003F04CFB842003F049FB002003F046FB22
:10453000932003F043FB002003F040FBA22003F094
:104540003DFB002003F03AFBB32003F037FB0020D3
:1045500003F034FBBE2003F031FB002003F02EFB00
:10456000C42003F02BFB002003F028FBCD2003F038
:1045700025FB002003F022FBD32003F01FFB0020CB
:1045800003F01CFBDC2003F019FB002003F016FBFA
:10459000F32003F013FB002003F010FBE62003F0F0
:1045A0001FFB112003F00AFB002003F007FB34205F
:1045B00003F004FB002003F001FB562003F0FEFA99
:1045C000002003F0FBFA762003F0F8FA002003F055
:1045D000F5FA772003F0F2FA002003F0EFFA6620F4
:1045E00003F0ECFA002003F0E9FA882003F0E6FA81
:1045F000002003F0E3FA992003F0E0FA002003F032
:10460000DDFABB2003F0DAFA002003F0D7FA992094
:1046100003F0D4FA002003F0D1FA662003F0CEFABA
:10462000002003F0CBFA552003F0C8FA002003F075
:10463000C5FA552003F0C2FA002003F0BFFA452066
:1046400003F0BCFA002003F0B9FA432003F0B6FAF5
:10465000002003F0B3FA442003F0B0FA002003F086
:10466000ADFAE72003F0BCFA322003F0A7FA0020ED
:1046700003F0A4FA552003F0A1FA002003F09EFAFB
:10468000762003F09BFA002003F098FA662003F0EE
:1046900095FA002003F092FA672003F08FFA0020C9
:1046A00003F08CFA672003F089FA002003F086FA01
:1046B000872003F083FA002003F080FA992003F0AA
:1046C0007DFA002003F07AFABB2003F077FA00208D
:1046D00003F074FA992003F071FA002003F06EFAE7
:1046E000772003F06BFA002003F068FA442003F00F
:1046F00065FA002003F062FA562003F05FFA00200A
:1047000003F05CFA232003F059FA002003F056FA74
:10471000332003F053FA002003F050FA452003F051
:104720004DFA002003F04AFAE82003F059FA00207D
:1047300003F044FA002003F041FA992003F03EFA16
:10474000002003F03BFA872003F038FA002003F042
:1047500035FA882003F032FA002003F02FFA772090
:1047600003F02CFA002003F029FA662003F026FA61
:10477000002003F023FA882003F020FA002003F041
:104780001DFAAA2003F01AFA002003F017FABB2042
:1047900003F014FA002003F011FA992003F00EFA46
:1047A000002003F00BFA662003F008FA002003F063
:1047B00005FA552003F002FA002003F0FFF9552016
:1047C00003F0FCF9002003F0F9F9442003F0F6F9B6
:1047D000002003F0F3F9442003F0F0F9002003F087
:1047E000EDF9552003F0EAF9002003F0E7F9E9209C
:1047F00003F0F6F9AA2003F0E1F9002003F0DEF956
:10480000002003F0DBF9002003F0D8F9002003F0CA
:10481000E7F9AA2003F0D2F9CF2003F0E1F9002054
:1048200003F0CCF9002003F0C9F9002003F0C6F929
:10483000002003F0C3F9002003F0C0F9002003F0CA
:10484000BDF9002003F0BAF9002003F0B7F9002009
:1048500003F0B4F9002003F0B1F9002003F0AEF941
:10486000002003F0ABF9002003F0A8F9002003F0CA
:10487000A5F9002003F0A2F9002003F09FF9002021
:1048800003F09CF9F02003F0ABF9002003F096F957
:10489000502003F093F9002003F090F9002003F07A
:1048A0008DF9002003F08AF9F32003F099F9002034
:1048B00003F084F9F92003F093F9062003F07EF960
:1048C000102003F07BF9292003F078F9002003F091
:1048D00075F93A2003F084F9552003F06FF911209F
:1048E00003F07EF9642008F055FE292003F078F9E2
:1048F000352003F075F9002003F060F9512003F032
:104900006FF9FF2003F05AF9532003F069F92C20C6
:1049100003F054F9552003F063F9822003F04EF9B7
:104920002C2003F05DF902F066BBFE48808845F25A
:10493000105188427ED155214FF4704003F06AF93E
:10494000AA214FF2010003F065F952214FF2020053
:1049500003F060F908214FF2030003F05BF9012135
:104960004FF2040003F056F90D214FF4304003F0EC
:1049700051F90D214BF2010003F04CF90D214BF2DE
:10498000020003F047F934214FF4364003F042F9B6
:1049900034214BF2016003F03DF934214BF2026007
:1049A00003F038F90D214FF4314003F033F90D21B4
:1049B0004BF2011003F02EF90D214BF2021003F01F
:1049C00029F934214FF4374003F024F934214BF214
:1049D000017003F01FF934214BF2027003F01AF951
:1049E00000214FF4324003F015F900214BF2012071
:1049F00003F010F900214BF2022003F00BF92421FF
:104A00004FF4384003F006F924214BF6010003F07F
:104A100001F924214BF6020003F0FCF801214FF4C8
:104A20003F4003F0F7F80F214FF4334003F0F2F862
:104A30000F2100E0FEE34BF2013003F0EBF80F2111
:104A40004BF2023003F0E6F834214FF4394003F022
:104A5000E1F834214BF6011003F0DCF834214BF679
:104A6000021003F0D7F808214FF4354003F0D2F8D4
:104A700008214BF2015003F0CDF808214BF202500F
:104A800003F0C8F803214FF4424003F0C3F8242197
:104A90004FF43A4003F0BEF824214BF6012003F016
:104AA000B9F824214BF6022003F0B4F800214FF4AA
:104AB0003C4003F0AFF878214BF6014003F0AAF830
:104AC00000214BF6024003F0A5F800214FF43D40D1
:104AD00003F0A0F878214BF6015003F09BF8002179
:104AE0004BF6025003F096F800214FF43E4003F0DD
:104AF00091F864214BF6016003F08CF800214FF42B
:104B0000514003F087F833214DF2011003F082F891
:104B100000214DF2021003F07DF834214DF2031014
:104B200003F078F800214DF2041003F073F83A21F5
:104B30004DF2051003F06EF800214DF2061003F05F
:104B400069F84A214DF2071003F064F800214DF294
:104B5000081003F05FF85C214DF2091003F05AF8D9
:104B600000214DF20A1003F055F881214DF20B108F
:104B700003F050F800214DF20C1003F04BF8A62181
:104B80004DF20D1003F046F800214DF20E1003F027
:104B900041F8E5214DF20F1003F03CF801214DF2F0
:104BA000101003F037F813214DF2111003F032F812
:104BB00001214DF2121003F02DF854214DF2131083
:104BC00003F028F801214DF2141003F023F882219C
:104BD0004DF2151003F01EF801214DF2161003F0EE
:104BE00019F8CA214DF2171003F014F802214DF202
:104BF000181003F00FF800214DF2191003F00AF815
:104C000002214DF21A1003F005F801214DF21B109C
:104C100003F000F802214DF21C1002F0FBFF3421DA
:104C20004DF21D1002F0F6FF02214DF21E1002F0AF
:104C3000F1FF67214DF21F1002F0ECFF02214DF24F
:104C4000201002F0E7FF84214DF2211002F0E2FF74
:104C500002214DF2221002F0DDFFA4214DF22310BB
:104C600002F0D8FF02214DF2241002F0D3FFB72149
:104C70004DF2251002F0CEFF02214DF2261002F077
:104C8000C9FFCF214DF2271002F0C4FF02214DF2DF
:104C9000281002F0BFFFDE214DF2291002F0BAFF0A
:104CA00002214DF22A1002F0B5FFF2214DF22B1035
:104CB00002F0B0FF02214DF22C1002F0ABFFFE21FA
:104CC0004DF22D1002F0A6FF03214DF22E1002F03E
:104CD000A1FF10214DF22F1002F09CFF03214DF295
:104CE000301002F097FF33214DF2311002F092FFA5
:104CF00003214DF2321002F08DFF6D214DF2331081
:104D000002F088FF00214FF4524002F083FF33216C
:104D10004DF2012002F07EFF00214DF2022002F050
:104D200079FF01E0A00C002034214DF2032002F0B5
:104D300071FF00214DF2042002F06CFF3A214DF288
:104D4000052002F067FF00214DF2062002F062FF0D
:104D50004A214DF2072002F05DFF00214DF20820AC
:104D600002F058FF5C214DF2092002F053FF0021B0
:104D70004DF20A2002F04EFF81214DF20B2002F08D
:104D800049FF00214DF20C2002F044FFA6214DF214
:104D90000D2002F03FFF00214DF20E2002F03AFFFD
:104DA000E5214DF20F2002F035FF01214DF21020D8
:104DB00002F030FF13214DF2112002F02BFF0121F0
:104DC0004DF2122002F026FF54214DF2132002F082
:104DD00021FF01214DF2142002F01CFF82214DF22F
:104DE000152002F017FF01214DF2162002F012FFEC
:104DF000CA214DF2172002F00DFF02214DF21820BA
:104E000002F008FF00214DF2192002F003FF0221F9
:104E10004DF21A2002F0FEFE01214DF21B2002F09D
:104E2000F9FE02214DF21C2002F0F4FE34214DF275
:104E30001D2002F0EFFE02214DF21E2002F0EAFEDC
:104E400067214DF21F2002F0E5FE02214DF22020E5
:104E500002F0E0FE84214DF2212002F0DBFE02216F
:104E60004DF2222002F0D6FEA4214DF2232002F0C2
:104E7000D1FE02214DF2242002F0CCFEB7214DF2EA
:104E8000252002F0C7FE02214DF2262002F0C2FECC
:104E9000CF214DF2272002F0BDFE02214DF2282045
:104EA00002F0B8FEDE214DF2292002F0B3FE02210D
:104EB0004DF22A2002F0AEFEF2214DF22B2002F03C
:104EC000A9FE02214DF22C2002F0A4FEFE214DF29B
:104ED0002D2002F09FFE03214DF22E2002F09AFEBB
:104EE00010214DF22F2002F095FE03214DF23020CB
:104EF00002F090FE33214DF2312002F08BFE0321AF
:104F00004DF2322002F086FE6D214DF2332002F088
:104F100081FE00214FF4534002F07CFE33214DF21C
:104F2000013002F077FE00214DF2023002F072FEF5
:104F300034214DF2033002F06DFE00214DF20430B9
:104F400002F068FE3A214DF2053002F063FE0021C6
:104F50004DF2063002F05EFE4A214DF2073002F0BB
:104F600059FE00214DF2083002F054FE5C214DF252
:104F7000093002F04FFE00214DF20A3002F04AFEE5
:104F800081214DF20B3002F045FE00214DF20C3034
:104F900002F040FEA6214DF20D3002F03BFE002152
:104FA0004DF20E3002F036FEE5214DF20F3002F0E8
:104FB00031FE01214DF2103002F02CFE13214DF292
:104FC000113002F027FE01214DF2123002F022FED4
:104FD00054214DF2133002F01DFE01214DF2143028
:104FE00002F018FE82214DF2153002F013FE01216D
:104FF0004DF2163002F00EFECA214DF2173002F0CB
:1050000009FE02214DF2183002F004FE00214DF29B
:10501000193002F0FFFD02214DF21A3002F0FAFDC4
:1050200001214DF21B3002F0F5FD02214DF21C3042
:1050300002F0F0FD34214DF21D3002F0EBFD0221B3
:105040004DF21E3002F0E6FD67214DF21F3002F0F6
:10505000E1FD02214DF2203002F0DCFD84214DF211
:10506000213002F0D7FD02214DF2223002F0D2FDB4
:10507000A4214DF2233002F0CDFD02214DF2243067
:1050800002F0C8FDB7214DF2253002F0C3FD022128
:105090004DF2263002F0BEFDCF214DF2273002F056
:1050A000B9FD02214DF2283002F0B4FDDE214DF2AF
:1050B000293002F0AFFD02214DF22A3002F0AAFDA4
:1050C000F2214DF22B3002F0A5FD02214DF22C30E1
:1050D00002F0A0FDFE214DF22D3002F09BFD0321D8
:1050E0004DF22E3002F096FD10214DF22F3002F0DD
:1050F00091FD03214DF2303002F08CFD33214DF251
:10510000313002F087FD03214DF2323002F082FD92
:105110006D214DF2333002F07DFD00214FF45440FB
:1051200002F078FD33214DF2014002F073FD0021C1
:105130004DF2024002F06EFD34214DF2034002F0C8
:1051400069FD00214DF2044002F064FD3A214DF268
:10515000054002F05FFD00214DF2064002F05AFDCD
:105160004A214DF2074002F055FD00214DF2084062
:1051700002F050FD5C214DF2094002F04BFD002190
:105180004DF20A4002F046FD81214DF20B4002F043
:1051900041FD00214DF20C4002F03CFDA6214DF2F4
:1051A0000D4002F037FD00214DF20E4002F032FDBD
:1051B000E5214DF20F4002F02DFD01214DF210408E
:1051C00002F028FD13214DF2114002F023FD0121D0
:1051D0004DF2124002F01EFD54214DF2134002F038
:1051E00019FD01214DF2144002F014FD82214DF20F
:1051F000154002F00FFD01214DF2164002F00AFDAC
:10520000CA214DF2174002F005FD02214DF218406F
:1052100002F000FD00214DF2194002F0FBFC0221DA
:105220004DF21A4002F0F6FC01214DF21B4002F053
:10523000F1FC00E004E302214DF21C4002F0EAFC24
:1052400034214DF21D4002F0E5FC02214DF21E40DA
:1052500002F0E0FC67214DF21F4002F0DBFC02216E
:105260004DF2204002F0D6FC84214DF2214002F0A4
:10527000D1FC02214DF2224002F0CCFCA4214DF2DF
:10528000234002F0C7FC02214DF2244002F0C2FC90
:10529000B7214DF2254002F0BDFC02214DF226401F
:1052A00002F0B8FCCF214DF2274002F0B3FC0221FE
:1052B0004DF2284002F0AEFCDE214DF2294002F012
:1052C000A9FC02214DF22A4002F0A4FCF2214DF289
:1052D0002B4002F09FFC02214DF22C4002F09AFC80
:1052E000FE214DF22D4002F095FC03214DF22E409F
:1052F00002F090FC10214DF22F4002F08BFC0321B4
:105300004DF2304002F086FC33214DF2314002F084
:1053100081FC03214DF2324002F07CFC6D214DF204
:10532000334002F077FC00214FF4554002F072FC4C
:1053300033214DF2015002F06DFC00214DF202507C
:1053400002F068FC34214DF2035002F063FC0021AE
:105350004DF2045002F05EFC3A214DF2055002F08D
:1053600059FC00214DF2065002F054FC4A214DF246
:10537000075002F04FFC00214DF2085002F04AFCA9
:105380005C214DF2095002F045FC00214DF20A501B
:1053900002F040FC81214DF20B5002F03BFC002159
:1053A0004DF20C5002F036FCA6214DF20D5002F0E9
:1053B00031FC00214DF20E5002F02CFCE5214DF2A3
:1053C0000F5002F027FC01214DF2105002F022FC98
:1053D00013214DF2115002F01DFC01214DF212502B
:1053E00002F018FC54214DF2135002F013FC01217D
:1053F0004DF2145002F00EFC82214DF2155002F0D5
:1054000009FC01214DF2165002F004FCCA214DF2B4
:10541000175002F0FFFB02214DF2185002F0FAFB88
:1054200000214DF2195002F0F5FB02214DF21A5005
:1054300002F0F0FB01214DF21B5002F0EBFB0221C8
:105440004DF21C5002F0E6FB34214DF21D5002F0EB
:10545000E1FB02214DF21E5002F0DCFB67214DF210
:105460001F5002F0D7FB02214DF2205002F0D2FB78
:1054700084214DF2215002F0CDFB02214DF2225049
:1054800002F0C8FBA4214DF2235002F0C3FB02211D
:105490004DF2245002F0BEFBB7214DF2255002F030
:1054A000B9FB02214DF2265002F0B4FBCF214DF2A0
:1054B000275002F0AFFB02214DF2285002F0AAFB68
:1054C000DE214DF2295002F0A5FB02214DF22A50B7
:1054D00002F0A0FBF2214DF22B5002F09BFB0221C7
:1054E0004DF22C5002F096FBFE214DF22D5002F0B1
:1054F00091FB03214DF22E5002F08CFB10214DF256
:105500002F5002F087FB03214DF2305002F082FB56
:1055100033214DF2315002F07DFB03214DF2325028
:1055200002F078FB6D214DF2335002F073FB002145
:105530004FF4564002F06EFB33214DF2016002F051
:1055400069FB00214DF2026002F064FB34214DF250
:10555000036002F05FFB00214DF2046002F05AFB91
:105560003A214DF2056002F055FB00214DF2066034
:1055700002F050FB4A214DF2076002F04BFB002184
:105580004DF2086002F046FB5C214DF2096002F02A
:1055900041FB00214DF20A6002F03CFB81214DF2FB
:1055A0000B6002F037FB00214DF20C6002F032FB81
:1055B000A6214DF20D6002F02DFB00214DF20E6090
:1055C00002F028FBE5214DF20F6002F023FB0121E0
:1055D0004DF2106002F01EFB13214DF2116002F03B
:1055E00019FB01214DF2126002F014FB54214DF21F
:1055F000136002F00FFB01214DF2146002F00AFB70
:1056000082214DF2156002F005FB01214DF216607A
:1056100002F000FBCA214DF2176002F0FBFA0221F2
:105620004DF2186002F0F6FA00214DF2196002F016
:10563000F1FA02214DF21A6002F0ECFA01214DF26A
:105640001B6002F0E7FA02214DF21C6002F0E2FA60
:1056500034214DF21D6002F0DDFA02214DF21E6090
:1056600002F0D8FA67214DF21F6002F0D3FA02214E
:105670004DF2206002F0CEFA84214DF2216002F05A
:10568000C9FA02214DF2226002F0C4FAA4214DF2BF
:10569000236002F0BFFA02214DF2246002F0BAFA50
:1056A000B7214DF2256002F0B5FA02214DF22660D5
:1056B00002F0B0FACF214DF2276002F0ABFA0221DE
:1056C0004DF2286002F0A6FADE214DF2296002F0C8
:1056D000A1FA02214DF22A6002F09CFAF2214DF269
:1056E0002B6002F097FA02214DF22C6002F092FA40
:1056F000FE214DF22D6002F08DFA03214DF22E6055
:1057000002F088FA10214DF22F6002F083FA032193
:105710004DF2306002F07EFA33214DF2316002F03A
:1057200079FA03214DF2326002F074FA6D214DF2E4
:10573000336002F06FFA55214FF4704002F06AFABC
:10574000AA214FF2010002F065FA52214FF2020045
:1057500002F060FA08214FF2030002F05BFA002128
:105760004FF2040002F056FACC214FF4314002F01F
:1057700051FA00214BF2011002F04CFA05214FF4CE
:10578000364002F047FA70214FF4374002F042FAF7
:1057900070214BF2017002F03DFA01214FF43840C4
:1057A00002F038FA03214BF6010002F033FA03212C
:1057B0004BF6020002F02EFA03214BF6030002F032
:1057C00029FA02214FF43C4002F024FA00214BF662
:1057D000014002F01FFA00214BF6024002F01AFAD3
:1057E000D0214FF4494002F015FA02214CF6011085
:1057F00002F010FA50214CF6021002F00BFA502180
:105800004CF6031002F006FA50214CF6041002F098
:1058100001FA00214FF4545002F0FCF955214FF4E5
:10582000685002F0F7F94FF4885002F0D9F9782067
:1058300007F0D6FE4FF4245002F0D2F901F0DBBBA2
:10584000FE48808849F2253188427DD147F6F00133
:10585000E52002F0DFF94FF48071012002F0DAF95F
:105860004FF4E061022002F0D5F941F2300103204B
:1058700002F0D0F90021042002F0CCF940F202211C
:10588000082002F0C7F90021092002F0C3F9002125
:105890000A2002F0BFF900210C2002F0BBF9002120
:1058A0000D2002F0B7F900210F2002F0B3F900211A
:1058B000102002F0AFF90721112002F0ABF900210E
:1058C000122002F0A7F90021132002F0A3F9002111
:1058D000072002F09FF941F29061102002F09AF93E
:1058E00040F22721112002F095F99D21122002F0AB
:1058F00091F94FF4C851132002F08CF92521292089
:1059000002F088F90D212B2002F084F907213020C4
:1059100002F080F940F20331312002F07BF90321DB
:10592000322002F077F940F20621352002F072F9B8
:105930000821362002F06EF940F20641372002F0CD
:1059400069F94FF4417100E058E0382002F062F943
:105950000721392002F05EF940F202613C2002F09A
:1059600059F908213D2002F055F90021502002F09C
:1059700051F9EF21512002F04DF90021522002F09F
:1059800049F940F23F11532002F044F94FF4274106
:10599000602002F03FF90121612002F03BF9002173
:1059A0006A2002F037F90021802002F033F900214B
:1059B000812002F02FF90021822002F02BF9002132
:1059C000832002F027F90021842002F023F900212E
:1059D000852002F01FF91021902002F01BF94FF4EE
:1059E000C061922002F016F940F23311072002F054
:1059F00011F92221002002F00DF91FE78F4880885D
:105A000049F2283188427DD141F28F01EC2002F029
:105A100001F941F23421EF2002F0FCF84FF48071DB
:105A2000012002F0F7F84FF4E061022002F0F2F8F2
:105A300041F23001032002F0EDF80021042002F0D1
:105A4000E9F840F20221082002F0E4F800210920E0
:105A500002F0E0F800210A2002F0DCF801210C201D
:105A600002F0D8F800210D2002F0D4F800210F2018
:105A700002F0D0F80021102002F0CCF8072111200C
:105A800002F0C8F80021122002F0C4F8002113200F
:105A900002F0C0F80121072002F0BCF8322007F024
:105AA00079FD41F29041102002F0B4F840F2272134
:105AB000112002F0AFF8322007F06CFD8A2112208D
:105AC00002F0A8F8322007F065FD4FF4D051132002
:105AD00002F0A0F80621292002F09CF80D212B20CD
